{
  "contractName": "CoreBank",
  "abi": [
    {
      "constant": true,
      "inputs": [
        {
          "name": "",
          "type": "address"
        }
      ],
      "name": "userAmounts_",
      "outputs": [
        {
          "name": "totalKeys",
          "type": "uint256"
        },
        {
          "name": "totalBet",
          "type": "uint256"
        },
        {
          "name": "lastKeys",
          "type": "uint256"
        },
        {
          "name": "lastBet",
          "type": "uint256"
        },
        {
          "name": "totalBalance",
          "type": "uint256"
        },
        {
          "name": "withdrawAble",
          "type": "uint256"
        },
        {
          "name": "withdraw",
          "type": "uint256"
        },
        {
          "name": "totalProfit",
          "type": "uint256"
        },
        {
          "name": "inviteProfit",
          "type": "uint256"
        }
      ],
      "payable": false,
      "stateMutability": "view",
      "type": "function"
    },
    {
      "constant": true,
      "inputs": [],
      "name": "_opeAmount",
      "outputs": [
        {
          "name": "devFund",
          "type": "uint256"
        },
        {
          "name": "fees",
          "type": "uint256"
        }
      ],
      "payable": false,
      "stateMutability": "view",
      "type": "function"
    },
    {
      "anonymous": false,
      "inputs": [
        {
          "indexed": false,
          "name": "mainRound",
          "type": "uint256"
        },
        {
          "indexed": false,
          "name": "mainRoundStartTime",
          "type": "uint256"
        },
        {
          "indexed": false,
          "name": "mainRoundEndTime",
          "type": "uint256"
        },
        {
          "indexed": false,
          "name": "mainRoundKey",
          "type": "uint256"
        },
        {
          "indexed": false,
          "name": "mainRoundeth",
          "type": "uint256"
        },
        {
          "indexed": false,
          "name": "mainRoundPot",
          "type": "uint256"
        },
        {
          "indexed": false,
          "name": "subRound",
          "type": "uint256"
        },
        {
          "indexed": false,
          "name": "subRoundStartTime",
          "type": "uint256"
        },
        {
          "indexed": false,
          "name": "subRoundEndTime",
          "type": "uint256"
        },
        {
          "indexed": false,
          "name": "subRoundKey",
          "type": "uint256"
        },
        {
          "indexed": false,
          "name": "subRoundeth",
          "type": "uint256"
        },
        {
          "indexed": false,
          "name": "subRoundPot",
          "type": "uint256"
        }
      ],
      "name": "onMainPauseSubStart",
      "type": "event"
    },
    {
      "anonymous": false,
      "inputs": [
        {
          "indexed": false,
          "name": "mainRound",
          "type": "uint256"
        },
        {
          "indexed": false,
          "name": "mainRoundStartTime",
          "type": "uint256"
        },
        {
          "indexed": false,
          "name": "mainRoundEndTime",
          "type": "uint256"
        },
        {
          "indexed": false,
          "name": "mainRoundKey",
          "type": "uint256"
        },
        {
          "indexed": false,
          "name": "mainRoundeth",
          "type": "uint256"
        },
        {
          "indexed": false,
          "name": "mainRoundPot",
          "type": "uint256"
        },
        {
          "indexed": false,
          "name": "subRound",
          "type": "uint256"
        },
        {
          "indexed": false,
          "name": "subRoundStartTime",
          "type": "uint256"
        },
        {
          "indexed": false,
          "name": "subRoundEndTime",
          "type": "uint256"
        },
        {
          "indexed": false,
          "name": "subRoundKey",
          "type": "uint256"
        },
        {
          "indexed": false,
          "name": "subRoundeth",
          "type": "uint256"
        },
        {
          "indexed": false,
          "name": "subRoundPot",
          "type": "uint256"
        }
      ],
      "name": "onMainRestartSubStop",
      "type": "event"
    },
    {
      "anonymous": false,
      "inputs": [
        {
          "indexed": false,
          "name": "timestamp",
          "type": "uint256"
        }
      ],
      "name": "onGameActive",
      "type": "event"
    },
    {
      "anonymous": false,
      "inputs": [
        {
          "indexed": true,
          "name": "uaddr",
          "type": "address"
        },
        {
          "indexed": true,
          "name": "uname",
          "type": "bytes32"
        },
        {
          "indexed": true,
          "name": "inviterAddr",
          "type": "address"
        },
        {
          "indexed": false,
          "name": "inviterName",
          "type": "bytes32"
        },
        {
          "indexed": false,
          "name": "isNewPlayer",
          "type": "bool"
        },
        {
          "indexed": false,
          "name": "timeStamp",
          "type": "uint256"
        }
      ],
      "name": "onNewUser",
      "type": "event"
    },
    {
      "anonymous": false,
      "inputs": [
        {
          "indexed": true,
          "name": "uaddr",
          "type": "address"
        },
        {
          "indexed": true,
          "name": "uname",
          "type": "address"
        },
        {
          "indexed": true,
          "name": "inviterAddr",
          "type": "address"
        },
        {
          "indexed": false,
          "name": "inviterName",
          "type": "address"
        },
        {
          "indexed": false,
          "name": "roundId",
          "type": "uint256"
        },
        {
          "indexed": false,
          "name": "keyNum",
          "type": "uint256"
        },
        {
          "indexed": false,
          "name": "payed",
          "type": "uint256"
        },
        {
          "indexed": false,
          "name": "total",
          "type": "uint256"
        },
        {
          "indexed": false,
          "name": "dividend",
          "type": "uint256"
        },
        {
          "indexed": false,
          "name": "winerBonus",
          "type": "uint256"
        },
        {
          "indexed": false,
          "name": "winerkeys",
          "type": "uint256"
        },
        {
          "indexed": false,
          "name": "timeStamp",
          "type": "uint256"
        }
      ],
      "name": "onUserBuy",
      "type": "event"
    },
    {
      "anonymous": false,
      "inputs": [
        {
          "indexed": false,
          "name": "playerAddress",
          "type": "address"
        },
        {
          "indexed": false,
          "name": "playerName",
          "type": "bytes32"
        },
        {
          "indexed": false,
          "name": "ethOut",
          "type": "uint256"
        },
        {
          "indexed": false,
          "name": "timeStamp",
          "type": "uint256"
        }
      ],
      "name": "onWithdraw",
      "type": "event"
    },
    {
      "anonymous": false,
      "inputs": [
        {
          "indexed": false,
          "name": "playerAddress",
          "type": "address"
        },
        {
          "indexed": false,
          "name": "playerName",
          "type": "bytes32"
        },
        {
          "indexed": false,
          "name": "ethOut",
          "type": "uint256"
        },
        {
          "indexed": false,
          "name": "winnerAddr",
          "type": "address"
        },
        {
          "indexed": false,
          "name": "winnerName",
          "type": "bytes32"
        },
        {
          "indexed": false,
          "name": "amountWon",
          "type": "uint256"
        },
        {
          "indexed": false,
          "name": "newPot",
          "type": "uint256"
        }
      ],
      "name": "onWithdrawAndDistribute",
      "type": "event"
    },
    {
      "anonymous": false,
      "inputs": [
        {
          "indexed": false,
          "name": "subWinnerAddr",
          "type": "address"
        },
        {
          "indexed": false,
          "name": "subWinnerName",
          "type": "bytes32"
        },
        {
          "indexed": false,
          "name": "subBonus",
          "type": "uint256"
        },
        {
          "indexed": false,
          "name": "winnerAddr",
          "type": "address"
        },
        {
          "indexed": false,
          "name": "winderName",
          "type": "bytes32"
        },
        {
          "indexed": false,
          "name": "newPot",
          "type": "uint256"
        }
      ],
      "name": "onMainAndSubStop",
      "type": "event"
    }
  ],
  "bytecode": "0x608060405234801561001057600080fd5b5061019e806100206000396000f30060806040526004361061004c576000357c0100000000000000000000000000000000000000000000000000000000900463ffffffff1680630c92db9114610051578063fd75c71f146100e0575b600080fd5b34801561005d57600080fd5b50610092600480360381019080803573ffffffffffffffffffffffffffffffffffffffff169060200190929190505050610112565b604051808a8152602001898152602001888152602001878152602001868152602001858152602001848152602001838152602001828152602001995050505050505050505060405180910390f35b3480156100ec57600080fd5b506100f5610160565b604051808381526020018281526020019250505060405180910390f35b60026020528060005260406000206000915090508060000154908060010154908060020154908060030154908060040154908060050154908060060154908060070154908060080154905089565b600080600001549080600101549050825600a165627a7a72305820f6edc6c3b46c44a4b26e60744edddcc3082d15af1e311a11686b12fa0f1058100029",
  "source": "pragma solidity ^0.4.24;\n\nimport \"./library/SafeMath.sol\";\nimport \"./library/NameFilter.sol\";\nimport \"./library/MSFun.sol\";\n\nimport \"./MyFomoDataSet.sol\";\nimport \"./MyFomoEvents.sol\";\n\ncontract CoreBank is MyFomoEvents {\n    MyFomoDataSet.OperationAmount public _opeAmount;                   // 运营资金信息\n    mapping(address => MyFomoDataSet.UserAmount) public userAmounts_;  // 用户钱包地址 => 资金信息\n}\n\ncontract UserCenter is CoreBank {\n    using NameFilter for string;\n    using SafeMath for uint256;\n\n    uint256 public _uid; // 用户id 从1开始\n    mapping(uint256 => MyFomoDataSet.User) public users_; // user id => user\n    mapping(address => uint256) public addrUids_; // user address => user id\n    mapping(bytes32 => address) public nameAddr_; // user name => user address\n    mapping(address => uint256) public _admins; // admin users\n\n    constructor()\n        public\n    {\n        _uid = 1;\n    }\n\n    /**\n     * brief: 注册用户名（邀请码）\n     * 参数：*name 用户自主输入的字符串，不超过32个字符并且会做唯一性检查\n     */\n    function registWithName(string nameStr, string inviterStr) \n        public\n        payable\n        isHuman()\n    {\n        if (checkIfNameValid(nameStr)) {\n            bytes32 name = nameStr.nameFilter();\n            bytes32 inviter = inviterStr.nameFilter();\n            bool isNew = false;\n            if (addrUids_[msg.sender] == 0)   \n                isNew = true;\n            registCore(msg.sender, name, inviter, isNew);\n        } \n    }\n\n    function registWithAddr(address addr) \n        public\n    {\n        uint256 codeLength;\n        assembly {codeLength := extcodesize(addr)}\n        require(codeLength == 0, \"sorry humans only\");\n        if (addrUids_[addr] == 0) {\n            registCore(addr, \"\", \"\", true);\n        }\n    }\n\n    /**\n     * brief: 根据用户名获取用户信息\n     * 参数： name 用户名(邀请码)\n     * 返回： User 成功时返回表示用户的User对象\n     * address addr;           // 用户钱包地址\n     * bytes32 name;           // 用户名(邀请码)\n     * bytes32 inviterName;    // 邀请人名称\n     * uint256 inviteNum;      // 该用户邀请的人数\n     */\n    function getUserByName(string name) \n        public \n        returns(address, bytes32, bytes32, uint256)\n    {\n        MyFomoDataSet.User memory usr = MyFomoDataSet.User(0, \"\", \"\", 0);\n        if (checkIfNameValid(name))\n             usr = users_[addrUids_[nameAddr_[name.nameFilter()]]];\n\n        return (usr.addr, usr.name, usr.inviterName, usr.inviteNum); \n    }\n\n    /**\n     * brief: 根据用户钱包地址获取用户信息\n     * 参数： addr[option] 用户钱包地址, 不传时默认获取用户自身的信息\n     * 返回： User 成功时返回表示用户的User对象\n    */\n    function getUserByAddr(address addr) \n        public \n        returns(address, bytes32, bytes32, uint256)\n    {\n        MyFomoDataSet.User memory usr = MyFomoDataSet.User(0, \"\", \"\", 0);\n        if (addrUids_[addr] != 0)\n             usr = users_[addrUids_[addr]];\n\n        return (usr.addr, usr.name, usr.inviterName, usr.inviteNum); \n    }\n\n    /**\n     * brief: 根据用户名获取用户资金信息\n     * 参数: name 用户名称\n     * 返回：UserAmount 成功时返回表示该用户所有资金信息UserAmount的对象\n     * uint256 totalKeys;          // 购买钥匙总量\n     * uint256 totalBet;           // 总投注量eth\n     * uint256 lastKeys;           // 最后一次购买钥匙数量\n     * uint256 lastBet;            // 最后一次投注量\n     * uint256 totalBalance;       // 总余额(eth)\n     * uint256 withdrawAble;       // 可提现总量(eth)\n     * uint256 withdraw;           // 已提现数量(eth)\n     * uint256 totalProfit;        // 获益总量 （不算成本)\n     * uint256 inviteProfit;       // 邀请获益(eth)\n     */\n    function getUserAmountByName(string name) \n        public \n        returns(uint256, uint256, uint256, uint256, uint256, uint256, uint256, uint256, uint256)\n    {\n        MyFomoDataSet.UserAmount memory amt = MyFomoDataSet.UserAmount(0,0,0,0,0,0,0,0,0);\n        if (userExist(name))\n            amt = userAmounts_[nameAddr_[name.nameFilter()]];\n        \n        return (\n            amt.totalKeys, amt.totalBet, amt.lastKeys, \n            amt.lastBet, amt.totalBalance, amt.withdrawAble,\n            amt.withdraw, amt.totalProfit, amt.inviteProfit\n        );\n    }\n\n    /**\n     * brief: 根据用户钱包地址取用户资金信息\n     * 参数: add[option] 用户钱包地址, 不传时默认获取用户自身的资金信息\n     * 返回：UserAmount 成功时返回表示该用户所有资金信息UserAmount的对象\n     */\n    function getUserAmountByAddr(address addr)\n        public \n        returns(uint256, uint256, uint256, uint256, uint256, uint256, uint256, uint256, uint256)\n    {\n        MyFomoDataSet.UserAmount memory amt = MyFomoDataSet.UserAmount(0,0,0,0,0,0,0,0,0);\n        if (addrUids_[addr] != 0)\n            amt = userAmounts_[addr];\n        \n        return (\n            amt.totalKeys, amt.totalBet, amt.lastKeys, \n            amt.lastBet, amt.totalBalance, amt.withdrawAble,\n            amt.withdraw, amt.totalProfit, amt.inviteProfit\n        );\n    }\n    \n    function checkIfNameValid(string nameStr)\n        public\n        view\n        returns(bool)\n    {\n        bytes32 name = nameStr.nameFilter();\n        if (nameAddr_[name] == 0)\n            return (true);\n        else \n            return (false);\n    }\n\n    function userExist(string nameStr) \n        public\n        view\n        returns(bool)\n    {\n        bytes32 name = nameStr.nameFilter();\n        if (nameAddr_[name] == 0) {\n            return (true);\n        } else {\n            return (false);\n        }\n    }\n\n    function registCore(address addr, bytes32 name, bytes32 inviter, bool isNew) \n        private\n    {\n        uint256 uid = addrUids_[addr];\n        if (isNew) {\n            uid = _uid;\n            if (name != \"\") {\n                nameAddr_[name] = addr;\n            }\n            addrUids_[addr] = _uid;\n            users_[uid] = MyFomoDataSet.User(addr, name, inviter, 0);\n            _uid += 1;\n        } else {\n            nameAddr_[name] = addr;\n            users_[uid].name = name;\n            users_[uid].inviterName = inviter;\n        }\n        if (nameAddr_[inviter] == 0) \n            users_[uid].inviterName = \"\";\n        else \n            users_[addrUids_[nameAddr_[inviter]]].inviteNum += 1;\n\n        emit onNewUser(addr, name, nameAddr_[users_[uid].inviterName], users_[uid].inviterName, isNew, now);\n        \n    }\n\n    modifier isHuman() {\n        address _addr = msg.sender;\n        uint256 _codeLength;\n        \n        assembly {_codeLength := extcodesize(_addr)}\n        require(_codeLength == 0, \"sorry humans only\");\n        _;\n    }\n\n    modifier isOwner() {\n        address addr = msg.sender;\n        require(_admins[addr] != 0, \"sorry, owners only\");\n        _;\n    }\n        \n}",
  "sourcePath": "/Users/jazz/Desktop/proj/DApp/MyFomo/contracts/UserCenter.sol",
  "compiler": {
    "name": "solc",
    "version": "0.4.24+commit.e67f0147.Emscripten.clang"
  },
  "schemaVersion": "2.0.1",
  "updatedAt": "2018-09-07T15:22:21.756Z"
}