{
  "contractName": "Migrations",
  "abi": [
    {
      "anonymous": false,
      "inputs": [
        {
          "indexed": false,
          "name": "mainRound",
          "type": "uint256"
        },
        {
          "indexed": false,
          "name": "mainRoundStartTime",
          "type": "uint256"
        },
        {
          "indexed": false,
          "name": "mainRoundEndTime",
          "type": "uint256"
        },
        {
          "indexed": false,
          "name": "mainRoundKey",
          "type": "uint256"
        },
        {
          "indexed": false,
          "name": "mainRoundeth",
          "type": "uint256"
        },
        {
          "indexed": false,
          "name": "mainRoundPot",
          "type": "uint256"
        },
        {
          "indexed": false,
          "name": "subRound",
          "type": "uint256"
        },
        {
          "indexed": false,
          "name": "subRoundStartTime",
          "type": "uint256"
        },
        {
          "indexed": false,
          "name": "subRoundEndTime",
          "type": "uint256"
        },
        {
          "indexed": false,
          "name": "subRoundKey",
          "type": "uint256"
        },
        {
          "indexed": false,
          "name": "subRoundeth",
          "type": "uint256"
        },
        {
          "indexed": false,
          "name": "subRoundPot",
          "type": "uint256"
        }
      ],
      "name": "onMainPauseSubStart",
      "type": "event"
    },
    {
      "anonymous": false,
      "inputs": [
        {
          "indexed": false,
          "name": "mainRound",
          "type": "uint256"
        },
        {
          "indexed": false,
          "name": "mainRoundStartTime",
          "type": "uint256"
        },
        {
          "indexed": false,
          "name": "mainRoundEndTime",
          "type": "uint256"
        },
        {
          "indexed": false,
          "name": "mainRoundKey",
          "type": "uint256"
        },
        {
          "indexed": false,
          "name": "mainRoundeth",
          "type": "uint256"
        },
        {
          "indexed": false,
          "name": "mainRoundPot",
          "type": "uint256"
        },
        {
          "indexed": false,
          "name": "subRound",
          "type": "uint256"
        },
        {
          "indexed": false,
          "name": "subRoundStartTime",
          "type": "uint256"
        },
        {
          "indexed": false,
          "name": "subRoundEndTime",
          "type": "uint256"
        },
        {
          "indexed": false,
          "name": "subRoundKey",
          "type": "uint256"
        },
        {
          "indexed": false,
          "name": "subRoundeth",
          "type": "uint256"
        },
        {
          "indexed": false,
          "name": "subRoundPot",
          "type": "uint256"
        }
      ],
      "name": "onMainRestartSubStop",
      "type": "event"
    },
    {
      "anonymous": false,
      "inputs": [
        {
          "indexed": false,
          "name": "timestamp",
          "type": "uint256"
        }
      ],
      "name": "onGameActive",
      "type": "event"
    },
    {
      "constant": true,
      "inputs": [],
      "name": "getBuyPrice",
      "outputs": [
        {
          "name": "",
          "type": "uint256"
        }
      ],
      "payable": false,
      "stateMutability": "view",
      "type": "function"
    },
    {
      "constant": true,
      "inputs": [],
      "name": "getMainRoundTimeLeft",
      "outputs": [
        {
          "name": "",
          "type": "uint256"
        }
      ],
      "payable": false,
      "stateMutability": "view",
      "type": "function"
    },
    {
      "constant": true,
      "inputs": [],
      "name": "getCurrentMainRoundInfo",
      "outputs": [
        {
          "name": "",
          "type": "uint256"
        },
        {
          "name": "",
          "type": "uint256"
        },
        {
          "name": "",
          "type": "uint256"
        },
        {
          "name": "",
          "type": "uint256"
        },
        {
          "name": "",
          "type": "uint256"
        }
      ],
      "payable": false,
      "stateMutability": "view",
      "type": "function"
    },
    {
      "constant": true,
      "inputs": [],
      "name": "getSubRoundTimeLeft",
      "outputs": [
        {
          "name": "",
          "type": "uint256"
        }
      ],
      "payable": false,
      "stateMutability": "view",
      "type": "function"
    },
    {
      "constant": true,
      "inputs": [],
      "name": "getCurrentSubRoundInfo",
      "outputs": [
        {
          "name": "",
          "type": "uint256"
        },
        {
          "name": "",
          "type": "uint256"
        },
        {
          "name": "",
          "type": "uint256"
        },
        {
          "name": "",
          "type": "uint256"
        },
        {
          "name": "",
          "type": "uint256"
        }
      ],
      "payable": false,
      "stateMutability": "view",
      "type": "function"
    }
  ],
  "bytecode": "0x608060405234801561001057600080fd5b506101da806100206000396000f30060806040526004361061006d576000357c0100000000000000000000000000000000000000000000000000000000900463ffffffff168063018a25e8146100725780632a2f19b21461009d5780633d30cacd146100c8578063c8bb10461461010f578063cfa5c98114610156575b600080fd5b34801561007e57600080fd5b50610087610181565b6040518082815260200191505060405180910390f35b3480156100a957600080fd5b506100b2610186565b6040518082815260200191505060405180910390f35b3480156100d457600080fd5b506100dd61018b565b604051808681526020018581526020018481526020018381526020018281526020019550505050505060405180910390f35b34801561011b57600080fd5b5061012461019a565b604051808681526020018581526020018481526020018381526020018281526020019550505050505060405180910390f35b34801561016257600080fd5b5061016b6101a9565b6040518082815260200191505060405180910390f35b600090565b600090565b60008060008060009091929394565b60008060008060009091929394565b6000905600a165627a7a7230582062ca0e5478d975dd83073f5b23b6c64892bd01fd42a4bec5cf60f9dba03783410029",
  "source": "pragma solidity ^0.4.23;\n\ncontract Migrations {\n\n\n    struct Round {\n        uint256 strt;   // 游戏的开始时间\n        uint256 end;    // 游戏结束时间\n        bool ended;     // 当前轮游戏是否已经结束\n        uint256 keys;   // 总钥匙数\n        uint256 eth;    //  总eth金额\n        uint256 pot;    // 当前可以供最终玩家的信息\n        uint256 mask;   // global mask\n    }\n\n    /**\n     * @dev 获取当前一个钥匙的购买价格\n     * \n     * @return 获取当前钥匙的购买价格 (用最小单位wei)\n     */\n    function getBuyPrice()\n        public \n        view \n        returns(uint256)\n    { \n    }\n\n    /**\n     * @dev 获取主游戏当前轮的剩余时间-这个可以客户端调用者来做\n     * \n     * @return 主游戏当前轮的剩余时间-秒数\n     */\n    function getMainRoundTimeLeft()\n        public\n        view\n        returns(uint256)\n    {\n    }\n\n      \n    /**\n     * @dev 返回当前主游戏的详细信息\n     * \n     * @return 主游戏当前轮数\n     * @return 主游戏当前轮的开始时间\n     * @return 主游戏当前轮的结束时间\n     * @return 主游戏当前轮的钥匙总数\n     * @return 主游戏当前轮总投入eth总量\n     * @return 主游戏当前轮可以用来奖励给最终用户的eth金额\n     * @return 当前游戏已经分红的eth金额\n     */\n    function getCurrentMainRoundInfo()\n        public\n        view\n        returns(uint256, uint256, uint256, uint256, uint256)\n    {\n    }\n\n    /**\n     * @dev 获取冲刺游戏当前轮的剩余时间-这个可以客户端调用者来做\n     * \n     * @return 冲刺游戏当前轮的剩余时间-秒数\n     */\n    function getSubRoundTimeLeft()\n        public\n        view\n        returns(uint256)\n    {\n    }\n    \n    /**\n     * @dev 返回冲刺游戏的详细信息\n     * \n     * @return 冲刺游戏当前轮数\n     * @return 冲刺游戏当前轮的开始时间\n     * @return 冲刺游戏当前轮的结束时间\n     * @return 冲刺游戏当前轮的钥匙总数\n     * @return 冲刺游戏当前轮总投入eth总量\n     * @return 冲刺游戏当前轮可以用来奖励给最终用户的eth金额\n     * @return 冲刺前游戏当前轮已经分红的eth金额\n     */\n    function getCurrentSubRoundInfo()\n        public\n        view\n        returns(uint256, uint256, uint256, uint256, uint256)\n    {\n    }\n\n    // 冲刺阶段，主游戏暂停，冲刺游戏启动\n    event onMainPauseSubStart(\n        uint256 mainRound, // 主游戏轮数\n        uint256 mainRoundStartTime, // 主游戏开始时间\n        uint256 mainRoundEndTime, // 主游戏结束时间\n        uint256 mainRoundKey, // 主游戏钥匙数\n        uint256 mainRoundeth, // 主游戏eth总购买量\n        uint256 mainRoundPot, // 主游戏的总奖池，可用于分配的\n        uint256 subRound, // 冲刺游戏的轮数\n        uint256 subRoundStartTime, // 冲刺游戏开始时间\n        uint256 subRoundEndTime, // 冲刺结束时间\n        uint256 subRoundKey, // 冲刺阶段钥匙数\n        uint256 subRoundeth, // 冲刺阶段的eth\n        uint256 subRoundPot // 冲刺阶段奖池\n    );\n\n  // 冲刺结束，主游戏重新启动\n    event onMainRestartSubStop(\n        uint256 mainRound, // 主游戏轮数\n        uint256 mainRoundStartTime, // 主游戏开始时间\n        uint256 mainRoundEndTime, // 主游戏结束时间\n        uint256 mainRoundKey, // 主游戏钥匙数\n        uint256 mainRoundeth, // 主游戏eth总购买量\n        uint256 mainRoundPot, // 主游戏的总奖池，可用于分配的\n        uint256 subRound, // 冲刺游戏的轮数\n        uint256 subRoundStartTime, // 冲刺游戏开始时间\n        uint256 subRoundEndTime, // 冲刺结束时间\n        uint256 subRoundKey, // 冲刺阶段钥匙数\n        uint256 subRoundeth, // 冲刺阶段的eth\n        uint256 subRoundPot // 冲刺阶段奖池\n    );\n\n    // 游戏启动\n    event onGameActive(uint256 timestamp);\n\n   \n\n}\n",
  "sourcePath": "/Users/wangmaodong/develop/myproject/myfomo/contracts/Migrations.sol",
  "compiler": {
    "name": "solc",
    "version": "0.4.24+commit.e67f0147.Emscripten.clang"
  },
  "schemaVersion": "2.0.1",
  "updatedAt": "2018-08-28T14:30:21.823Z"
}