{
  "contractName": "MyFomo",
  "abi": [
    {
      "constant": true,
      "inputs": [],
      "name": "activated_",
      "outputs": [
        {
          "name": "",
          "type": "bool"
        }
      ],
      "payable": false,
      "stateMutability": "view",
      "type": "function"
    },
    {
      "constant": false,
      "inputs": [
        {
          "name": "rId",
          "type": "uint256"
        },
        {
          "name": "keyNum",
          "type": "uint256"
        }
      ],
      "name": "buy",
      "outputs": [],
      "payable": true,
      "stateMutability": "payable",
      "type": "function"
    },
    {
      "constant": false,
      "inputs": [
        {
          "name": "amount",
          "type": "uint256"
        }
      ],
      "name": "withdraw",
      "outputs": [],
      "payable": true,
      "stateMutability": "payable",
      "type": "function"
    },
    {
      "constant": false,
      "inputs": [
        {
          "name": "name",
          "type": "string"
        }
      ],
      "name": "registWithName",
      "outputs": [],
      "payable": true,
      "stateMutability": "payable",
      "type": "function"
    },
    {
      "constant": false,
      "inputs": [
        {
          "name": "name",
          "type": "string"
        }
      ],
      "name": "getUserByName",
      "outputs": [],
      "payable": false,
      "stateMutability": "nonpayable",
      "type": "function"
    },
    {
      "constant": false,
      "inputs": [
        {
          "name": "addr",
          "type": "address"
        }
      ],
      "name": "getUserByAddr",
      "outputs": [],
      "payable": false,
      "stateMutability": "nonpayable",
      "type": "function"
    },
    {
      "constant": false,
      "inputs": [
        {
          "name": "name",
          "type": "string"
        }
      ],
      "name": "getUserAmountByName",
      "outputs": [],
      "payable": false,
      "stateMutability": "nonpayable",
      "type": "function"
    },
    {
      "constant": false,
      "inputs": [
        {
          "name": "addr",
          "type": "address"
        }
      ],
      "name": "getUserAmountByAddr",
      "outputs": [],
      "payable": false,
      "stateMutability": "nonpayable",
      "type": "function"
    },
    {
      "constant": true,
      "inputs": [],
      "name": "getBuyPrice",
      "outputs": [
        {
          "name": "",
          "type": "uint256"
        }
      ],
      "payable": false,
      "stateMutability": "view",
      "type": "function"
    },
    {
      "constant": true,
      "inputs": [],
      "name": "getMainRoundTimeLeft",
      "outputs": [
        {
          "name": "",
          "type": "uint256"
        }
      ],
      "payable": false,
      "stateMutability": "view",
      "type": "function"
    },
    {
      "constant": true,
      "inputs": [],
      "name": "getCurrentMainRoundInfo",
      "outputs": [
        {
          "name": "",
          "type": "uint256"
        },
        {
          "name": "",
          "type": "uint256"
        },
        {
          "name": "",
          "type": "uint256"
        },
        {
          "name": "",
          "type": "uint256"
        },
        {
          "name": "",
          "type": "uint256"
        }
      ],
      "payable": false,
      "stateMutability": "view",
      "type": "function"
    },
    {
      "constant": true,
      "inputs": [],
      "name": "getSubRoundTimeLeft",
      "outputs": [
        {
          "name": "",
          "type": "uint256"
        }
      ],
      "payable": false,
      "stateMutability": "view",
      "type": "function"
    },
    {
      "constant": true,
      "inputs": [],
      "name": "getCurrentSubRoundInfo",
      "outputs": [
        {
          "name": "",
          "type": "uint256"
        },
        {
          "name": "",
          "type": "uint256"
        },
        {
          "name": "",
          "type": "uint256"
        },
        {
          "name": "",
          "type": "uint256"
        },
        {
          "name": "",
          "type": "uint256"
        }
      ],
      "payable": false,
      "stateMutability": "view",
      "type": "function"
    }
  ],
  "bytecode": "0x608060405260008060006101000a81548160ff02191690831515021790555034801561002a57600080fd5b506106168061003a6000396000f3006080604052600436106100c5576000357c0100000000000000000000000000000000000000000000000000000000900463ffffffff168063018a25e8146100ca5780632a2f19b2146100f55780632e1a7d4d146101205780633d30cacd146101405780634121b8e614610187578063434b5b3c146101e35780634bff50091461024c578063b9005c4c146102b5578063c8bb1046146102f8578063cfa5c9811461033f578063d53b26791461036a578063d6febde814610399578063f16e4e46146103c3575b600080fd5b3480156100d657600080fd5b506100df610406565b6040518082815260200191505060405180910390f35b34801561010157600080fd5b5061010a61040e565b6040518082815260200191505060405180910390f35b61013e60048036038101908080359060200190929190505050610413565b005b34801561014c57600080fd5b5061015561049a565b604051808681526020018581526020018481526020018381526020018281526020019550505050505060405180910390f35b6101e1600480360381019080803590602001908201803590602001908080601f01602080910402602001604051908101604052809392919081815260200183838082843782019150505050505091929192905050506104a9565b005b3480156101ef57600080fd5b5061024a600480360381019080803590602001908201803590602001908080601f0160208091040260200160405190810160405280939291908181526020018383808284378201915050505050509192919290505050610530565b005b34801561025857600080fd5b506102b3600480360381019080803590602001908201803590602001908080601f0160208091040260200160405190810160405280939291908181526020018383808284378201915050505050509192919290505050610533565b005b3480156102c157600080fd5b506102f6600480360381019080803573ffffffffffffffffffffffffffffffffffffffff169060200190929190505050610536565b005b34801561030457600080fd5b5061030d610539565b604051808681526020018581526020018481526020018381526020018281526020019550505050505060405180910390f35b34801561034b57600080fd5b50610354610548565b6040518082815260200191505060405180910390f35b34801561037657600080fd5b5061037f61054d565b604051808215151515815260200191505060405180910390f35b6103c1600480360381019080803590602001909291908035906020019092919050505061055f565b005b3480156103cf57600080fd5b50610404600480360381019080803573ffffffffffffffffffffffffffffffffffffffff1690602001909291905050506105e7565b005b600080905090565b600090565b600080339150813b9050600081141515610495576040517f08c379a00000000000000000000000000000000000000000000000000000000081526004018080602001828103825260118152602001807f736f7272792068756d616e73206f6e6c7900000000000000000000000000000081525060200191505060405180910390fd5b505050565b60008060008060009091929394565b600080339150813b905060008114151561052b576040517f08c379a00000000000000000000000000000000000000000000000000000000081526004018080602001828103825260118152602001807f736f7272792068756d616e73206f6e6c7900000000000000000000000000000081525060200191505060405180910390fd5b505050565b50565b50565b50565b60008060008060009091929394565b600090565b6000809054906101000a900460ff1681565b600080339150813b90506000811415156105e1576040517f08c379a00000000000000000000000000000000000000000000000000000000081526004018080602001828103825260118152602001807f736f7272792068756d616e73206f6e6c7900000000000000000000000000000081525060200191505060405180910390fd5b50505050565b505600a165627a7a7230582074084ea6a522f8cbcb797325b50c2daa4561faf423b76d714ec0f3c0316b18120029",
  "source": "pragma solidity ^0.4.23;\nimport \"./MyFomoEvents.sol\";\nimport \"./MyFomoDataSet.sol\";\n\ncontract MyFomo {\n     bool public activated_ = false;\n\n    /**\n     * @dev used to make sure no one can interact with contract until it has \n     * been activated. \n     */\n    modifier isActivated() {\n        require(activated_ == true, \"its not ready yet.  check ?eta in discord\"); \n        _;\n    }\n    \n    /**\n     * @dev prevents contracts from interacting with fomo3d \n     */\n    modifier isHuman() {\n        address _addr = msg.sender;\n        uint256 _codeLength;\n        \n        assembly {_codeLength := extcodesize(_addr)}\n        require(_codeLength == 0, \"sorry humans only\");\n        _;\n    }\n\n    /**\n     * @dev sets boundaries for incoming tx \n     */\n    modifier isWithinLimits(uint256 _eth) {\n        require(_eth >= 1000000000, \"pocket lint: not a valid currency\");\n        require(_eth <= 100000000000000000000000, \"no vitalik, no\");\n        _;    \n    }\n\n    function buy(uint256 rId, uint256 keyNum) isHuman() \n        public\n        payable\n    {\n        \n    }\n\n    function withdraw(uint256 amount) isHuman()\n        public\n        payable\n    {\n        \n    }\n    \n    function registWithName(string name) isHuman()\n        public\n        payable\n    {\n        \n    }\n\n    function getUserByName(string name) \n        public\n    {\n\n    }\n\n    function getUserByAddr(address addr) public\n    {\n\n    }\n\n    function getUserAmountByName(string name) \n        public\n    {\n\n    }\n\n    function getUserAmountByAddr(address addr)\n        public\n    {\n        \n    }\n\n\n    //----------------------------------------------------------------------------------------------------------\n    //---------------------------------------------------------------------------------------------------------\n    /**\n     * @dev 获取当前一个钥匙的购买价格\n     * \n     * @return 获取当前钥匙的购买价格 (用最小单位wei)\n     */\n    function getBuyPrice() \n         public  \n         view \n         returns(uint256) \n    { \n        return 0;\n    }\n\n    /**\n     * @dev 获取主游戏当前轮的剩余时间-这个可以客户端调用者来做\n     * \n     * @return 主游戏当前轮的剩余时间-秒数\n     */\n    function getMainRoundTimeLeft()\n        public\n        view\n        returns(uint256)\n    {\n    }\n\n      \n    /**\n     * @dev 返回当前主游戏的详细信息\n     * \n     * @return 主游戏当前轮数\n     * @return 主游戏当前轮的开始时间\n     * @return 主游戏当前轮的结束时间\n     * @return 主游戏当前轮的钥匙总数\n     * @return 主游戏当前轮总投入eth总量\n     * @return 主游戏当前轮可以用来奖励给最终用户的eth金额\n     * @return 当前游戏已经分红的eth金额\n     */\n    function getCurrentMainRoundInfo()\n        public\n        view\n        returns(uint256, uint256, uint256, uint256, uint256)\n    {\n    }\n\n    /**\n     * @dev 获取冲刺游戏当前轮的剩余时间-这个可以客户端调用者来做\n     * \n     * @return 冲刺游戏当前轮的剩余时间-秒数\n     */\n    function getSubRoundTimeLeft()\n        public\n        view\n        returns(uint256)\n    {\n    }\n    \n    /**\n     * @dev 返回冲刺游戏的详细信息\n     * \n     * @return 冲刺游戏当前轮数\n     * @return 冲刺游戏当前轮的开始时间\n     * @return 冲刺游戏当前轮的结束时间\n     * @return 冲刺游戏当前轮的钥匙总数\n     * @return 冲刺游戏当前轮总投入eth总量\n     * @return 冲刺游戏当前轮可以用来奖励给最终用户的eth金额\n     * @return 冲刺前游戏当前轮已经分红的eth金额\n     */\n    function getCurrentSubRoundInfo()\n        public\n        view\n        returns(uint256, uint256, uint256, uint256, uint256)\n    {\n    }\n\n   \n   \n\n}\n",
  "sourcePath": "/Users/wangmaodong/develop/myproject/myfomo/contracts/MyFomo.sol",
  "compiler": {
    "name": "solc",
    "version": "0.4.24+commit.e67f0147.Emscripten.clang"
  },
  "schemaVersion": "2.0.1",
  "updatedAt": "2018-08-28T15:03:29.391Z"
}