{
  "contractName": "MyFomo",
  "abi": [
    {
      "constant": true,
      "inputs": [
        {
          "name": "",
          "type": "bytes32"
        }
      ],
      "name": "nameAddr_",
      "outputs": [
        {
          "name": "",
          "type": "address"
        }
      ],
      "payable": false,
      "stateMutability": "view",
      "type": "function"
    },
    {
      "constant": true,
      "inputs": [
        {
          "name": "",
          "type": "address"
        }
      ],
      "name": "userAmounts_",
      "outputs": [
        {
          "name": "totalKeys",
          "type": "uint256"
        },
        {
          "name": "totalBet",
          "type": "uint256"
        },
        {
          "name": "lastKeys",
          "type": "uint256"
        },
        {
          "name": "lastBet",
          "type": "uint256"
        },
        {
          "name": "totalBalance",
          "type": "uint256"
        },
        {
          "name": "withdrawAble",
          "type": "uint256"
        },
        {
          "name": "withdraw",
          "type": "uint256"
        },
        {
          "name": "totalProfit",
          "type": "uint256"
        },
        {
          "name": "inviteProfit",
          "type": "uint256"
        }
      ],
      "payable": false,
      "stateMutability": "view",
      "type": "function"
    },
    {
      "constant": true,
      "inputs": [
        {
          "name": "",
          "type": "uint256"
        }
      ],
      "name": "users_",
      "outputs": [
        {
          "name": "addr",
          "type": "address"
        },
        {
          "name": "name",
          "type": "bytes32"
        },
        {
          "name": "inviterName",
          "type": "bytes32"
        },
        {
          "name": "inviteNum",
          "type": "uint256"
        }
      ],
      "payable": false,
      "stateMutability": "view",
      "type": "function"
    },
    {
      "constant": true,
      "inputs": [
        {
          "name": "",
          "type": "address"
        }
      ],
      "name": "_admins",
      "outputs": [
        {
          "name": "",
          "type": "uint256"
        }
      ],
      "payable": false,
      "stateMutability": "view",
      "type": "function"
    },
    {
      "constant": true,
      "inputs": [
        {
          "name": "nameStr",
          "type": "string"
        }
      ],
      "name": "userExist",
      "outputs": [
        {
          "name": "",
          "type": "bool"
        }
      ],
      "payable": false,
      "stateMutability": "view",
      "type": "function"
    },
    {
      "constant": false,
      "inputs": [
        {
          "name": "nameStr",
          "type": "string"
        },
        {
          "name": "inviterStr",
          "type": "string"
        }
      ],
      "name": "registWithName",
      "outputs": [],
      "payable": true,
      "stateMutability": "payable",
      "type": "function"
    },
    {
      "constant": true,
      "inputs": [],
      "name": "_uid",
      "outputs": [
        {
          "name": "",
          "type": "uint256"
        }
      ],
      "payable": false,
      "stateMutability": "view",
      "type": "function"
    },
    {
      "constant": true,
      "inputs": [
        {
          "name": "",
          "type": "address"
        },
        {
          "name": "",
          "type": "uint256"
        }
      ],
      "name": "mainPlayerRounds_",
      "outputs": [
        {
          "name": "totalKeys",
          "type": "uint256"
        },
        {
          "name": "totalBet",
          "type": "uint256"
        },
        {
          "name": "totalBalance",
          "type": "uint256"
        },
        {
          "name": "dividend",
          "type": "uint256"
        },
        {
          "name": "withdrawAble",
          "type": "uint256"
        },
        {
          "name": "withdraw",
          "type": "uint256"
        },
        {
          "name": "mask",
          "type": "uint256"
        }
      ],
      "payable": false,
      "stateMutability": "view",
      "type": "function"
    },
    {
      "constant": false,
      "inputs": [
        {
          "name": "name",
          "type": "string"
        }
      ],
      "name": "getUserAmountByName",
      "outputs": [
        {
          "name": "",
          "type": "uint256"
        },
        {
          "name": "",
          "type": "uint256"
        },
        {
          "name": "",
          "type": "uint256"
        },
        {
          "name": "",
          "type": "uint256"
        },
        {
          "name": "",
          "type": "uint256"
        },
        {
          "name": "",
          "type": "uint256"
        },
        {
          "name": "",
          "type": "uint256"
        },
        {
          "name": "",
          "type": "uint256"
        },
        {
          "name": "",
          "type": "uint256"
        }
      ],
      "payable": false,
      "stateMutability": "nonpayable",
      "type": "function"
    },
    {
      "constant": false,
      "inputs": [
        {
          "name": "name",
          "type": "string"
        }
      ],
      "name": "getUserByName",
      "outputs": [
        {
          "name": "",
          "type": "address"
        },
        {
          "name": "",
          "type": "bytes32"
        },
        {
          "name": "",
          "type": "bytes32"
        },
        {
          "name": "",
          "type": "uint256"
        }
      ],
      "payable": false,
      "stateMutability": "nonpayable",
      "type": "function"
    },
    {
      "constant": true,
      "inputs": [
        {
          "name": "",
          "type": "address"
        }
      ],
      "name": "addrUids_",
      "outputs": [
        {
          "name": "",
          "type": "uint256"
        }
      ],
      "payable": false,
      "stateMutability": "view",
      "type": "function"
    },
    {
      "constant": true,
      "inputs": [
        {
          "name": "nameStr",
          "type": "string"
        }
      ],
      "name": "checkIfNameValid",
      "outputs": [
        {
          "name": "",
          "type": "bool"
        }
      ],
      "payable": false,
      "stateMutability": "view",
      "type": "function"
    },
    {
      "constant": false,
      "inputs": [
        {
          "name": "addr",
          "type": "address"
        }
      ],
      "name": "registWithAddr",
      "outputs": [],
      "payable": false,
      "stateMutability": "nonpayable",
      "type": "function"
    },
    {
      "constant": true,
      "inputs": [],
      "name": "main_round_id_",
      "outputs": [
        {
          "name": "",
          "type": "uint256"
        }
      ],
      "payable": false,
      "stateMutability": "view",
      "type": "function"
    },
    {
      "constant": true,
      "inputs": [
        {
          "name": "",
          "type": "address"
        },
        {
          "name": "",
          "type": "uint256"
        }
      ],
      "name": "subPlayerRounds_",
      "outputs": [
        {
          "name": "totalKeys",
          "type": "uint256"
        },
        {
          "name": "totalBet",
          "type": "uint256"
        },
        {
          "name": "totalBalance",
          "type": "uint256"
        },
        {
          "name": "dividend",
          "type": "uint256"
        },
        {
          "name": "withdrawAble",
          "type": "uint256"
        },
        {
          "name": "withdraw",
          "type": "uint256"
        },
        {
          "name": "mask",
          "type": "uint256"
        }
      ],
      "payable": false,
      "stateMutability": "view",
      "type": "function"
    },
    {
      "constant": false,
      "inputs": [
        {
          "name": "addr",
          "type": "address"
        }
      ],
      "name": "getUserAmountByAddr",
      "outputs": [
        {
          "name": "",
          "type": "uint256"
        },
        {
          "name": "",
          "type": "uint256"
        },
        {
          "name": "",
          "type": "uint256"
        },
        {
          "name": "",
          "type": "uint256"
        },
        {
          "name": "",
          "type": "uint256"
        },
        {
          "name": "",
          "type": "uint256"
        },
        {
          "name": "",
          "type": "uint256"
        },
        {
          "name": "",
          "type": "uint256"
        },
        {
          "name": "",
          "type": "uint256"
        }
      ],
      "payable": false,
      "stateMutability": "nonpayable",
      "type": "function"
    },
    {
      "constant": true,
      "inputs": [
        {
          "name": "",
          "type": "uint256"
        }
      ],
      "name": "main_round_",
      "outputs": [
        {
          "name": "plyr",
          "type": "address"
        },
        {
          "name": "strt",
          "type": "uint256"
        },
        {
          "name": "end",
          "type": "uint256"
        },
        {
          "name": "ended",
          "type": "bool"
        },
        {
          "name": "keys",
          "type": "uint256"
        },
        {
          "name": "eth",
          "type": "uint256"
        },
        {
          "name": "pot",
          "type": "uint256"
        },
        {
          "name": "dividend",
          "type": "uint256"
        },
        {
          "name": "mask",
          "type": "uint256"
        },
        {
          "name": "subTime",
          "type": "uint256"
        }
      ],
      "payable": false,
      "stateMutability": "view",
      "type": "function"
    },
    {
      "constant": true,
      "inputs": [],
      "name": "sub_round_id_",
      "outputs": [
        {
          "name": "",
          "type": "uint256"
        }
      ],
      "payable": false,
      "stateMutability": "view",
      "type": "function"
    },
    {
      "constant": true,
      "inputs": [
        {
          "name": "",
          "type": "uint256"
        }
      ],
      "name": "sub_round_",
      "outputs": [
        {
          "name": "plyr",
          "type": "address"
        },
        {
          "name": "strt",
          "type": "uint256"
        },
        {
          "name": "end",
          "type": "uint256"
        },
        {
          "name": "ended",
          "type": "bool"
        },
        {
          "name": "keys",
          "type": "uint256"
        },
        {
          "name": "eth",
          "type": "uint256"
        },
        {
          "name": "pot",
          "type": "uint256"
        },
        {
          "name": "dividend",
          "type": "uint256"
        },
        {
          "name": "mask",
          "type": "uint256"
        },
        {
          "name": "subTime",
          "type": "uint256"
        }
      ],
      "payable": false,
      "stateMutability": "view",
      "type": "function"
    },
    {
      "constant": true,
      "inputs": [],
      "name": "activated_",
      "outputs": [
        {
          "name": "",
          "type": "bool"
        }
      ],
      "payable": false,
      "stateMutability": "view",
      "type": "function"
    },
    {
      "constant": false,
      "inputs": [
        {
          "name": "addr",
          "type": "address"
        }
      ],
      "name": "getUserByAddr",
      "outputs": [
        {
          "name": "",
          "type": "address"
        },
        {
          "name": "",
          "type": "bytes32"
        },
        {
          "name": "",
          "type": "bytes32"
        },
        {
          "name": "",
          "type": "uint256"
        }
      ],
      "payable": false,
      "stateMutability": "nonpayable",
      "type": "function"
    },
    {
      "constant": true,
      "inputs": [],
      "name": "_opeAmount",
      "outputs": [
        {
          "name": "devFund",
          "type": "uint256"
        },
        {
          "name": "fees",
          "type": "uint256"
        }
      ],
      "payable": false,
      "stateMutability": "view",
      "type": "function"
    },
    {
      "anonymous": false,
      "inputs": [
        {
          "indexed": false,
          "name": "mainRound",
          "type": "uint256"
        },
        {
          "indexed": false,
          "name": "mainRoundStartTime",
          "type": "uint256"
        },
        {
          "indexed": false,
          "name": "mainRoundEndTime",
          "type": "uint256"
        },
        {
          "indexed": false,
          "name": "mainRoundKey",
          "type": "uint256"
        },
        {
          "indexed": false,
          "name": "mainRoundeth",
          "type": "uint256"
        },
        {
          "indexed": false,
          "name": "mainRoundPot",
          "type": "uint256"
        },
        {
          "indexed": false,
          "name": "subRound",
          "type": "uint256"
        },
        {
          "indexed": false,
          "name": "subRoundStartTime",
          "type": "uint256"
        },
        {
          "indexed": false,
          "name": "subRoundEndTime",
          "type": "uint256"
        },
        {
          "indexed": false,
          "name": "subRoundKey",
          "type": "uint256"
        },
        {
          "indexed": false,
          "name": "subRoundeth",
          "type": "uint256"
        },
        {
          "indexed": false,
          "name": "subRoundPot",
          "type": "uint256"
        }
      ],
      "name": "onMainPauseSubStart",
      "type": "event"
    },
    {
      "anonymous": false,
      "inputs": [
        {
          "indexed": false,
          "name": "mainRound",
          "type": "uint256"
        },
        {
          "indexed": false,
          "name": "mainRoundStartTime",
          "type": "uint256"
        },
        {
          "indexed": false,
          "name": "mainRoundEndTime",
          "type": "uint256"
        },
        {
          "indexed": false,
          "name": "mainRoundKey",
          "type": "uint256"
        },
        {
          "indexed": false,
          "name": "mainRoundeth",
          "type": "uint256"
        },
        {
          "indexed": false,
          "name": "mainRoundPot",
          "type": "uint256"
        },
        {
          "indexed": false,
          "name": "subRound",
          "type": "uint256"
        },
        {
          "indexed": false,
          "name": "subRoundStartTime",
          "type": "uint256"
        },
        {
          "indexed": false,
          "name": "subRoundEndTime",
          "type": "uint256"
        },
        {
          "indexed": false,
          "name": "subRoundKey",
          "type": "uint256"
        },
        {
          "indexed": false,
          "name": "subRoundeth",
          "type": "uint256"
        },
        {
          "indexed": false,
          "name": "subRoundPot",
          "type": "uint256"
        }
      ],
      "name": "onMainRestartSubStop",
      "type": "event"
    },
    {
      "anonymous": false,
      "inputs": [
        {
          "indexed": false,
          "name": "timestamp",
          "type": "uint256"
        }
      ],
      "name": "onGameActive",
      "type": "event"
    },
    {
      "anonymous": false,
      "inputs": [
        {
          "indexed": true,
          "name": "uaddr",
          "type": "address"
        },
        {
          "indexed": true,
          "name": "uname",
          "type": "bytes32"
        },
        {
          "indexed": true,
          "name": "inviterAddr",
          "type": "address"
        },
        {
          "indexed": false,
          "name": "inviterName",
          "type": "bytes32"
        },
        {
          "indexed": false,
          "name": "isNewPlayer",
          "type": "bool"
        },
        {
          "indexed": false,
          "name": "timeStamp",
          "type": "uint256"
        }
      ],
      "name": "onNewUser",
      "type": "event"
    },
    {
      "anonymous": false,
      "inputs": [
        {
          "indexed": true,
          "name": "uaddr",
          "type": "address"
        },
        {
          "indexed": true,
          "name": "uname",
          "type": "address"
        },
        {
          "indexed": true,
          "name": "inviterAddr",
          "type": "address"
        },
        {
          "indexed": false,
          "name": "inviterName",
          "type": "address"
        },
        {
          "indexed": false,
          "name": "roundId",
          "type": "uint256"
        },
        {
          "indexed": false,
          "name": "keyNum",
          "type": "uint256"
        },
        {
          "indexed": false,
          "name": "payed",
          "type": "uint256"
        },
        {
          "indexed": false,
          "name": "total",
          "type": "uint256"
        },
        {
          "indexed": false,
          "name": "dividend",
          "type": "uint256"
        },
        {
          "indexed": false,
          "name": "winerBonus",
          "type": "uint256"
        },
        {
          "indexed": false,
          "name": "winerkeys",
          "type": "uint256"
        },
        {
          "indexed": false,
          "name": "timeStamp",
          "type": "uint256"
        }
      ],
      "name": "onUserBuy",
      "type": "event"
    },
    {
      "anonymous": false,
      "inputs": [
        {
          "indexed": false,
          "name": "playerAddress",
          "type": "address"
        },
        {
          "indexed": false,
          "name": "playerName",
          "type": "bytes32"
        },
        {
          "indexed": false,
          "name": "ethOut",
          "type": "uint256"
        },
        {
          "indexed": false,
          "name": "timeStamp",
          "type": "uint256"
        }
      ],
      "name": "onWithdraw",
      "type": "event"
    },
    {
      "anonymous": false,
      "inputs": [
        {
          "indexed": false,
          "name": "playerAddress",
          "type": "address"
        },
        {
          "indexed": false,
          "name": "playerName",
          "type": "bytes32"
        },
        {
          "indexed": false,
          "name": "ethOut",
          "type": "uint256"
        },
        {
          "indexed": false,
          "name": "winnerAddr",
          "type": "address"
        },
        {
          "indexed": false,
          "name": "winnerName",
          "type": "bytes32"
        },
        {
          "indexed": false,
          "name": "amountWon",
          "type": "uint256"
        },
        {
          "indexed": false,
          "name": "newPot",
          "type": "uint256"
        }
      ],
      "name": "onWithdrawAndDistribute",
      "type": "event"
    },
    {
      "anonymous": false,
      "inputs": [
        {
          "indexed": false,
          "name": "subWinnerAddr",
          "type": "address"
        },
        {
          "indexed": false,
          "name": "subWinnerName",
          "type": "bytes32"
        },
        {
          "indexed": false,
          "name": "subBonus",
          "type": "uint256"
        },
        {
          "indexed": false,
          "name": "winnerAddr",
          "type": "address"
        },
        {
          "indexed": false,
          "name": "winderName",
          "type": "bytes32"
        },
        {
          "indexed": false,
          "name": "newPot",
          "type": "uint256"
        }
      ],
      "name": "onMainAndSubStop",
      "type": "event"
    },
    {
      "constant": false,
      "inputs": [
        {
          "name": "rId",
          "type": "uint256"
        },
        {
          "name": "keyNum",
          "type": "uint256"
        }
      ],
      "name": "buy",
      "outputs": [],
      "payable": true,
      "stateMutability": "payable",
      "type": "function"
    },
    {
      "constant": false,
      "inputs": [
        {
          "name": "amount",
          "type": "uint256"
        }
      ],
      "name": "withdraw",
      "outputs": [],
      "payable": true,
      "stateMutability": "payable",
      "type": "function"
    },
    {
      "constant": true,
      "inputs": [
        {
          "name": "name",
          "type": "string"
        }
      ],
      "name": "getUserRndAmountByName",
      "outputs": [
        {
          "name": "",
          "type": "uint256"
        },
        {
          "name": "",
          "type": "uint256"
        },
        {
          "name": "",
          "type": "uint256"
        },
        {
          "name": "",
          "type": "uint256"
        },
        {
          "name": "",
          "type": "uint256"
        },
        {
          "name": "",
          "type": "uint256"
        },
        {
          "name": "",
          "type": "uint256"
        },
        {
          "name": "",
          "type": "uint256"
        },
        {
          "name": "",
          "type": "uint256"
        }
      ],
      "payable": false,
      "stateMutability": "view",
      "type": "function"
    },
    {
      "constant": true,
      "inputs": [
        {
          "name": "addr",
          "type": "address"
        }
      ],
      "name": "getUserRndAmountByAddr",
      "outputs": [
        {
          "name": "",
          "type": "uint256"
        },
        {
          "name": "",
          "type": "uint256"
        },
        {
          "name": "",
          "type": "uint256"
        },
        {
          "name": "",
          "type": "uint256"
        },
        {
          "name": "",
          "type": "uint256"
        },
        {
          "name": "",
          "type": "uint256"
        },
        {
          "name": "",
          "type": "uint256"
        },
        {
          "name": "",
          "type": "uint256"
        },
        {
          "name": "",
          "type": "uint256"
        }
      ],
      "payable": false,
      "stateMutability": "view",
      "type": "function"
    },
    {
      "constant": true,
      "inputs": [],
      "name": "getBuyPrice",
      "outputs": [
        {
          "name": "",
          "type": "uint256"
        }
      ],
      "payable": false,
      "stateMutability": "view",
      "type": "function"
    },
    {
      "constant": true,
      "inputs": [],
      "name": "getMainRoundTimeLeft",
      "outputs": [
        {
          "name": "",
          "type": "uint256"
        }
      ],
      "payable": false,
      "stateMutability": "view",
      "type": "function"
    },
    {
      "constant": true,
      "inputs": [],
      "name": "getCurrentMainRoundInfo",
      "outputs": [
        {
          "name": "",
          "type": "uint256"
        },
        {
          "name": "",
          "type": "uint256"
        },
        {
          "name": "",
          "type": "uint256"
        },
        {
          "name": "",
          "type": "uint256"
        },
        {
          "name": "",
          "type": "uint256"
        },
        {
          "name": "",
          "type": "uint256"
        },
        {
          "name": "",
          "type": "uint256"
        }
      ],
      "payable": false,
      "stateMutability": "view",
      "type": "function"
    },
    {
      "constant": true,
      "inputs": [],
      "name": "getSubRoundTimeLeft",
      "outputs": [
        {
          "name": "",
          "type": "uint256"
        }
      ],
      "payable": false,
      "stateMutability": "view",
      "type": "function"
    },
    {
      "constant": true,
      "inputs": [],
      "name": "getCurrentSubRoundInfo",
      "outputs": [
        {
          "name": "",
          "type": "uint256"
        },
        {
          "name": "",
          "type": "uint256"
        },
        {
          "name": "",
          "type": "uint256"
        },
        {
          "name": "",
          "type": "uint256"
        },
        {
          "name": "",
          "type": "uint256"
        },
        {
          "name": "",
          "type": "uint256"
        },
        {
          "name": "",
          "type": "uint256"
        }
      ],
      "payable": false,
      "stateMutability": "view",
      "type": "function"
    },
    {
      "constant": false,
      "inputs": [],
      "name": "activate",
      "outputs": [],
      "payable": false,
      "stateMutability": "nonpayable",
      "type": "function"
    },
    {
      "constant": false,
      "inputs": [],
      "name": "activateSubRound",
      "outputs": [],
      "payable": false,
      "stateMutability": "nonpayable",
      "type": "function"
    }
  ],
  "bytecode": "0x60806040526000600860006101000a81548160ff0219169083151502179055506001600860016101000a81548160ff0219169083151502179055506000600860026101000a81548160ff02191690831515021790555060016003819055506164ec8061006c6000396000f3006080604052600436106101a1576000357c0100000000000000000000000000000000000000000000000000000000900463ffffffff168063018a25e8146101a65780630917ccad146101d15780630c92db91146102425780630cde7b7f146102d15780630d5e2053146103635780630f15f4c0146103ba5780631b81e2d2146103d157806325dd24e7146104525780632a2f19b2146104f45780632e1a7d4d1461051f57806338e2e7531461053f5780633d30cacd1461056a5780633e945ea1146105bf578063434b5b3c1461064a57806345b4e592146106ff5780634bff5009146107b457806359740e86146108825780636c52660d146108d957806388a50bbe1461095a5780638c967d1a1461099d5780639406d07414610a2c578063aa60288f14610a57578063b623eb9714610ae2578063b9005c4c14610af9578063bacaa37614610b88578063bceb9e1d14610c38578063c68c5f2014610c63578063c8bb104614610d13578063cfa5c98114610d68578063d53b267914610d93578063d6febde814610dc2578063f16e4e4614610dec578063fd75c71f14610e94575b600080fd5b3480156101b257600080fd5b506101bb610ec6565b6040518082815260200191505060405180910390f35b3480156101dd57600080fd5b506102006004803603810190808035600019169060200190929190505050610fec565b604051808273ffffffffffffffffffffffffffffffffffffffff1673ffffffffffffffffffffffffffffffffffffffff16815260200191505060405180910390f35b34801561024e57600080fd5b50610283600480360381019080803573ffffffffffffffffffffffffffffffffffffffff16906020019092919050505061101f565b604051808a8152602001898152602001888152602001878152602001868152602001858152602001848152602001838152602001828152602001995050505050505050505060405180910390f35b3480156102dd57600080fd5b506102fc6004803603810190808035906020019092919050505061106d565b604051808573ffffffffffffffffffffffffffffffffffffffff1673ffffffffffffffffffffffffffffffffffffffff1681526020018460001916600019168152602001836000191660001916815260200182815260200194505050505060405180910390f35b34801561036f57600080fd5b506103a4600480360381019080803573ffffffffffffffffffffffffffffffffffffffff1690602001909291905050506110bd565b6040518082815260200191505060405180910390f35b3480156103c657600080fd5b506103cf6110d5565b005b3480156103dd57600080fd5b50610438600480360381019080803590602001908201803590602001908080601f01602080910402602001604051908101604052809392919081815260200183838082843782019150505050505091929192905050506112af565b604051808215151515815260200191505060405180910390f35b6104f2600480360381019080803590602001908201803590602001908080601f0160208091040260200160405190810160405280939291908181526020018383808284378201915050505050509192919290803590602001908201803590602001908080601f016020809104026020016040519081016040528093929190818152602001838380828437820191505050505050919291929050505061132b565b005b34801561050057600080fd5b5061050961143d565b6040518082815260200191505060405180910390f35b61053d6004803603810190808035906020019092919050505061148f565b005b34801561054b57600080fd5b50610554611993565b6040518082815260200191505060405180910390f35b34801561057657600080fd5b5061057f611999565b6040518088815260200187815260200186815260200185815260200184815260200183815260200182815260200197505050505050505060405180910390f35b3480156105cb57600080fd5b5061060a600480360381019080803573ffffffffffffffffffffffffffffffffffffffff16906020019092919080359060200190929190505050611a4d565b6040518088815260200187815260200186815260200185815260200184815260200183815260200182815260200197505050505050505060405180910390f35b34801561065657600080fd5b506106b1600480360381019080803590602001908201803590602001908080601f0160208091040260200160405190810160405280939291908181526020018383808284378201915050505050509192919290505050611a9c565b604051808a8152602001898152602001888152602001878152602001868152602001858152602001848152602001838152602001828152602001995050505050505050505060405180910390f35b34801561070b57600080fd5b50610766600480360381019080803590602001908201803590602001908080601f0160208091040260200160405190810160405280939291908181526020018383808284378201915050505050509192919290505050611c46565b604051808a8152602001898152602001888152602001878152602001868152602001858152602001848152602001838152602001828152602001995050505050505050505060405180910390f35b3480156107c057600080fd5b5061081b600480360381019080803590602001908201803590602001908080601f0160208091040260200160405190810160405280939291908181526020018383808284378201915050505050509192919290505050611db0565b604051808573ffffffffffffffffffffffffffffffffffffffff1673ffffffffffffffffffffffffffffffffffffffff1681526020018460001916600019168152602001836000191660001916815260200182815260200194505050505060405180910390f35b34801561088e57600080fd5b506108c3600480360381019080803573ffffffffffffffffffffffffffffffffffffffff169060200190929190505050611f5c565b6040518082815260200191505060405180910390f35b3480156108e557600080fd5b50610940600480360381019080803590602001908201803590602001908080601f0160208091040260200160405190810160405280939291908181526020018383808284378201915050505050509192919290505050611f74565b604051808215151515815260200191505060405180910390f35b34801561096657600080fd5b5061099b600480360381019080803573ffffffffffffffffffffffffffffffffffffffff169060200190929190505050611ff0565b005b3480156109a957600080fd5b506109de600480360381019080803573ffffffffffffffffffffffffffffffffffffffff1690602001909291905050506120c9565b604051808a8152602001898152602001888152602001878152602001868152602001858152602001848152602001838152602001828152602001995050505050505050505060405180910390f35b348015610a3857600080fd5b50610a416120ec565b6040518082815260200191505060405180910390f35b348015610a6357600080fd5b50610aa2600480360381019080803573ffffffffffffffffffffffffffffffffffffffff169060200190929190803590602001909291905050506120f2565b6040518088815260200187815260200186815260200185815260200184815260200183815260200182815260200197505050505050505060405180910390f35b348015610aee57600080fd5b50610af7612141565b005b348015610b0557600080fd5b50610b3a600480360381019080803573ffffffffffffffffffffffffffffffffffffffff1690602001909291905050506122fb565b604051808a8152602001898152602001888152602001878152602001868152602001858152602001848152602001838152602001828152602001995050505050505050505060405180910390f35b348015610b9457600080fd5b50610bb36004803603810190808035906020019092919050505061249d565b604051808b73ffffffffffffffffffffffffffffffffffffffff1673ffffffffffffffffffffffffffffffffffffffff1681526020018a8152602001898152602001881515151581526020018781526020018681526020018581526020018481526020018381526020018281526020019a505050505050505050505060405180910390f35b348015610c4457600080fd5b50610c4d61251e565b6040518082815260200191505060405180910390f35b348015610c6f57600080fd5b50610c8e60048036038101908080359060200190929190505050612524565b604051808b73ffffffffffffffffffffffffffffffffffffffff1673ffffffffffffffffffffffffffffffffffffffff1681526020018a8152602001898152602001881515151581526020018781526020018681526020018581526020018481526020018381526020018281526020019a505050505050505050505060405180910390f35b348015610d1f57600080fd5b50610d286125a5565b6040518088815260200187815260200186815260200185815260200184815260200183815260200182815260200197505050505050505060405180910390f35b348015610d7457600080fd5b50610d7d612659565b6040518082815260200191505060405180910390f35b348015610d9f57600080fd5b50610da86126be565b604051808215151515815260200191505060405180910390f35b610dea60048036038101908080359060200190929190803590602001909291905050506126d1565b005b348015610df857600080fd5b50610e2d600480360381019080803573ffffffffffffffffffffffffffffffffffffffff169060200190929190505050612938565b604051808573ffffffffffffffffffffffffffffffffffffffff1673ffffffffffffffffffffffffffffffffffffffff1681526020018460001916600019168152602001836000191660001916815260200182815260200194505050505060405180910390f35b348015610ea057600080fd5b50610ea9612adc565b604051808381526020018281526020019250505060405180910390f35b6000806000600d549150429050600960008381526020019081526020016000206001015481118015610f865750600960008381526020019081526020016000206002015481111580610f855750600960008381526020019081526020016000206002015481118015610f84575060006009600084815260200190815260200160002060000160009054906101000a900473ffffffffffffffffffffffffffffffffffffffff1673ffffffffffffffffffffffffffffffffffffffff16145b5b5b15610fdd57610fd6670de0b6b3a7640000610fc8670de0b6b3a76400006009600087815260200190815260200160002060040154612aee90919063ffffffff16565b612b7690919063ffffffff16565b9250610fe7565b6544364c5bb00092505b505090565b60066020528060005260406000206000915054906101000a900473ffffffffffffffffffffffffffffffffffffffff1681565b60026020528060005260406000206000915090508060000154908060010154908060020154908060030154908060040154908060050154908060060154908060070154908060080154905089565b60046020528060005260406000206000915090508060000160009054906101000a900473ffffffffffffffffffffffffffffffffffffffff16908060010154908060020154908060030154905084565b60076020528060005260406000206000915090505481565b600073d0ec0703a5e2b347f573171b8862d014be8490d43373ffffffffffffffffffffffffffffffffffffffff16141515611178576040517f08c379a000000000000000000000000000000000000000000000000000000000815260040180806020018281038252601b8152602001807f6f6e6c79207465616d206a7573742063616e206163746976617465000000000081525060200191505060405180910390fd5b60001515600860009054906101000a900460ff161515141515611203576040517f08c379a00000000000000000000000000000000000000000000000000000000081526004018080602001828103825260188152602001807f6d79666f6d6f20616c726561647920616374697661746564000000000000000081525060200191505060405180910390fd5b6001600860006101000a81548160ff0219169083151502179055506000600860026101000a81548160ff0219169083151502179055506000600860016101000a81548160ff0219169083151502179055504290506001600d819055506000600e81905550610e10810160096000600181526020019081526020016000206001018190555062015180610e1082010160096000600181526020019081526020016000206002018190555050565b6000806112bb83612bb5565b9050600060066000836000191660001916815260200190815260200160002060009054906101000a900473ffffffffffffffffffffffffffffffffffffffff1673ffffffffffffffffffffffffffffffffffffffff1614156113205760019150611325565b600091505b50919050565b6000806000806000339150813b90506000811415156113b2576040517f08c379a00000000000000000000000000000000000000000000000000000000081526004018080602001828103825260118152602001807f736f7272792068756d616e73206f6e6c7900000000000000000000000000000081525060200191505060405180910390fd5b6113bb87611f74565b15611434576113c987612bb5565b94506113d486612bb5565b9350600092506000600560003373ffffffffffffffffffffffffffffffffffffffff1673ffffffffffffffffffffffffffffffffffffffff16815260200190815260200160002054141561142757600192505b61143333868686613b37565b5b50505050505050565b6000611447613fbf565b61148a600a6000600e54815260200190815260200160002060010154600a6000600e5481526020019081526020016000206002015461403690919063ffffffff16565b905090565b60008060008061149d6163e5565b600080339150813b905060008114151561151f576040517f08c379a00000000000000000000000000000000000000000000000000000000081526004018080602001828103825260118152602001807f736f7272792068756d616e73206f6e6c7900000000000000000000000000000081525060200191505060405180910390fd5b60011515600860009054906101000a900460ff1615151415156115d0576040517f08c379a00000000000000000000000000000000000000000000000000000000081526004018080602001828103825260298152602001807f697473206e6f74207265616479207965742e2020636865636b203f657461206981526020017f6e20646973636f7264000000000000000000000000000000000000000000000081525060400191505060405180910390fd5b600d5496504295503394506009600088815260200190815260200160002060020154861180156116275750600015156009600089815260200190815260200160002060030160009054906101000a900460ff161515145b8015611680575060006009600089815260200190815260200160002060000160009054906101000a900473ffffffffffffffffffffffffffffffffffffffff1673ffffffffffffffffffffffffffffffffffffffff1614155b156118545760016009600089815260200190815260200160002060030160006101000a81548160ff0219169083151502179055506116bd836140bb565b92506116c8856144e3565b9350600084111561171b578473ffffffffffffffffffffffffffffffffffffffff166108fc859081150290604051600060405180830381858888f19350505050158015611719573d6000803e3d6000fd5b505b7fac89a11b1d62d63e9fadac3ff923d56c2aeabc5379d86d73d25761f1c37d07d73360046000600560008a73ffffffffffffffffffffffffffffffffffffffff1673ffffffffffffffffffffffffffffffffffffffff16815260200190815260200160002054815260200190815260200160002060010154868660000151876020015188604001518960600151604051808873ffffffffffffffffffffffffffffffffffffffff1673ffffffffffffffffffffffffffffffffffffffff16815260200187600019166000191681526020018681526020018573ffffffffffffffffffffffffffffffffffffffff1673ffffffffffffffffffffffffffffffffffffffff168152602001846000191660001916815260200183815260200182815260200197505050505050505060405180910390a1611989565b61185d856144e3565b935060008411156118b0578473ffffffffffffffffffffffffffffffffffffffff166108fc859081150290604051600060405180830381858888f193505050501580156118ae573d6000803e3d6000fd5b505b7f5c3e0d850454c6d76e1928437d212b0a5d43d941ca80a352afd54c4024b53c323360046000600560008a73ffffffffffffffffffffffffffffffffffffffff1673ffffffffffffffffffffffffffffffffffffffff168152602001908152602001600020548152602001908152602001600020600101548689604051808573ffffffffffffffffffffffffffffffffffffffff1673ffffffffffffffffffffffffffffffffffffffff168152602001846000191660001916815260200183815260200182815260200194505050505060405180910390a15b5050505050505050565b60035481565b600080600080600080600080600e54905080600a600083815260200190815260200160002060010154600a600084815260200190815260200160002060020154600a600085815260200190815260200160002060040154600a600086815260200190815260200160002060050154600a600087815260200190815260200160002060060154600a60008881526020019081526020016000206007015497509750975097509750975097505090919293949596565b600b602052816000526040600020602052806000526040600020600091509150508060000154908060010154908060020154908060030154908060040154908060050154908060060154905087565b6000806000806000806000806000611ab261642e565b61012060405190810160405280600081526020016000815260200160008152602001600081526020016000815260200160008152602001600081526020016000815260200160008152509050611b078b6112af565b15611bf8576002600060066000611b1d8f612bb5565b6000191660001916815260200190815260200160002060009054906101000a900473ffffffffffffffffffffffffffffffffffffffff1673ffffffffffffffffffffffffffffffffffffffff1673ffffffffffffffffffffffffffffffffffffffff1681526020019081526020016000206101206040519081016040529081600082015481526020016001820154815260200160028201548152602001600382015481526020016004820154815260200160058201548152602001600682015481526020016007820154815260200160088201548152505090505b806000015181602001518260400151836060015184608001518560a001518660c001518760e00151886101000151995099509950995099509950995099509950509193959799909294969850565b6000806000806000806000806000611c5c61642e565b61012060405190810160405280600081526020016000815260200160008152602001600081526020016000815260200160008152602001600081526020016000815260200160008152509050611cb18b6112af565b15611da2576002600060066000611cc78f612bb5565b6000191660001916815260200190815260200160002060009054906101000a900473ffffffffffffffffffffffffffffffffffffffff1673ffffffffffffffffffffffffffffffffffffffff1673ffffffffffffffffffffffffffffffffffffffff1681526020019081526020016000206101206040519081016040529081600082015481526020016001820154815260200160028201548152602001600382015481526020016004820154815260200160058201548152602001600682015481526020016007820154815260200160088201548152505090505b509193959799909294969850565b600080600080611dbe61647b565b608060405190810160405280600073ffffffffffffffffffffffffffffffffffffffff168152602001600080191681526020016000801916815260200160008152509050611e0b86611f74565b15611f3857600460006005600060066000611e258c612bb5565b6000191660001916815260200190815260200160002060009054906101000a900473ffffffffffffffffffffffffffffffffffffffff1673ffffffffffffffffffffffffffffffffffffffff1673ffffffffffffffffffffffffffffffffffffffff168152602001908152602001600020548152602001908152602001600020608060405190810160405290816000820160009054906101000a900473ffffffffffffffffffffffffffffffffffffffff1673ffffffffffffffffffffffffffffffffffffffff1673ffffffffffffffffffffffffffffffffffffffff16815260200160018201546000191660001916815260200160028201546000191660001916815260200160038201548152505090505b80600001518160200151826040015183606001519450945094509450509193509193565b60056020528060005260406000206000915090505481565b600080611f8083612bb5565b9050600060066000836000191660001916815260200190815260200160002060009054906101000a900473ffffffffffffffffffffffffffffffffffffffff1673ffffffffffffffffffffffffffffffffffffffff161415611fe55760019150611fea565b600091505b50919050565b6000813b905060008114151561206e576040517f08c379a00000000000000000000000000000000000000000000000000000000081526004018080602001828103825260118152602001807f736f7272792068756d616e73206f6e6c7900000000000000000000000000000081525060200191505060405180910390fd5b6000600560008473ffffffffffffffffffffffffffffffffffffffff1673ffffffffffffffffffffffffffffffffffffffff1681526020019081526020016000205414156120c5576120c4826000806001613b37565b5b5050565b60008060008060008060008060006120df613fbf565b9193959799909294969850565b600d5481565b600c602052816000526040600020602052806000526040600020600091509150508060000154908060010154908060020154908060030154908060040154908060050154908060060154905087565b600073d0ec0703a5e2b347f573171b8862d014be8490d43373ffffffffffffffffffffffffffffffffffffffff161415156121e4576040517f08c379a000000000000000000000000000000000000000000000000000000000815260040180806020018281038252601b8152602001807f6f6e6c79207465616d206a7573742063616e206163746976617465000000000081525060200191505060405180910390fd5b60001515600860029054906101000a900460ff16151514151561226f576040517f08c379a00000000000000000000000000000000000000000000000000000000081526004018080602001828103825260188152602001807f737562726f756e6420616c72656164792073746172746564000000000000000081525060200191505060405180910390fd5b6001600860016101000a81548160ff0219169083151502179055506001600860026101000a81548160ff021916908315150217905550429050600e6000815480929190600101919050555080600a6000600e5481526020019081526020016000206001018190555061012c8101600a6000600e5481526020019081526020016000206002018190555050565b600080600080600080600080600061231161642e565b610120604051908101604052806000815260200160008152602001600081526020016000815260200160008152602001600081526020016000815260200160008152602001600081525090506000600560008d73ffffffffffffffffffffffffffffffffffffffff1673ffffffffffffffffffffffffffffffffffffffff1681526020019081526020016000205414151561244f57600260008c73ffffffffffffffffffffffffffffffffffffffff1673ffffffffffffffffffffffffffffffffffffffff1681526020019081526020016000206101206040519081016040529081600082015481526020016001820154815260200160028201548152602001600382015481526020016004820154815260200160058201548152602001600682015481526020016007820154815260200160088201548152505090505b806000015181602001518260400151836060015184608001518560a001518660c001518760e00151886101000151995099509950995099509950995099509950509193959799909294969850565b60096020528060005260406000206000915090508060000160009054906101000a900473ffffffffffffffffffffffffffffffffffffffff16908060010154908060020154908060030160009054906101000a900460ff1690806004015490806005015490806006015490806007015490806008015490806009015490508a565b600e5481565b600a6020528060005260406000206000915090508060000160009054906101000a900473ffffffffffffffffffffffffffffffffffffffff16908060010154908060020154908060030160009054906101000a900460ff1690806004015490806005015490806006015490806007015490806008015490806009015490508a565b600080600080600080600080600d5490508060096000838152602001908152602001600020600101546009600084815260200190815260200160002060020154600960008581526020019081526020016000206004015460096000868152602001908152602001600020600501546009600087815260200190815260200160002060060154600960008881526020019081526020016000206007015497509750975097509750975097505090919293949596565b6000806000600d54915042905060096000838152602001908152602001600020600201548110156126b4576126ad81600960008581526020019081526020016000206002015461403690919063ffffffff16565b92506126b9565b600092505b505090565b600860009054906101000a900460ff1681565b600080339150813b9050600081141515612753576040517f08c379a00000000000000000000000000000000000000000000000000000000081526004018080602001828103825260118152602001807f736f7272792068756d616e73206f6e6c7900000000000000000000000000000081525060200191505060405180910390fd5b60011515600860009054906101000a900460ff161515141515612804576040517f08c379a00000000000000000000000000000000000000000000000000000000081526004018080602001828103825260298152602001807f697473206e6f74207265616479207965742e2020636865636b203f657461206981526020017f6e20646973636f7264000000000000000000000000000000000000000000000081525060400191505060405180910390fd5b34633b9aca0081101515156128a7576040517f08c379a00000000000000000000000000000000000000000000000000000000081526004018080602001828103825260218152602001807f706f636b6574206c696e743a206e6f7420612076616c69642063757272656e6381526020017f790000000000000000000000000000000000000000000000000000000000000081525060400191505060405180910390fd5b69152d02c7e14af68000008111151515612929576040517f08c379a000000000000000000000000000000000000000000000000000000000815260040180806020018281038252600e8152602001807f6e6f20766974616c696b2c206e6f00000000000000000000000000000000000081525060200191505060405180910390fd5b6129316147d9565b5050505050565b60008060008061294661647b565b608060405190810160405280600073ffffffffffffffffffffffffffffffffffffffff1681526020016000801916815260200160008019168152602001600081525090506000600560008873ffffffffffffffffffffffffffffffffffffffff1673ffffffffffffffffffffffffffffffffffffffff16815260200190815260200160002054141515612ab85760046000600560008973ffffffffffffffffffffffffffffffffffffffff1673ffffffffffffffffffffffffffffffffffffffff168152602001908152602001600020548152602001908152602001600020608060405190810160405290816000820160009054906101000a900473ffffffffffffffffffffffffffffffffffffffff1673ffffffffffffffffffffffffffffffffffffffff1673ffffffffffffffffffffffffffffffffffffffff16815260200160018201546000191660001916815260200160028201546000191660001916815260200160038201548152505090505b80600001518160200151826040015183606001519450945094509450509193509193565b60008060000154908060010154905082565b60008183019050828110151515612b6d576040517f08c379a00000000000000000000000000000000000000000000000000000000081526004018080602001828103825260138152602001807f536166654d61746820616464206661696c65640000000000000000000000000081525060200191505060405180910390fd5b80905092915050565b6000612bad612b96612b91848661403690919063ffffffff16565b6148df565b612b9f856148df565b61403690919063ffffffff16565b905092915050565b600060606000806000808694508451935060208411158015612bd75750600084115b1515612c71576040517f08c379a000000000000000000000000000000000000000000000000000000000815260040180806020018281038252602a8152602001807f737472696e67206d757374206265206265747765656e203120616e642033322081526020017f636861726163746572730000000000000000000000000000000000000000000081525060400191505060405180910390fd5b60207f010000000000000000000000000000000000000000000000000000000000000002856000815181101515612ca457fe5b9060200101517f010000000000000000000000000000000000000000000000000000000000000090047f0100000000000000000000000000000000000000000000000000000000000000027effffffffffffffffffffffffffffffffffffffffffffffffffffffffffffff191614158015612dbf575060207f0100000000000000000000000000000000000000000000000000000000000000028560018603815181101515612d4f57fe5b9060200101517f010000000000000000000000000000000000000000000000000000000000000090047f0100000000000000000000000000000000000000000000000000000000000000027effffffffffffffffffffffffffffffffffffffffffffffffffffffffffffff191614155b1515612e59576040517f08c379a00000000000000000000000000000000000000000000000000000000081526004018080602001828103825260258152602001807f737472696e672063616e6e6f74207374617274206f7220656e6420776974682081526020017f737061636500000000000000000000000000000000000000000000000000000081525060400191505060405180910390fd5b60307f010000000000000000000000000000000000000000000000000000000000000002856000815181101515612e8c57fe5b9060200101517f010000000000000000000000000000000000000000000000000000000000000090047f0100000000000000000000000000000000000000000000000000000000000000027effffffffffffffffffffffffffffffffffffffffffffffffffffffffffffff1916141561312c5760787f010000000000000000000000000000000000000000000000000000000000000002856001815181101515612f3257fe5b9060200101517f010000000000000000000000000000000000000000000000000000000000000090047f0100000000000000000000000000000000000000000000000000000000000000027effffffffffffffffffffffffffffffffffffffffffffffffffffffffffffff191614151515613015576040517f08c379a000000000000000000000000000000000000000000000000000000000815260040180806020018281038252601b8152602001807f737472696e672063616e6e6f742073746172742077697468203078000000000081525060200191505060405180910390fd5b60587f01000000000000000000000000000000000000000000000000000000000000000285600181518110151561304857fe5b9060200101517f010000000000000000000000000000000000000000000000000000000000000090047f0100000000000000000000000000000000000000000000000000000000000000027effffffffffffffffffffffffffffffffffffffffffffffffffffffffffffff19161415151561312b576040517f08c379a000000000000000000000000000000000000000000000000000000000815260040180806020018281038252601b8152602001807f737472696e672063616e6e6f742073746172742077697468203058000000000081525060200191505060405180910390fd5b5b600091505b83821015613aa75760407f010000000000000000000000000000000000000000000000000000000000000002858381518110151561316b57fe5b9060200101517f010000000000000000000000000000000000000000000000000000000000000090047f0100000000000000000000000000000000000000000000000000000000000000027effffffffffffffffffffffffffffffffffffffffffffffffffffffffffffff19161180156132815750605b7f010000000000000000000000000000000000000000000000000000000000000002858381518110151561321257fe5b9060200101517f010000000000000000000000000000000000000000000000000000000000000090047f0100000000000000000000000000000000000000000000000000000000000000027effffffffffffffffffffffffffffffffffffffffffffffffffffffffffffff1916105b1561337c576020858381518110151561329657fe5b9060200101517f010000000000000000000000000000000000000000000000000000000000000090047f0100000000000000000000000000000000000000000000000000000000000000027f01000000000000000000000000000000000000000000000000000000000000009004017f010000000000000000000000000000000000000000000000000000000000000002858381518110151561333557fe5b9060200101907effffffffffffffffffffffffffffffffffffffffffffffffffffffffffffff1916908160001a90535060001515831515141561337757600192505b613a9a565b60207f01000000000000000000000000000000000000000000000000000000000000000285838151811015156133ae57fe5b9060200101517f010000000000000000000000000000000000000000000000000000000000000090047f0100000000000000000000000000000000000000000000000000000000000000027effffffffffffffffffffffffffffffffffffffffffffffffffffffffffffff1916148061356b575060607f010000000000000000000000000000000000000000000000000000000000000002858381518110151561345457fe5b9060200101517f010000000000000000000000000000000000000000000000000000000000000090047f0100000000000000000000000000000000000000000000000000000000000000027effffffffffffffffffffffffffffffffffffffffffffffffffffffffffffff191611801561356a5750607b7f01000000000000000000000000000000000000000000000000000000000000000285838151811015156134fb57fe5b9060200101517f010000000000000000000000000000000000000000000000000000000000000090047f0100000000000000000000000000000000000000000000000000000000000000027effffffffffffffffffffffffffffffffffffffffffffffffffffffffffffff1916105b5b806136ba5750602f7f01000000000000000000000000000000000000000000000000000000000000000285838151811015156135a357fe5b9060200101517f010000000000000000000000000000000000000000000000000000000000000090047f0100000000000000000000000000000000000000000000000000000000000000027effffffffffffffffffffffffffffffffffffffffffffffffffffffffffffff19161180156136b95750603a7f010000000000000000000000000000000000000000000000000000000000000002858381518110151561364a57fe5b9060200101517f010000000000000000000000000000000000000000000000000000000000000090047f0100000000000000000000000000000000000000000000000000000000000000027effffffffffffffffffffffffffffffffffffffffffffffffffffffffffffff1916105b5b1515613754576040517f08c379a00000000000000000000000000000000000000000000000000000000081526004018080602001828103825260228152602001807f737472696e6720636f6e7461696e7320696e76616c696420636861726163746581526020017f727300000000000000000000000000000000000000000000000000000000000081525060400191505060405180910390fd5b60207f010000000000000000000000000000000000000000000000000000000000000002858381518110151561378657fe5b9060200101517f010000000000000000000000000000000000000000000000000000000000000090047f0100000000000000000000000000000000000000000000000000000000000000027effffffffffffffffffffffffffffffffffffffffffffffffffffffffffffff191614156139385760207f010000000000000000000000000000000000000000000000000000000000000002856001840181518110151561382e57fe5b9060200101517f010000000000000000000000000000000000000000000000000000000000000090047f0100000000000000000000000000000000000000000000000000000000000000027effffffffffffffffffffffffffffffffffffffffffffffffffffffffffffff191614151515613937576040517f08c379a00000000000000000000000000000000000000000000000000000000081526004018080602001828103825260288152602001807f737472696e672063616e6e6f7420636f6e7461696e20636f6e7365637574697681526020017f652073706163657300000000000000000000000000000000000000000000000081525060400191505060405180910390fd5b5b60001515831515148015613a8f575060307f010000000000000000000000000000000000000000000000000000000000000002858381518110151561397957fe5b9060200101517f010000000000000000000000000000000000000000000000000000000000000090047f0100000000000000000000000000000000000000000000000000000000000000027effffffffffffffffffffffffffffffffffffffffffffffffffffffffffffff19161080613a8e575060397f0100000000000000000000000000000000000000000000000000000000000000028583815181101515613a1f57fe5b9060200101517f010000000000000000000000000000000000000000000000000000000000000090047f0100000000000000000000000000000000000000000000000000000000000000027effffffffffffffffffffffffffffffffffffffffffffffffffffffffffffff1916115b5b15613a9957600192505b5b8180600101925050613131565b60011515831515141515613b23576040517f08c379a000000000000000000000000000000000000000000000000000000000815260040180806020018281038252601d8152602001807f737472696e672063616e6e6f74206265206f6e6c79206e756d6265727300000081525060200191505060405180910390fd5b602085015190508095505050505050919050565b6000600560008673ffffffffffffffffffffffffffffffffffffffff1673ffffffffffffffffffffffffffffffffffffffff1681526020019081526020016000205490508115613d1357600354905060008460001916141515613bef578460066000866000191660001916815260200190815260200160002060006101000a81548173ffffffffffffffffffffffffffffffffffffffff021916908373ffffffffffffffffffffffffffffffffffffffff1602179055505b600354600560008773ffffffffffffffffffffffffffffffffffffffff1673ffffffffffffffffffffffffffffffffffffffff168152602001908152602001600020819055506080604051908101604052808673ffffffffffffffffffffffffffffffffffffffff168152602001856000191681526020018460001916815260200160008152506004600083815260200190815260200160002060008201518160000160006101000a81548173ffffffffffffffffffffffffffffffffffffffff021916908373ffffffffffffffffffffffffffffffffffffffff1602179055506020820151816001019060001916905560408201518160020190600019169055606082015181600301559050506001600360008282540192505081905550613dac565b8460066000866000191660001916815260200190815260200160002060006101000a81548173ffffffffffffffffffffffffffffffffffffffff021916908373ffffffffffffffffffffffffffffffffffffffff16021790555083600460008381526020019081526020016000206001018160001916905550826004600083815260200190815260200160002060020181600019169055505b600060066000856000191660001916815260200190815260200160002060009054906101000a900473ffffffffffffffffffffffffffffffffffffffff1673ffffffffffffffffffffffffffffffffffffffff161415613e2b576000600460008381526020019081526020016000206002018160001916905550613ecb565b6001600460006005600060066000896000191660001916815260200190815260200160002060009054906101000a900473ffffffffffffffffffffffffffffffffffffffff1673ffffffffffffffffffffffffffffffffffffffff1673ffffffffffffffffffffffffffffffffffffffff168152602001908152602001600020548152602001908152602001600020600301600082825401925050819055505b6006600060046000848152602001908152602001600020600201546000191660001916815260200190815260200160002060009054906101000a900473ffffffffffffffffffffffffffffffffffffffff1673ffffffffffffffffffffffffffffffffffffffff1684600019168673ffffffffffffffffffffffffffffffffffffffff167f2c484b021bde81945545322539f6af8dcf21328003d6994f7577ea9ad42100f76004600086815260200190815260200160002060020154864260405180846000191660001916815260200183151515158152602001828152602001935050505060405180910390a45050505050565b600080600860029054906101000a900460ff161561403257600e549150429050600a6000838152602001908152602001600020600101548111801561401a5750600a6000838152602001908152602001600020600201548111155b1561402757809050614031565b61403082614972565b5b5b5050565b60008282111515156140b0576040517f08c379a00000000000000000000000000000000000000000000000000000000081526004018080602001828103825260138152602001807f536166654d61746820737562206661696c65640000000000000000000000000081525060200191505060405180910390fd5b818303905092915050565b6140c36163e5565b6000806000806000806000806000600d5498506001600960008b815260200190815260200160002060030160006101000a81548160ff021916908315150217905550600960008a815260200190815260200160002060000160009054906101000a900473ffffffffffffffffffffffffffffffffffffffff16975060046000600560008b73ffffffffffffffffffffffffffffffffffffffff1673ffffffffffffffffffffffffffffffffffffffff168152602001908152602001600020548152602001908152602001600020600101549650600960008a815260200190815260200160002060060154955060646141c5603088614b3e90919063ffffffff16565b8115156141ce57fe5b04945060646141e7600288614b3e90919063ffffffff16565b8115156141f057fe5b0493506064614209601488614b3e90919063ffffffff16565b81151561421257fe5b049250606461422b601e88614b3e90919063ffffffff16565b81151561423457fe5b049150600960008a8152602001908152602001600020600401548281151561425857fe5b0490506142b085600260008b73ffffffffffffffffffffffffffffffffffffffff1673ffffffffffffffffffffffffffffffffffffffff16815260200190815260200160002060040154612aee90919063ffffffff16565b600260008a73ffffffffffffffffffffffffffffffffffffffff1673ffffffffffffffffffffffffffffffffffffffff1681526020019081526020016000206004018190555061434b85600260008b73ffffffffffffffffffffffffffffffffffffffff1673ffffffffffffffffffffffffffffffffffffffff16815260200190815260200160002060050154612aee90919063ffffffff16565b600260008a73ffffffffffffffffffffffffffffffffffffffff1673ffffffffffffffffffffffffffffffffffffffff168152602001908152602001600020600501819055506143a8846000800154612aee90919063ffffffff16565b60008001819055506143d9600960008b81526020019081526020016000206008015482612aee90919063ffffffff16565b600960008b815260200190815260200160002060080181905550878b6000019073ffffffffffffffffffffffffffffffffffffffff16908173ffffffffffffffffffffffffffffffffffffffff1681525050868b602001906000191690816000191681525050848b6040018181525050828b6060018181525050600d60008154809291906001019190505550888060010199505042600960008b81526020019081526020016000206001018190555061449d610e1042612aee90919063ffffffff16565b600960008b81526020019081526020016000206002018190555082600960008b8152602001908152602001600020600601819055508a9950505050505050505050919050565b6000806000806000600d549350600960008581526020019081526020016000206008015492506145d4600b60008873ffffffffffffffffffffffffffffffffffffffff1673ffffffffffffffffffffffffffffffffffffffff1681526020019081526020016000206000868152602001908152602001600020600601546145c6600b60008a73ffffffffffffffffffffffffffffffffffffffff1673ffffffffffffffffffffffffffffffffffffffff16815260200190815260200160002060008881526020019081526020016000206000015486614b3e90919063ffffffff16565b61403690919063ffffffff16565b915061462b600260008873ffffffffffffffffffffffffffffffffffffffff1673ffffffffffffffffffffffffffffffffffffffff1681526020019081526020016000206005015483612aee90919063ffffffff16565b9050614693600b60008873ffffffffffffffffffffffffffffffffffffffff1673ffffffffffffffffffffffffffffffffffffffff16815260200190815260200160002060008681526020019081526020016000206006015483612aee90919063ffffffff16565b600b60008873ffffffffffffffffffffffffffffffffffffffff1673ffffffffffffffffffffffffffffffffffffffff1681526020019081526020016000206000868152602001908152602001600020600601819055506000600260008873ffffffffffffffffffffffffffffffffffffffff1673ffffffffffffffffffffffffffffffffffffffff16815260200190815260200160002060050181905550614787600260008873ffffffffffffffffffffffffffffffffffffffff1673ffffffffffffffffffffffffffffffffffffffff1681526020019081526020016000206006015482612aee90919063ffffffff16565b600260008873ffffffffffffffffffffffffffffffffffffffff1673ffffffffffffffffffffffffffffffffffffffff1681526020019081526020016000206006018190555080945050505050919050565b6000806000600d54925042915060096000848152602001908152602001600020600101548211801561489957506009600084815260200190815260200160002060020154821115806148985750600960008481526020019081526020016000206002015482118015614897575060006009600085815260200190815260200160002060000160009054906101000a900473ffffffffffffffffffffffffffffffffffffffff1673ffffffffffffffffffffffffffffffffffffffff16145b5b5b156148d957600860029054906101000a900460ff1615156148c3576148be8334614be2565b6148d4565b600090506148d3600e5482615643565b5b6148da565b5b505050565b60006148f2670de0b6b3a7640000615c1e565b614961600261492a614915670de0b6b3a764000087614b3e90919063ffffffff16565b65886c8f673070614b3e90919063ffffffff16565b81151561493357fe5b0461495361494086615c1e565b6304a817c8614b3e90919063ffffffff16565b612aee90919063ffffffff16565b81151561496a57fe5b049050919050565b6000806000600860026101000a81548160ff021916908315150217905550600a600084815260200190815260200160002060000160009054906101000a900473ffffffffffffffffffffffffffffffffffffffff169150614a47600a600085815260200190815260200160002060060154600b60008573ffffffffffffffffffffffffffffffffffffffff1673ffffffffffffffffffffffffffffffffffffffff1681526020019081526020016000206000600d54815260200190815260200160002060040154612aee90919063ffffffff16565b905080600b60008473ffffffffffffffffffffffffffffffffffffffff1673ffffffffffffffffffffffffffffffffffffffff1681526020019081526020016000206000600d548152602001908152602001600020600401819055506001600a600085815260200190815260200160002060030160006101000a81548160ff021916908315150217905550600a600084815260200190815260200160002060020154600a600085815260200190815260200160002060010181905550614b39600a600085815260200190815260200160002060090154600a600086815260200190815260200160002060040154615c31565b505050565b600080831415614b515760009050614bdc565b8183029050818382811515614b6257fe5b04141515614bd8576040517f08c379a00000000000000000000000000000000000000000000000000000000081526004018080602001828103825260138152602001807f536166654d617468206d756c206661696c65640000000000000000000000000081525060200191505060405180910390fd5b8090505b92915050565b600080600080600080600033965060009550600186101515614c5e5786600960008b815260200190815260200160002060000160006101000a81548173ffffffffffffffffffffffffffffffffffffffff021916908373ffffffffffffffffffffffffffffffffffffffff160217905550614c5d868a616041565b5b614cc4600b60008973ffffffffffffffffffffffffffffffffffffffff1673ffffffffffffffffffffffffffffffffffffffff16815260200190815260200160002060008b81526020019081526020016000206000015487612aee90919063ffffffff16565b600b60008973ffffffffffffffffffffffffffffffffffffffff1673ffffffffffffffffffffffffffffffffffffffff16815260200190815260200160002060008b815260200190815260200160002060000181905550614d81600b60008973ffffffffffffffffffffffffffffffffffffffff1673ffffffffffffffffffffffffffffffffffffffff16815260200190815260200160002060008b81526020019081526020016000206001015489612aee90919063ffffffff16565b600b60008973ffffffffffffffffffffffffffffffffffffffff1673ffffffffffffffffffffffffffffffffffffffff16815260200190815260200160002060008b815260200190815260200160002060010181905550614e01600960008b81526020019081526020016000206004015487612aee90919063ffffffff16565b600960008b815260200190815260200160002060040181905550614e44600960008b81526020019081526020016000206005015489612aee90919063ffffffff16565b600960008b815260200190815260200160002060050181905550614ea6600960008b8152602001908152602001600020600601546064614e8e602b8c614b3e90919063ffffffff16565b811515614e9757fe5b04612aee90919063ffffffff16565b600960008b8152602001908152602001600020600601819055506064614ed6602b8a614b3e90919063ffffffff16565b811515614edf57fe5b049450614f0b85600960008c815260200190815260200160002060070154612aee90919063ffffffff16565b600960008b815260200190815260200160002060070181905550614f4e600960008b815260200190815260200160002060040154866161d690919063ffffffff16565b9350614fde614f7c87600960008d815260200190815260200160002060080154614b3e90919063ffffffff16565b600b60008a73ffffffffffffffffffffffffffffffffffffffff1673ffffffffffffffffffffffffffffffffffffffff16815260200190815260200160002060008c815260200190815260200160002060060154612aee90919063ffffffff16565b600b60008973ffffffffffffffffffffffffffffffffffffffff1673ffffffffffffffffffffffffffffffffffffffff16815260200190815260200160002060008b81526020019081526020016000206006018190555061505e600960008b81526020019081526020016000206008015485612aee90919063ffffffff16565b600960008b81526020019081526020016000206008018190555060046000600560008a73ffffffffffffffffffffffffffffffffffffffff1673ffffffffffffffffffffffffffffffffffffffff16815260200190815260200160002054815260200190815260200160002060020154925060646150e6600a8a614b3e90919063ffffffff16565b8115156150ef57fe5b049150600083600019161415156153d65760066000846000191660001916815260200190815260200160002060009054906101000a900473ffffffffffffffffffffffffffffffffffffffff1690506151a7600160046000600560008673ffffffffffffffffffffffffffffffffffffffff1673ffffffffffffffffffffffffffffffffffffffff16815260200190815260200160002054815260200190815260200160002060030154612aee90919063ffffffff16565b60046000600560008573ffffffffffffffffffffffffffffffffffffffff1673ffffffffffffffffffffffffffffffffffffffff1681526020019081526020016000205481526020019081526020016000206003018190555061525582600260008473ffffffffffffffffffffffffffffffffffffffff1673ffffffffffffffffffffffffffffffffffffffff16815260200190815260200160002060080154612aee90919063ffffffff16565b600260008373ffffffffffffffffffffffffffffffffffffffff1673ffffffffffffffffffffffffffffffffffffffff168152602001908152602001600020600801819055506152f082600260008473ffffffffffffffffffffffffffffffffffffffff1673ffffffffffffffffffffffffffffffffffffffff16815260200190815260200160002060050154612aee90919063ffffffff16565b600260008373ffffffffffffffffffffffffffffffffffffffff1673ffffffffffffffffffffffffffffffffffffffff1681526020019081526020016000206005018190555061538b82600260008473ffffffffffffffffffffffffffffffffffffffff1673ffffffffffffffffffffffffffffffffffffffff16815260200190815260200160002060040154612aee90919063ffffffff16565b600260008373ffffffffffffffffffffffffffffffffffffffff1673ffffffffffffffffffffffffffffffffffffffff168152602001908152602001600020600401819055506153f6565b6153ed826000800154612aee90919063ffffffff16565b60008001819055505b61542c606461540f60038b614b3e90919063ffffffff16565b81151561541857fe5b046000800154612aee90919063ffffffff16565b600080018190555061546b606461544d60018b614b3e90919063ffffffff16565b81151561545657fe5b04600060010154612aee90919063ffffffff16565b6000600101819055506154c986600260008a73ffffffffffffffffffffffffffffffffffffffff1673ffffffffffffffffffffffffffffffffffffffff16815260200190815260200160002060000154612aee90919063ffffffff16565b600260008973ffffffffffffffffffffffffffffffffffffffff1673ffffffffffffffffffffffffffffffffffffffff1681526020019081526020016000206000018190555061556488600260008a73ffffffffffffffffffffffffffffffffffffffff1673ffffffffffffffffffffffffffffffffffffffff16815260200190815260200160002060010154612aee90919063ffffffff16565b600260008973ffffffffffffffffffffffffffffffffffffffff1673ffffffffffffffffffffffffffffffffffffffff1681526020019081526020016000206001018190555085600260008973ffffffffffffffffffffffffffffffffffffffff1673ffffffffffffffffffffffffffffffffffffffff1681526020019081526020016000206002018190555087600260008973ffffffffffffffffffffffffffffffffffffffff1673ffffffffffffffffffffffffffffffffffffffff16815260200190815260200160002060030181905550505050505050505050565b600080600080339350349250429150600a6000878152602001908152602001600020600101548211801561568d5750600a6000878152602001908152602001600020600201548211155b15615c0a576156f8600c60008673ffffffffffffffffffffffffffffffffffffffff1673ffffffffffffffffffffffffffffffffffffffff16815260200190815260200160002060008881526020019081526020016000206000015486612aee90919063ffffffff16565b600c60008673ffffffffffffffffffffffffffffffffffffffff1673ffffffffffffffffffffffffffffffffffffffff1681526020019081526020016000206000888152602001908152602001600020600001819055506157b5600c60008673ffffffffffffffffffffffffffffffffffffffff1673ffffffffffffffffffffffffffffffffffffffff16815260200190815260200160002060008881526020019081526020016000206001015484612aee90919063ffffffff16565b600c60008673ffffffffffffffffffffffffffffffffffffffff1673ffffffffffffffffffffffffffffffffffffffff168152602001908152602001600020600088815260200190815260200160002060010181905550615835600a60008881526020019081526020016000206004015486612aee90919063ffffffff16565b600a600088815260200190815260200160002060040181905550615878600a60008881526020019081526020016000206005015484612aee90919063ffffffff16565b600a60008881526020019081526020016000206005018190555061589b84611ff0565b600d5490506158e8600960008381526020019081526020016000206006015460646158d0603887614b3e90919063ffffffff16565b8115156158d957fe5b04612aee90919063ffffffff16565b600960008381526020019081526020016000206006018190555061594a600a6000888152602001908152602001600020600601546064615932602887614b3e90919063ffffffff16565b81151561593b57fe5b04612aee90919063ffffffff16565b600a60008881526020019081526020016000206006018190555061599a606461597d600386614b3e90919063ffffffff16565b81151561598657fe5b046000800154612aee90919063ffffffff16565b60008001819055506159d960646159bb600186614b3e90919063ffffffff16565b8115156159c457fe5b04600060010154612aee90919063ffffffff16565b600060010181905550615a3785600260008773ffffffffffffffffffffffffffffffffffffffff1673ffffffffffffffffffffffffffffffffffffffff16815260200190815260200160002060000154612aee90919063ffffffff16565b600260008673ffffffffffffffffffffffffffffffffffffffff1673ffffffffffffffffffffffffffffffffffffffff16815260200190815260200160002060000181905550615ad283600260008773ffffffffffffffffffffffffffffffffffffffff1673ffffffffffffffffffffffffffffffffffffffff16815260200190815260200160002060010154612aee90919063ffffffff16565b600260008673ffffffffffffffffffffffffffffffffffffffff1673ffffffffffffffffffffffffffffffffffffffff1681526020019081526020016000206001018190555084600260008673ffffffffffffffffffffffffffffffffffffffff1673ffffffffffffffffffffffffffffffffffffffff1681526020019081526020016000206002018190555082600260008673ffffffffffffffffffffffffffffffffffffffff1673ffffffffffffffffffffffffffffffffffffffff1681526020019081526020016000206003018190555083600a600088815260200190815260200160002060000160006101000a81548173ffffffffffffffffffffffffffffffffffffffff021916908373ffffffffffffffffffffffffffffffffffffffff160217905550615c0585876161f1565b615c16565b615c15868585616316565b5b505050505050565b6000615c2a8283614b3e565b9050919050565b600080615c3c6163e5565b600d549250600e549150615c6f856009600086815260200190815260200160002060020154612aee90919063ffffffff16565b6009600085815260200190815260200160002060020181905550615cb284600960008681526020019081526020016000206002015461403690919063ffffffff16565b60096000858152602001908152602001600020600201819055506000615d0d6009600086815260200190815260200160002060010154600960008781526020019081526020016000206002015461403690919063ffffffff16565b111515615ece57615d1d816140bb565b90507f032157f89ed34a073dec420028da1fa9c6c07fb7a0f4f6d9ac925a97a2f5213d600a600084815260200190815260200160002060000160009054906101000a900473ffffffffffffffffffffffffffffffffffffffff166004600060056000600a600089815260200190815260200160002060000160009054906101000a900473ffffffffffffffffffffffffffffffffffffffff1673ffffffffffffffffffffffffffffffffffffffff1673ffffffffffffffffffffffffffffffffffffffff16815260200190815260200160002054815260200190815260200160002060010154600a600086815260200190815260200160002060060154846000015185602001518660600151604051808773ffffffffffffffffffffffffffffffffffffffff1673ffffffffffffffffffffffffffffffffffffffff16815260200186600019166000191681526020018581526020018473ffffffffffffffffffffffffffffffffffffffff1673ffffffffffffffffffffffffffffffffffffffff1681526020018360001916600019168152602001828152602001965050505050505060405180910390a161603a565b7f548d15cef135ce04cfb6c34f937425bfed4094d9dc315f289f6903331f741369836009600086815260200190815260200160002060010154600960008781526020019081526020016000206002015460096000888152602001908152602001600020600401546009600089815260200190815260200160002060050154600960008a81526020019081526020016000206006015488600a60008b815260200190815260200160002060010154600a60008c815260200190815260200160002060020154600a60008d815260200190815260200160002060040154600a60008e815260200190815260200160002060050154600a60008f815260200190815260200160002060060154604051808d81526020018c81526020018b81526020018a81526020018981526020018881526020018781526020018681526020018581526020018481526020018381526020018281526020019c5050505050505050505050505060405180910390a15b5050505050565b6000804291506009600084815260200190815260200160002060020154821180156160b8575060006009600085815260200190815260200160002060000160009054906101000a900473ffffffffffffffffffffffffffffffffffffffff1673ffffffffffffffffffffffffffffffffffffffff16145b156160fd576160f6826160e8601e670de0b6b3a7640000888115156160d957fe5b04614b3e90919063ffffffff16565b612aee90919063ffffffff16565b905061614f565b61614c600960008581526020019081526020016000206002015461613e601e670de0b6b3a76400008881151561612f57fe5b04614b3e90919063ffffffff16565b612aee90919063ffffffff16565b90505b6161658262015180612aee90919063ffffffff16565b81101561618c578060096000858152602001908152602001600020600201819055506161d0565b6161b5826009600086815260200190815260200160002060010154612aee90919063ffffffff16565b60096000858152602001908152602001600020600201819055505b50505050565b60008082848115156161e457fe5b0490508091505092915050565b60008061624361621e6001670de0b6b3a76400008781151561620f57fe5b04614b3e90919063ffffffff16565b600a600086815260200190815260200160002060010154612aee90919063ffffffff16565b9150429050616299616274600a6000868152602001908152602001600020600101548361403690919063ffffffff16565b600a600086815260200190815260200160002060090154612aee90919063ffffffff16565b600a600085815260200190815260200160002060090181905550600a6000848152602001908152602001600020600201546162df61012c84612aee90919063ffffffff16565b1015156162f4576162ef83614972565b616310565b81600a6000858152602001908152602001600020600101819055505b50505050565b61631f83614972565b61638781600b60008573ffffffffffffffffffffffffffffffffffffffff1673ffffffffffffffffffffffffffffffffffffffff1681526020019081526020016000206000600d54815260200190815260200160002060040154612aee90919063ffffffff16565b600b60008473ffffffffffffffffffffffffffffffffffffffff1673ffffffffffffffffffffffffffffffffffffffff1681526020019081526020016000206000600d54815260200190815260200160002060040181905550505050565b60a060405190810160405280600073ffffffffffffffffffffffffffffffffffffffff168152602001600080191681526020016000815260200160008152602001600081525090565b610120604051908101604052806000815260200160008152602001600081526020016000815260200160008152602001600081526020016000815260200160008152602001600081525090565b608060405190810160405280600073ffffffffffffffffffffffffffffffffffffffff16815260200160008019168152602001600080191681526020016000815250905600a165627a7a72305820720cdf9d725f1ac715220fcc2482a883526071a34512c9ec7204d5907629d3090029",
  "source": "pragma solidity ^0.4.23;\nimport \"./MyFomoDataSet.sol\";\n\nimport \"./library/SafeMath.sol\";\nimport \"./library/UintCompressor.sol\";\nimport \"./library/NameFilter.sol\";\nimport \"./library/UintCompressor.sol\";\nimport \"./library/KeysCalcLong.sol\";\n\nimport \"./UserCenter.sol\";\n\ncontract MyFomo is UserCenter {\n    using SafeMath for *;\n    using NameFilter for string;\n    using KeysCalcLong for uint256;\n\n    bool public activated_ = false;\n    bool isMainRoundStop = true;\n    bool isSubRoundStart = false;\n\n    uint256 constant private rndInit_ = 1 hours;                // round timer starts at this\n    uint256 constant private rndInc_ = 30 seconds;              // every full key purchased adds this much to the timer\n    uint256 constant private rndMax_ = 24 hours;                // max length a round timer can be\n    uint256 constant private subRndDesc_ = 1 seconds;       \n    uint256 constant private subRndMax_ = 300 seconds;       \n\n    // eth\n    uint256 constant private main_round_pot_ration = 43;           // 43%\n    uint256 constant private main_round_dividend_ration = 43;       // 43%\n    uint256 constant private main_round_inviter_ration = 10;        // 10,\n    uint256 constant private main_round_developer_ration = 3;       // 3%\n    uint256 constant private main_round_fee_ration = 1;             // 1% \n\n    // eth\n    uint256 constant private sub_round_pot_ration = 56;           // 56%\n    // uint256 constant private sub_round_dividend_ration = 23;       // 43%\n    uint256 constant private sub_round_subpot_ration = 40;        // 40,\n    uint256 constant private sub_round_developer_ration = 3;       // 3%\n    uint256 constant private sub_round_fee_ration = 1;             // 1% \n\n    mapping (uint256 => MyFomoDataSet.Round) public main_round_;   // (rID => data) round data\n    mapping (uint256 => MyFomoDataSet.Round) public sub_round_;   // (rID => data) round data \n\n    // (pID => rID => data) player round data by player id & round id\n    // addresspalyername\n    mapping (address => mapping (uint256 => MyFomoDataSet.PlayerAmount)) public mainPlayerRounds_;\n    // \n    mapping (address => mapping (uint256 => MyFomoDataSet.PlayerAmount)) public subPlayerRounds_;\n\n    uint256 public main_round_id_;    // round id number / total rounds that have happened\n    uint256 public sub_round_id_;    // round id number / total rounds that have happened\n\n    /**\n     * @dev  \n     * \n     */\n    modifier isActivated() {\n        require(activated_ == true, \"its not ready yet.  check ?eta in discord\"); \n        _;\n    }\n    \n    /**\n     * @dev prevents contracts from interacting with fomo3d \n     */\n    modifier isHuman() {\n        address _addr = msg.sender;\n        uint256 _codeLength;\n        \n        assembly {_codeLength := extcodesize(_addr)}\n        require(_codeLength == 0, \"sorry humans only\");\n        _;\n    }\n\n    /**\n     * @dev sets boundaries for incoming tx \n     */\n    modifier isWithinLimits(uint256 _eth) {\n        require(_eth >= 1000000000, \"pocket lint: not a valid currency\");\n        require(_eth <= 100000000000000000000000, \"no vitalik, no\");\n        _;    \n    }\n\n    function buy(uint256 rId, uint256 keyNum) \n        public\n        payable\n        isHuman()\n        isActivated()\n        isWithinLimits(msg.value)\n    {\n        buyCore();\n    }\n\n    function withdraw(uint256 amount) \n        public\n        payable\n        isHuman()\n        isActivated()\n    {\n        // \n        uint256 _rID = main_round_id_;  // ID\n        \n        // \n        uint256 _now = now;\n        \n        // \n        address _player = msg.sender;\n        \n        // setup temp var for player eth\n        uint256 _eth;\n        \n        // \n        if (_now > main_round_[_rID].end && main_round_[_rID].ended == false && main_round_[_rID].plyr != 0)\n        {\n            // \n            // event\n            MyFomoDataSet.EventReturns memory _eventData_;\n            \n            main_round_[_rID].ended = true;\n            _eventData_ = endMainRound(_eventData_);\n            \n            // \n            _eth = withdrawEarnings(_player); // TODO to be implements\n            \n            // \n            if (_eth > 0)\n                _player.transfer(_eth);\n            \n            emit onWithdrawAndDistribute\n            (\n                msg.sender, \n                users_[addrUids_[_player]].name, \n                _eth, \n                _eventData_.winnerAddr, \n                _eventData_.winnerName, \n                _eventData_.amountWon, \n                _eventData_.newPot\n            );\n            \n        // in any other situation\n        } else {\n            // get their earnings\n            _eth = withdrawEarnings(_player);\n            \n            // gib moni\n            if (_eth > 0)\n                _player.transfer(_eth);\n            \n            // fire withdraw event\n            emit onWithdraw( msg.sender, users_[addrUids_[_player]].name, _eth, _now);\n        }\n        \n    }\n\n    /**\n     * brief: \n     * : name \n     * UserAmount UserAmount\n     * uint256 totalKeys;          // \n     * uint256 totalBet;           // eth\n     * uint256 lastKeys;           // \n     * uint256 lastBet;            // \n     * uint256 totalBalance;       // (eth)\n     * uint256 withdrawAble;       // (eth)\n     * uint256 withdraw;           // (eth)\n     * uint256 totalProfit;        //  )\n     * uint256 inviteProfit;       // (eth)\n     */\n    function getUserRndAmountByName(string name) \n        public\n        view\n        returns(uint256,uint256,uint256,uint256,uint256,uint256,uint256,uint256,uint256)\n    { \n        // checkStopSubRnd();\n        MyFomoDataSet.UserAmount memory amt = MyFomoDataSet.UserAmount(0,0,0,0,0,0,0,0,0);\n        if (userExist(name))\n            amt = userAmounts_[nameAddr_[name.nameFilter()]];\n        \n    }\n\n    function getUserRndAmountByAddr(address addr)\n        public\n        view\n        returns(uint256,uint256,uint256,uint256,uint256,uint256,uint256,uint256,uint256)\n    { \n        checkStopSubRnd();\n    }\n\n\n    //----------------------------------------------------------------------------------------------------------\n    //---------------------------------------------------------------------------------------------------------\n    /**\n     * @dev \n     * \n     * @return  (wei)\n     */\n    function getBuyPrice() \n         public  \n         view \n         returns(uint256) \n    { \n               // setup local rID\n        uint256 _rID = main_round_id_;\n        \n        // grab time\n        uint256 _now = now;\n        \n        // are we in a round?\n        if (_now > main_round_[_rID].strt && (_now <= main_round_[_rID].end || (_now > main_round_[_rID].end && main_round_[_rID].plyr == 0)))\n            return ( (main_round_[_rID].keys.add(1000000000000000000)).ethRec(1000000000000000000) );\n        else // rounds over.  need price for new round\n            return ( 75000000000000 ); //  \n    }\n\n    /**\n     * @dev -\n     * \n     * @return -\n     */\n    function getMainRoundTimeLeft()\n        public\n        view\n        returns(uint256)\n    {\n        // setup local rID\n        uint256 _rID = main_round_id_;\n        \n        // grab time\n        uint256 _now = now;\n        \n        if (_now < main_round_[_rID].end)\n            return( (main_round_[_rID].end).sub(_now));\n        else\n            return(0);\n    }\n\n      \n    /**\n     * @dev \n     * \n     * @return \n     * @return \n     * @return \n     * @return \n     * @return eth\n     * @return eth\n     * @return eth\n     */\n    function getCurrentMainRoundInfo()\n        public\n        view\n        returns(uint256, uint256, uint256, uint256, uint256,uint256, uint256)\n    {\n         // setup local rID\n        uint256 _rID = main_round_id_;\n        \n        return\n        (\n            _rID,                                //1\n            main_round_[_rID].strt,              //2\n            main_round_[_rID].end,               //3\n            main_round_[_rID].keys,              //4\n            main_round_[_rID].eth,               //5\n            main_round_[_rID].pot,               //6\n            main_round_[_rID].dividend           //7\n        );\n    }\n\n    /**\n     * @dev -\n     * \n     * @return -\n     */\n    function getSubRoundTimeLeft()\n        public\n        view\n        returns(uint256)\n    {\n        checkStopSubRnd();\n        return sub_round_[sub_round_id_].end.sub(sub_round_[sub_round_id_].strt);\n    }\n    \n    /**\n     * @dev \n     * \n     * @return \n     * @return \n     * @return \n     * @return \n     * @return eth\n     * @return eth\n     * @return eth\n     */\n    function getCurrentSubRoundInfo()\n        public\n        view\n        returns(uint256, uint256, uint256, uint256, uint256, uint256, uint256)\n    {\n                 // setup local rID\n        uint256 _rID = sub_round_id_;\n        \n        return\n        (\n            _rID,                               //1\n            sub_round_[_rID].strt,              //2\n            sub_round_[_rID].end,               //3\n            sub_round_[_rID].keys,              //4\n            sub_round_[_rID].eth,               //5\n            sub_round_[_rID].pot,               //6\n            sub_round_[_rID].dividend           //7\n        );\n    }\n\n\n    /**\n     *   \n     *   1.-\n     *   2.-\n     *\n     */\n    function buyCore()\n        private \n    {\n        // \n        uint256 _rID = main_round_id_; \n        \n        // \n        uint256 _now = now;\n\n        // \n        // \n        // TODO::now\n        if (_now > main_round_[_rID].strt && (_now <= main_round_[_rID].end || (_now > main_round_[_rID].end && main_round_[_rID].plyr == 0))) \n        {\n            // \n            if (!isSubRoundStart) {\n                buyMainRound(_rID,msg.value);\n            } else {\n                uint256 _keys = 0;\n                buySubRound(sub_round_id_, _keys);\n            }\n        \n        // \n        } else {\n            \n        }\n    }\n\n    //==============================================================================\n    //     _ _  _ _   | _  _ . _  .\n    //    (_(_)| (/_  |(_)(_||(_  . (this + tools + calcs + modules = our softwares engine)\n    //=====================_|=======================================================\n    /**\n     * @dev logic runs whenever a buy order is executed.  determines how to handle \n     * incoming eth depending on if we are in an active round or not\n     * \n     *  \n     *  1.\n     *  2.\n     *  3.\n     *\n     */\n    function buyMainRound(uint256 _rID, uint256 _eth) \n        private \n    {\n        address _player = msg.sender; // \n\n        uint256 _keys = 0; // ethkeys TODO::  \n        // TODO:: \n        if (_keys >= 1) {\n            main_round_[_rID].plyr = _player; // \n            updateTimer(_keys, _rID);\n        }\n        // uint256 _eth = msg.value; // eth\n                                  // eth keys\n\n        // 1.\n        mainPlayerRounds_[_player][_rID].totalKeys = _keys.add(mainPlayerRounds_[_player][_rID].totalKeys); // keys\n        mainPlayerRounds_[_player][_rID].totalBet = _eth.add(mainPlayerRounds_[_player][_rID].totalBet); // eth\n        \n        // \n        main_round_[_rID].keys = _keys.add(main_round_[_rID].keys);\n        main_round_[_rID].eth = _eth.add(main_round_[_rID].eth);\n\n        // -\n        // 43% \n        main_round_[_rID].pot = (_eth.mul(main_round_pot_ration)/100).add(main_round_[_rID].pot);\n\n        // 43% \n        uint256 _dividend = _eth.mul(main_round_dividend_ration)/100; // \n        main_round_[_rID].dividend = main_round_[_rID].dividend.add(_dividend);\n        uint256 _dividend_per_key = _dividend.div(main_round_[_rID].keys); // key\n        mainPlayerRounds_[_player][_rID].mask = mainPlayerRounds_[_player][_rID].mask.add(main_round_[_rID].mask.mul(_keys)); // \n        main_round_[_rID].mask=_dividend_per_key.add(main_round_[_rID].mask);\n        // 10% , \n        bytes32 _inviter_name = users_[addrUids_[_player]].inviterName;\n        uint256 _profit = _eth.mul(main_round_inviter_ration)/100;\n        if (_inviter_name != \"\") {\n            address _inviter = nameAddr_[_inviter_name];\n            users_[addrUids_[_inviter]].inviteNum = users_[addrUids_[_inviter]].inviteNum.add(1);\n            userAmounts_[_inviter].inviteProfit = userAmounts_[_inviter].inviteProfit.add(_profit); // \n            userAmounts_[_inviter].withdrawAble = userAmounts_[_inviter].withdrawAble.add(_profit); // \n            userAmounts_[_inviter].totalBalance = userAmounts_[_inviter].totalBalance.add(_profit); // \n        } else {\n            _opeAmount.devFund = _opeAmount.devFund.add(_profit); // \n        }\n        // 3% \n        _opeAmount.devFund = _opeAmount.devFund.add(_eth.mul(main_round_developer_ration)/100);\n        // 1% \n        _opeAmount.fees = _opeAmount.fees.add(_eth.mul(main_round_fee_ration)/100);\n\n        // UserAmount\n        userAmounts_[_player].totalKeys = userAmounts_[_player].totalKeys.add(_keys); // \n        userAmounts_[_player].totalBet = userAmounts_[_player].totalBet.add(_eth);    // eth\n        userAmounts_[_player].lastKeys = _keys;      // \n        userAmounts_[_player].lastBet = _eth;         // eth\n    }\n\n    function buySubRound(uint256 _rID, uint256 _keys)\n        private \n    {\n        address _player = msg.sender; // \n        uint256 _eth = msg.value; // eth\n        uint256 _now = now;\n                                  // eth keys\n        // \n        if (_now > sub_round_[_rID].strt && (_now <= sub_round_[_rID].end)) \n        {\n            // 1.\n            subPlayerRounds_[_player][_rID].totalKeys = _keys.add(subPlayerRounds_[_player][_rID].totalKeys); // keys\n            subPlayerRounds_[_player][_rID].totalBet = _eth.add(subPlayerRounds_[_player][_rID].totalBet); // eth\n            \n            // \n            sub_round_[_rID].keys = _keys.add(sub_round_[_rID].keys);\n            sub_round_[_rID].eth = _eth.add(sub_round_[_rID].eth);\n\n            // \n            registWithAddr(_player);\n\n            // -\n            // 56% \n            uint _mrID = main_round_id_;\n            main_round_[_mrID].pot = (_eth.mul(sub_round_pot_ration)/100).add(main_round_[_mrID].pot);\n            // 40% \n            sub_round_[_rID].pot = (_eth.mul(sub_round_subpot_ration)/100).add(sub_round_[_rID].pot);\n            // 3% \n            _opeAmount.devFund = _opeAmount.devFund.add(_eth.mul(sub_round_developer_ration)/100);\n            // 1% \n            _opeAmount.fees = _opeAmount.fees.add(_eth.mul(sub_round_fee_ration)/100);\n\n            // UserAmount\n            userAmounts_[_player].totalKeys = userAmounts_[_player].totalKeys.add(_keys); // \n            userAmounts_[_player].totalBet = userAmounts_[_player].totalBet.add(_eth);    // eth\n            userAmounts_[_player].lastKeys = _keys;      // \n            userAmounts_[_player].lastBet = _eth;         // eth\n            // \n            sub_round_[_rID].plyr = _player;\n\n            // \n            updateSubTimer(_keys, _rID);\n\n            // \n        } \n        // sub_round\n        else \n            buyEndSub(_rID, _player, _eth);\n    }\n\n    function buyEndSub(uint256 _rID, address _player, uint256 _eth) \n        private\n    {\n        endSub(_rID);\n        // \n        mainPlayerRounds_[_player][main_round_id_].withdrawAble = mainPlayerRounds_[_player][main_round_id_].withdrawAble.add(_eth);\n    }\n\n    function endSub(uint256 _rID) \n        private\n    {\n        isSubRoundStart = false;\n        address _winer = sub_round_[_rID].plyr;\n        uint256 _win_eth = mainPlayerRounds_[_winer][main_round_id_].withdrawAble.add(sub_round_[_rID].pot);\n        mainPlayerRounds_[_winer][main_round_id_].withdrawAble = _win_eth;\n        sub_round_[_rID].ended = true;\n        sub_round_[_rID].strt = sub_round_[_rID].end;\n        mainRestore(sub_round_[_rID].subTime, sub_round_[_rID].keys);\n    }\n\n    // \n    function checkStopSubRnd() \n        private \n    {\n        if (isSubRoundStart) \n        {\n            uint256 _rID = sub_round_id_;\n            uint256 _now = now;\n            if (_now > sub_round_[_rID].strt && (_now <= sub_round_[_rID].end)) \n                _now = _now;\n            else\n                endSub(_rID);\n        }\n    }\n\n    // \n    function mainRestore(uint256 _subTime, uint256 _seconds)\n        private \n    {\n        uint256 _rID = main_round_id_;\n        uint256 _sub_rID = sub_round_id_;\n        // \n        main_round_[_rID].end = main_round_[_rID].end.add(_subTime);\n        // \n        main_round_[_rID].end = main_round_[_rID].end.sub(_seconds);\n        // \n        if (main_round_[_rID].end.sub(main_round_[_rID].strt) <= 0) {\n            MyFomoDataSet.EventReturns memory _eventData_;\n            _eventData_ = endMainRound(_eventData_);\n            emit onMainAndSubStop(\n                sub_round_[_sub_rID].plyr,\n                users_[addrUids_[sub_round_[_sub_rID].plyr]].name,\n                sub_round_[_sub_rID].pot, \n                _eventData_.winnerAddr,\n                _eventData_.winnerName,\n                _eventData_.newPot\n            );\n        }\n        else {\n            emit onMainRestartSubStop(\n                _rID, main_round_[_rID].strt, main_round_[_rID].end, main_round_[_rID].keys,\n                main_round_[_rID].eth, main_round_[_rID].pot, _sub_rID, \n                sub_round_[_sub_rID].strt, sub_round_[_sub_rID].end, sub_round_[_sub_rID].keys,\n                sub_round_[_sub_rID].eth, sub_round_[_sub_rID].pot\n            );\n        }\n    }\n\n    /**\n     * @dev updates round timer based on number of whole keys bought.\n     */\n    function updateTimer(uint256 _keys, uint256 _rID)\n        private\n    {\n        // grab time\n        uint256 _now = now;\n        \n        // calculate time based on number of keys bought\n        uint256 _newTime;\n        if (_now > main_round_[_rID].end && main_round_[_rID].plyr == 0)\n            _newTime = (((_keys) / (1000000000000000000)).mul(rndInc_)).add(_now);\n        else\n            _newTime = (((_keys) / (1000000000000000000)).mul(rndInc_)).add(main_round_[_rID].end);\n        \n        // compare to max and set new end time\n        if (_newTime < (rndMax_).add(_now))\n            main_round_[_rID].end = _newTime;\n        else\n            main_round_[_rID].end = main_round_[_rID].strt.add(_now);\n            // main_round_[_rID].end = main_round_.add(_now); ??\n    }\n\n    // \n    function updateSubTimer(uint256 _keys, uint256 _rID)\n        private\n    {\n        // calculate time based on number of keys bought\n        uint256 _newTime = sub_round_[_rID].strt.add((((_keys) / (1000000000000000000)).mul(subRndDesc_)));\n        uint256 _now = now;\n        sub_round_[_rID].subTime = sub_round_[_rID].subTime.add(_now.sub(sub_round_[_rID].strt));\n        // compare to max and set new end time\n        if (_newTime.add(subRndMax_) >= sub_round_[_rID].end) \n            endSub(_rID);\n        else\n            sub_round_[_rID].strt = _newTime;\n    }\n\n     /**\n     * @dev \n     */\n    function endMainRound(MyFomoDataSet.EventReturns memory _eventData_)\n        private\n        returns (MyFomoDataSet.EventReturns)\n    {\n        // ID\n        uint256 _rID = main_round_id_;\n        main_round_[_rID].ended = true;\n        \n        // \n        address _winAddress = main_round_[_rID].plyr;\n        bytes32 _winName = users_[addrUids_[_winAddress]].name;\n        \n        // \n        uint256 _pot = main_round_[_rID].pot;\n        \n        // \n        // 2% 48% 20%30% \n        uint256 _win = (_pot.mul(48)) / 100; // \n        uint256 _dev = (_pot.mul(2)) / 100; // \n        uint256 _nexPot = (_pot.mul(20)/100); /// \n        uint256 _keyPlr = (_pot.mul(30)/100); /// \n        \n        // key\n        uint256 _ppt = _keyPlr / (main_round_[_rID].keys);\n        \n        // \n        userAmounts_[_winAddress].totalBalance = userAmounts_[_winAddress].totalBalance.add(_win); // \n        userAmounts_[_winAddress].withdrawAble = userAmounts_[_winAddress].withdrawAble.add(_win); // \n\n        // \n        _opeAmount.devFund = _opeAmount.devFund.add(_dev);\n        \n        // key\n        main_round_[_rID].mask = _ppt.add(main_round_[_rID].mask);\n        \n        // prepare event data;\n        _eventData_.winnerAddr = _winAddress;\n        _eventData_.winnerName = _winName;\n        _eventData_.amountWon = _win;\n        _eventData_.newPot = _nexPot;\n        \n        // start next round\n        main_round_id_++;\n        _rID++;\n        main_round_[_rID].strt = now;\n        main_round_[_rID].end = now.add(rndInit_);\n        main_round_[_rID].pot = _nexPot;\n        \n        return(_eventData_);\n    }\n\n\n    function withdrawEarnings(address _pID)\n        private\n        returns(uint256)\n    {\n        uint256 _rID = main_round_id_;\n        uint256 _bonusPerKey = main_round_[_rID].mask;\n        uint256 _dividend = _bonusPerKey.mul(mainPlayerRounds_[_pID][_rID].totalKeys).sub(mainPlayerRounds_[_pID][_rID].mask);\n        uint256 _bonus = _dividend.add(userAmounts_[_pID].withdrawAble);\n        mainPlayerRounds_[_pID][_rID].mask = _dividend.add(mainPlayerRounds_[_pID][_rID].mask);\n        userAmounts_[_pID].withdrawAble = 0;\n        userAmounts_[_pID].withdraw = _bonus.add(userAmounts_[_pID].withdraw);\n\n        return(_bonus);\n    }\n\n    //==============================================================================\n//    (~ _  _    _._|_    .\n//    _)(/_(_|_|| | | \\/  .\n//====================/=========================================================\n    /** upon contract deploy, it will be deactivated.  this is a one time\n     * use function that will activate the contract.  we do this so devs \n     * have time to set things up on the web end                           \n     **/\n    function activate()\n        public\n    {\n        // only team just can activate, now is rosten testnet address,now is deployer\n        // TODO:: add a list to manange\n        require(\n            msg.sender == 0xd0ec0703a5e2b347f573171b8862d014be8490d4,\n            \"only team just can activate\"\n        );\n        \n        // can only be ran once\n        require(activated_ == false, \"myfomo already activated\");\n        \n        // activate the contract \n        activated_ = true;\n        isSubRoundStart = false;\n        isMainRoundStop = false;\n\n        uint256 _now = now;\n        \n        // lets start first round\n        main_round_id_ = 1;\n        sub_round_id_ = 0;\n        main_round_[1].strt = _now + rndInit_;\n        main_round_[1].end = _now + rndInit_ + rndMax_;\n    }\n\n    function activateSubRound()\n        public\n    {\n        // only team just can activate, now is rosten testnet address,now is deployer\n        // TODO:: add a list to manange\n        require(\n            msg.sender == 0xd0ec0703a5e2b347f573171b8862d014be8490d4,\n            \"only team just can activate\"\n        );\n        \n        // can only be ran once\n        require(isSubRoundStart == false, \"subround already started\");\n        \n        // activate the contract \n        isMainRoundStop = true;\n        isSubRoundStart = true;\n\n        uint256 _now = now;\n        \n        // lets start first round\n        sub_round_id_++;\n        sub_round_[sub_round_id_].strt = _now;\n        sub_round_[sub_round_id_].end = _now + subRndMax_;\n    }\n\n}\n",
  "sourcePath": "/Users/jazz/Desktop/proj/DApp/MyFomo/contracts/MyFomo.sol",
  "compiler": {
    "name": "solc",
    "version": "0.4.24+commit.e67f0147.Emscripten.clang"
  },
  "schemaVersion": "2.0.1",
  "updatedAt": "2018-09-07T15:22:21.840Z"
}