{
  "contractName": "MyFomo",
  "abi": [
    {
      "constant": true,
      "inputs": [
        {
          "name": "",
          "type": "bytes32"
        }
      ],
      "name": "nameAddr_",
      "outputs": [
        {
          "name": "",
          "type": "address"
        }
      ],
      "payable": false,
      "stateMutability": "view",
      "type": "function"
    },
    {
      "constant": true,
      "inputs": [
        {
          "name": "",
          "type": "address"
        }
      ],
      "name": "userAmounts_",
      "outputs": [
        {
          "name": "totalKeys",
          "type": "uint256"
        },
        {
          "name": "totalBet",
          "type": "uint256"
        },
        {
          "name": "lastKeys",
          "type": "uint256"
        },
        {
          "name": "lastBet",
          "type": "uint256"
        },
        {
          "name": "totalBalance",
          "type": "uint256"
        },
        {
          "name": "withdrawAble",
          "type": "uint256"
        },
        {
          "name": "withdraw",
          "type": "uint256"
        },
        {
          "name": "totalProfit",
          "type": "uint256"
        },
        {
          "name": "inviteProfit",
          "type": "uint256"
        }
      ],
      "payable": false,
      "stateMutability": "view",
      "type": "function"
    },
    {
      "constant": true,
      "inputs": [
        {
          "name": "",
          "type": "uint256"
        }
      ],
      "name": "users_",
      "outputs": [
        {
          "name": "addr",
          "type": "address"
        },
        {
          "name": "name",
          "type": "bytes32"
        },
        {
          "name": "inviterName",
          "type": "bytes32"
        },
        {
          "name": "inviteNum",
          "type": "uint256"
        }
      ],
      "payable": false,
      "stateMutability": "view",
      "type": "function"
    },
    {
      "constant": true,
      "inputs": [
        {
          "name": "",
          "type": "address"
        }
      ],
      "name": "_admins",
      "outputs": [
        {
          "name": "",
          "type": "uint256"
        }
      ],
      "payable": false,
      "stateMutability": "view",
      "type": "function"
    },
    {
      "constant": true,
      "inputs": [
        {
          "name": "nameStr",
          "type": "string"
        }
      ],
      "name": "userExist",
      "outputs": [
        {
          "name": "",
          "type": "bool"
        }
      ],
      "payable": false,
      "stateMutability": "view",
      "type": "function"
    },
    {
      "constant": false,
      "inputs": [
        {
          "name": "nameStr",
          "type": "string"
        },
        {
          "name": "inviterStr",
          "type": "string"
        }
      ],
      "name": "registWithName",
      "outputs": [],
      "payable": true,
      "stateMutability": "payable",
      "type": "function"
    },
    {
      "constant": true,
      "inputs": [],
      "name": "_uid",
      "outputs": [
        {
          "name": "",
          "type": "uint256"
        }
      ],
      "payable": false,
      "stateMutability": "view",
      "type": "function"
    },
    {
      "constant": true,
      "inputs": [
        {
          "name": "",
          "type": "address"
        },
        {
          "name": "",
          "type": "uint256"
        }
      ],
      "name": "mainPlayerRounds_",
      "outputs": [
        {
          "name": "totalKeys",
          "type": "uint256"
        },
        {
          "name": "totalBet",
          "type": "uint256"
        },
        {
          "name": "totalBalance",
          "type": "uint256"
        },
        {
          "name": "dividend",
          "type": "uint256"
        },
        {
          "name": "withdrawAble",
          "type": "uint256"
        },
        {
          "name": "withdraw",
          "type": "uint256"
        },
        {
          "name": "mask",
          "type": "uint256"
        }
      ],
      "payable": false,
      "stateMutability": "view",
      "type": "function"
    },
    {
      "constant": false,
      "inputs": [
        {
          "name": "name",
          "type": "string"
        }
      ],
      "name": "getUserAmountByName",
      "outputs": [
        {
          "name": "",
          "type": "uint256"
        },
        {
          "name": "",
          "type": "uint256"
        },
        {
          "name": "",
          "type": "uint256"
        },
        {
          "name": "",
          "type": "uint256"
        },
        {
          "name": "",
          "type": "uint256"
        },
        {
          "name": "",
          "type": "uint256"
        },
        {
          "name": "",
          "type": "uint256"
        },
        {
          "name": "",
          "type": "uint256"
        },
        {
          "name": "",
          "type": "uint256"
        }
      ],
      "payable": false,
      "stateMutability": "nonpayable",
      "type": "function"
    },
    {
      "constant": false,
      "inputs": [
        {
          "name": "name",
          "type": "string"
        }
      ],
      "name": "getUserByName",
      "outputs": [
        {
          "name": "",
          "type": "address"
        },
        {
          "name": "",
          "type": "bytes32"
        },
        {
          "name": "",
          "type": "bytes32"
        },
        {
          "name": "",
          "type": "uint256"
        }
      ],
      "payable": false,
      "stateMutability": "nonpayable",
      "type": "function"
    },
    {
      "constant": true,
      "inputs": [
        {
          "name": "",
          "type": "address"
        }
      ],
      "name": "addrUids_",
      "outputs": [
        {
          "name": "",
          "type": "uint256"
        }
      ],
      "payable": false,
      "stateMutability": "view",
      "type": "function"
    },
    {
      "constant": true,
      "inputs": [
        {
          "name": "nameStr",
          "type": "string"
        }
      ],
      "name": "checkIfNameValid",
      "outputs": [
        {
          "name": "",
          "type": "bool"
        }
      ],
      "payable": false,
      "stateMutability": "view",
      "type": "function"
    },
    {
      "constant": false,
      "inputs": [
        {
          "name": "addr",
          "type": "address"
        }
      ],
      "name": "registWithAddr",
      "outputs": [],
      "payable": false,
      "stateMutability": "nonpayable",
      "type": "function"
    },
    {
      "constant": true,
      "inputs": [],
      "name": "main_round_id_",
      "outputs": [
        {
          "name": "",
          "type": "uint256"
        }
      ],
      "payable": false,
      "stateMutability": "view",
      "type": "function"
    },
    {
      "constant": true,
      "inputs": [
        {
          "name": "",
          "type": "address"
        },
        {
          "name": "",
          "type": "uint256"
        }
      ],
      "name": "subPlayerRounds_",
      "outputs": [
        {
          "name": "totalKeys",
          "type": "uint256"
        },
        {
          "name": "totalBet",
          "type": "uint256"
        },
        {
          "name": "totalBalance",
          "type": "uint256"
        },
        {
          "name": "dividend",
          "type": "uint256"
        },
        {
          "name": "withdrawAble",
          "type": "uint256"
        },
        {
          "name": "withdraw",
          "type": "uint256"
        },
        {
          "name": "mask",
          "type": "uint256"
        }
      ],
      "payable": false,
      "stateMutability": "view",
      "type": "function"
    },
    {
      "constant": false,
      "inputs": [
        {
          "name": "addr",
          "type": "address"
        }
      ],
      "name": "getUserAmountByAddr",
      "outputs": [
        {
          "name": "",
          "type": "uint256"
        },
        {
          "name": "",
          "type": "uint256"
        },
        {
          "name": "",
          "type": "uint256"
        },
        {
          "name": "",
          "type": "uint256"
        },
        {
          "name": "",
          "type": "uint256"
        },
        {
          "name": "",
          "type": "uint256"
        },
        {
          "name": "",
          "type": "uint256"
        },
        {
          "name": "",
          "type": "uint256"
        },
        {
          "name": "",
          "type": "uint256"
        }
      ],
      "payable": false,
      "stateMutability": "nonpayable",
      "type": "function"
    },
    {
      "constant": true,
      "inputs": [
        {
          "name": "",
          "type": "uint256"
        }
      ],
      "name": "main_round_",
      "outputs": [
        {
          "name": "plyr",
          "type": "address"
        },
        {
          "name": "strt",
          "type": "uint256"
        },
        {
          "name": "end",
          "type": "uint256"
        },
        {
          "name": "ended",
          "type": "bool"
        },
        {
          "name": "keys",
          "type": "uint256"
        },
        {
          "name": "eth",
          "type": "uint256"
        },
        {
          "name": "pot",
          "type": "uint256"
        },
        {
          "name": "dividend",
          "type": "uint256"
        },
        {
          "name": "mask",
          "type": "uint256"
        }
      ],
      "payable": false,
      "stateMutability": "view",
      "type": "function"
    },
    {
      "constant": true,
      "inputs": [],
      "name": "sub_round_id_",
      "outputs": [
        {
          "name": "",
          "type": "uint256"
        }
      ],
      "payable": false,
      "stateMutability": "view",
      "type": "function"
    },
    {
      "constant": true,
      "inputs": [
        {
          "name": "",
          "type": "uint256"
        }
      ],
      "name": "sub_round_",
      "outputs": [
        {
          "name": "plyr",
          "type": "address"
        },
        {
          "name": "strt",
          "type": "uint256"
        },
        {
          "name": "end",
          "type": "uint256"
        },
        {
          "name": "ended",
          "type": "bool"
        },
        {
          "name": "keys",
          "type": "uint256"
        },
        {
          "name": "eth",
          "type": "uint256"
        },
        {
          "name": "pot",
          "type": "uint256"
        },
        {
          "name": "dividend",
          "type": "uint256"
        },
        {
          "name": "mask",
          "type": "uint256"
        }
      ],
      "payable": false,
      "stateMutability": "view",
      "type": "function"
    },
    {
      "constant": true,
      "inputs": [],
      "name": "activated_",
      "outputs": [
        {
          "name": "",
          "type": "bool"
        }
      ],
      "payable": false,
      "stateMutability": "view",
      "type": "function"
    },
    {
      "constant": false,
      "inputs": [
        {
          "name": "addr",
          "type": "address"
        }
      ],
      "name": "getUserByAddr",
      "outputs": [
        {
          "name": "",
          "type": "address"
        },
        {
          "name": "",
          "type": "bytes32"
        },
        {
          "name": "",
          "type": "bytes32"
        },
        {
          "name": "",
          "type": "uint256"
        }
      ],
      "payable": false,
      "stateMutability": "nonpayable",
      "type": "function"
    },
    {
      "constant": true,
      "inputs": [],
      "name": "_opeAmount",
      "outputs": [
        {
          "name": "devFund",
          "type": "uint256"
        },
        {
          "name": "fees",
          "type": "uint256"
        }
      ],
      "payable": false,
      "stateMutability": "view",
      "type": "function"
    },
    {
      "anonymous": false,
      "inputs": [
        {
          "indexed": false,
          "name": "mainRound",
          "type": "uint256"
        },
        {
          "indexed": false,
          "name": "mainRoundStartTime",
          "type": "uint256"
        },
        {
          "indexed": false,
          "name": "mainRoundEndTime",
          "type": "uint256"
        },
        {
          "indexed": false,
          "name": "mainRoundKey",
          "type": "uint256"
        },
        {
          "indexed": false,
          "name": "mainRoundeth",
          "type": "uint256"
        },
        {
          "indexed": false,
          "name": "mainRoundPot",
          "type": "uint256"
        },
        {
          "indexed": false,
          "name": "subRound",
          "type": "uint256"
        },
        {
          "indexed": false,
          "name": "subRoundStartTime",
          "type": "uint256"
        },
        {
          "indexed": false,
          "name": "subRoundEndTime",
          "type": "uint256"
        },
        {
          "indexed": false,
          "name": "subRoundKey",
          "type": "uint256"
        },
        {
          "indexed": false,
          "name": "subRoundeth",
          "type": "uint256"
        },
        {
          "indexed": false,
          "name": "subRoundPot",
          "type": "uint256"
        }
      ],
      "name": "onMainPauseSubStart",
      "type": "event"
    },
    {
      "anonymous": false,
      "inputs": [
        {
          "indexed": false,
          "name": "mainRound",
          "type": "uint256"
        },
        {
          "indexed": false,
          "name": "mainRoundStartTime",
          "type": "uint256"
        },
        {
          "indexed": false,
          "name": "mainRoundEndTime",
          "type": "uint256"
        },
        {
          "indexed": false,
          "name": "mainRoundKey",
          "type": "uint256"
        },
        {
          "indexed": false,
          "name": "mainRoundeth",
          "type": "uint256"
        },
        {
          "indexed": false,
          "name": "mainRoundPot",
          "type": "uint256"
        },
        {
          "indexed": false,
          "name": "subRound",
          "type": "uint256"
        },
        {
          "indexed": false,
          "name": "subRoundStartTime",
          "type": "uint256"
        },
        {
          "indexed": false,
          "name": "subRoundEndTime",
          "type": "uint256"
        },
        {
          "indexed": false,
          "name": "subRoundKey",
          "type": "uint256"
        },
        {
          "indexed": false,
          "name": "subRoundeth",
          "type": "uint256"
        },
        {
          "indexed": false,
          "name": "subRoundPot",
          "type": "uint256"
        }
      ],
      "name": "onMainRestartSubStop",
      "type": "event"
    },
    {
      "anonymous": false,
      "inputs": [
        {
          "indexed": false,
          "name": "timestamp",
          "type": "uint256"
        }
      ],
      "name": "onGameActive",
      "type": "event"
    },
    {
      "anonymous": false,
      "inputs": [
        {
          "indexed": true,
          "name": "uaddr",
          "type": "address"
        },
        {
          "indexed": true,
          "name": "uname",
          "type": "bytes32"
        },
        {
          "indexed": true,
          "name": "inviterAddr",
          "type": "address"
        },
        {
          "indexed": false,
          "name": "inviterName",
          "type": "bytes32"
        },
        {
          "indexed": false,
          "name": "isNewPlayer",
          "type": "bool"
        },
        {
          "indexed": false,
          "name": "timeStamp",
          "type": "uint256"
        }
      ],
      "name": "onNewUser",
      "type": "event"
    },
    {
      "anonymous": false,
      "inputs": [
        {
          "indexed": true,
          "name": "uaddr",
          "type": "address"
        },
        {
          "indexed": true,
          "name": "uname",
          "type": "address"
        },
        {
          "indexed": true,
          "name": "inviterAddr",
          "type": "address"
        },
        {
          "indexed": false,
          "name": "inviterName",
          "type": "address"
        },
        {
          "indexed": false,
          "name": "roundId",
          "type": "uint256"
        },
        {
          "indexed": false,
          "name": "keyNum",
          "type": "uint256"
        },
        {
          "indexed": false,
          "name": "payed",
          "type": "uint256"
        },
        {
          "indexed": false,
          "name": "total",
          "type": "uint256"
        },
        {
          "indexed": false,
          "name": "dividend",
          "type": "uint256"
        },
        {
          "indexed": false,
          "name": "winerBonus",
          "type": "uint256"
        },
        {
          "indexed": false,
          "name": "winerkeys",
          "type": "uint256"
        },
        {
          "indexed": false,
          "name": "timeStamp",
          "type": "uint256"
        }
      ],
      "name": "onUserBuy",
      "type": "event"
    },
    {
      "anonymous": false,
      "inputs": [
        {
          "indexed": false,
          "name": "playerAddress",
          "type": "address"
        },
        {
          "indexed": false,
          "name": "playerName",
          "type": "bytes32"
        },
        {
          "indexed": false,
          "name": "ethOut",
          "type": "uint256"
        },
        {
          "indexed": false,
          "name": "timeStamp",
          "type": "uint256"
        }
      ],
      "name": "onWithdraw",
      "type": "event"
    },
    {
      "anonymous": false,
      "inputs": [
        {
          "indexed": false,
          "name": "playerAddress",
          "type": "address"
        },
        {
          "indexed": false,
          "name": "playerName",
          "type": "bytes32"
        },
        {
          "indexed": false,
          "name": "ethOut",
          "type": "uint256"
        },
        {
          "indexed": false,
          "name": "winnerAddr",
          "type": "address"
        },
        {
          "indexed": false,
          "name": "winnerName",
          "type": "bytes32"
        },
        {
          "indexed": false,
          "name": "amountWon",
          "type": "uint256"
        },
        {
          "indexed": false,
          "name": "newPot",
          "type": "uint256"
        }
      ],
      "name": "onWithdrawAndDistribute",
      "type": "event"
    },
    {
      "constant": false,
      "inputs": [
        {
          "name": "rId",
          "type": "uint256"
        },
        {
          "name": "keyNum",
          "type": "uint256"
        }
      ],
      "name": "buy",
      "outputs": [],
      "payable": true,
      "stateMutability": "payable",
      "type": "function"
    },
    {
      "constant": false,
      "inputs": [
        {
          "name": "amount",
          "type": "uint256"
        }
      ],
      "name": "withdraw",
      "outputs": [],
      "payable": true,
      "stateMutability": "payable",
      "type": "function"
    },
    {
      "constant": true,
      "inputs": [
        {
          "name": "name",
          "type": "string"
        }
      ],
      "name": "getUserRndAmountByName",
      "outputs": [
        {
          "name": "",
          "type": "uint256"
        },
        {
          "name": "",
          "type": "uint256"
        },
        {
          "name": "",
          "type": "uint256"
        },
        {
          "name": "",
          "type": "uint256"
        },
        {
          "name": "",
          "type": "uint256"
        },
        {
          "name": "",
          "type": "uint256"
        },
        {
          "name": "",
          "type": "uint256"
        },
        {
          "name": "",
          "type": "uint256"
        },
        {
          "name": "",
          "type": "uint256"
        }
      ],
      "payable": false,
      "stateMutability": "view",
      "type": "function"
    },
    {
      "constant": true,
      "inputs": [
        {
          "name": "addr",
          "type": "address"
        }
      ],
      "name": "getUserRndAmountByAddr",
      "outputs": [
        {
          "name": "",
          "type": "uint256"
        },
        {
          "name": "",
          "type": "uint256"
        },
        {
          "name": "",
          "type": "uint256"
        },
        {
          "name": "",
          "type": "uint256"
        },
        {
          "name": "",
          "type": "uint256"
        },
        {
          "name": "",
          "type": "uint256"
        },
        {
          "name": "",
          "type": "uint256"
        },
        {
          "name": "",
          "type": "uint256"
        },
        {
          "name": "",
          "type": "uint256"
        }
      ],
      "payable": false,
      "stateMutability": "view",
      "type": "function"
    },
    {
      "constant": true,
      "inputs": [],
      "name": "getBuyPrice",
      "outputs": [
        {
          "name": "",
          "type": "uint256"
        }
      ],
      "payable": false,
      "stateMutability": "view",
      "type": "function"
    },
    {
      "constant": true,
      "inputs": [],
      "name": "getMainRoundTimeLeft",
      "outputs": [
        {
          "name": "",
          "type": "uint256"
        }
      ],
      "payable": false,
      "stateMutability": "view",
      "type": "function"
    },
    {
      "constant": true,
      "inputs": [],
      "name": "getCurrentMainRoundInfo",
      "outputs": [
        {
          "name": "",
          "type": "uint256"
        },
        {
          "name": "",
          "type": "uint256"
        },
        {
          "name": "",
          "type": "uint256"
        },
        {
          "name": "",
          "type": "uint256"
        },
        {
          "name": "",
          "type": "uint256"
        },
        {
          "name": "",
          "type": "uint256"
        },
        {
          "name": "",
          "type": "uint256"
        }
      ],
      "payable": false,
      "stateMutability": "view",
      "type": "function"
    },
    {
      "constant": true,
      "inputs": [],
      "name": "getSubRoundTimeLeft",
      "outputs": [
        {
          "name": "",
          "type": "uint256"
        }
      ],
      "payable": false,
      "stateMutability": "view",
      "type": "function"
    },
    {
      "constant": true,
      "inputs": [],
      "name": "getCurrentSubRoundInfo",
      "outputs": [
        {
          "name": "",
          "type": "uint256"
        },
        {
          "name": "",
          "type": "uint256"
        },
        {
          "name": "",
          "type": "uint256"
        },
        {
          "name": "",
          "type": "uint256"
        },
        {
          "name": "",
          "type": "uint256"
        },
        {
          "name": "",
          "type": "uint256"
        },
        {
          "name": "",
          "type": "uint256"
        }
      ],
      "payable": false,
      "stateMutability": "view",
      "type": "function"
    },
    {
      "constant": false,
      "inputs": [],
      "name": "activate",
      "outputs": [],
      "payable": false,
      "stateMutability": "nonpayable",
      "type": "function"
    }
  ],
  "bytecode": "0x60806040526000600860006101000a81548160ff0219169083151502179055506001600860016101000a81548160ff0219169083151502179055506000600860026101000a81548160ff0219169083151502179055506001600381905550615cd28061006c6000396000f300608060405260043610610196576000357c0100000000000000000000000000000000000000000000000000000000900463ffffffff168063018a25e81461019b5780630917ccad146101c65780630c92db91146102375780630cde7b7f146102c65780630d5e2053146103585780630f15f4c0146103af5780631b81e2d2146103c657806325dd24e7146104475780632a2f19b2146104e95780632e1a7d4d1461051457806338e2e753146105345780633d30cacd1461055f5780633e945ea1146105b4578063434b5b3c1461063f57806345b4e592146106f45780634bff5009146107a957806359740e86146108775780636c52660d146108ce57806388a50bbe1461094f5780638c967d1a146109925780639406d07414610a21578063aa60288f14610a4c578063b9005c4c14610ad7578063bacaa37614610b66578063bceb9e1d14610c0f578063c68c5f2014610c3a578063c8bb104614610ce3578063cfa5c98114610d38578063d53b267914610d63578063d6febde814610d92578063f16e4e4614610dbc578063fd75c71f14610e64575b600080fd5b3480156101a757600080fd5b506101b0610e96565b6040518082815260200191505060405180910390f35b3480156101d257600080fd5b506101f56004803603810190808035600019169060200190929190505050610fbc565b604051808273ffffffffffffffffffffffffffffffffffffffff1673ffffffffffffffffffffffffffffffffffffffff16815260200191505060405180910390f35b34801561024357600080fd5b50610278600480360381019080803573ffffffffffffffffffffffffffffffffffffffff169060200190929190505050610fef565b604051808a8152602001898152602001888152602001878152602001868152602001858152602001848152602001838152602001828152602001995050505050505050505060405180910390f35b3480156102d257600080fd5b506102f16004803603810190808035906020019092919050505061103d565b604051808573ffffffffffffffffffffffffffffffffffffffff1673ffffffffffffffffffffffffffffffffffffffff1681526020018460001916600019168152602001836000191660001916815260200182815260200194505050505060405180910390f35b34801561036457600080fd5b50610399600480360381019080803573ffffffffffffffffffffffffffffffffffffffff16906020019092919050505061108d565b6040518082815260200191505060405180910390f35b3480156103bb57600080fd5b506103c46110a5565b005b3480156103d257600080fd5b5061042d600480360381019080803590602001908201803590602001908080601f0160208091040260200160405190810160405280939291908181526020018383808284378201915050505050509192919290505050611379565b604051808215151515815260200191505060405180910390f35b6104e7600480360381019080803590602001908201803590602001908080601f0160208091040260200160405190810160405280939291908181526020018383808284378201915050505050509192919290803590602001908201803590602001908080601f01602080910402602001604051908101604052809392919081815260200183838082843782019150505050505091929192905050506113f5565b005b3480156104f557600080fd5b506104fe611507565b6040518082815260200191505060405180910390f35b61053260048036038101908080359060200190929190505050611559565b005b34801561054057600080fd5b50610549611a5d565b6040518082815260200191505060405180910390f35b34801561056b57600080fd5b50610574611a63565b6040518088815260200187815260200186815260200185815260200184815260200183815260200182815260200197505050505050505060405180910390f35b3480156105c057600080fd5b506105ff600480360381019080803573ffffffffffffffffffffffffffffffffffffffff16906020019092919080359060200190929190505050611b17565b6040518088815260200187815260200186815260200185815260200184815260200183815260200182815260200197505050505050505060405180910390f35b34801561064b57600080fd5b506106a6600480360381019080803590602001908201803590602001908080601f0160208091040260200160405190810160405280939291908181526020018383808284378201915050505050509192919290505050611b66565b604051808a8152602001898152602001888152602001878152602001868152602001858152602001848152602001838152602001828152602001995050505050505050505060405180910390f35b34801561070057600080fd5b5061075b600480360381019080803590602001908201803590602001908080601f0160208091040260200160405190810160405280939291908181526020018383808284378201915050505050509192919290505050611d10565b604051808a8152602001898152602001888152602001878152602001868152602001858152602001848152602001838152602001828152602001995050505050505050505060405180910390f35b3480156107b557600080fd5b50610810600480360381019080803590602001908201803590602001908080601f0160208091040260200160405190810160405280939291908181526020018383808284378201915050505050509192919290505050611e82565b604051808573ffffffffffffffffffffffffffffffffffffffff1673ffffffffffffffffffffffffffffffffffffffff1681526020018460001916600019168152602001836000191660001916815260200182815260200194505050505060405180910390f35b34801561088357600080fd5b506108b8600480360381019080803573ffffffffffffffffffffffffffffffffffffffff16906020019092919050505061202e565b6040518082815260200191505060405180910390f35b3480156108da57600080fd5b50610935600480360381019080803590602001908201803590602001908080601f0160208091040260200160405190810160405280939291908181526020018383808284378201915050505050509192919290505050612046565b604051808215151515815260200191505060405180910390f35b34801561095b57600080fd5b50610990600480360381019080803573ffffffffffffffffffffffffffffffffffffffff1690602001909291905050506120c2565b005b34801561099e57600080fd5b506109d3600480360381019080803573ffffffffffffffffffffffffffffffffffffffff16906020019092919050505061219b565b604051808a8152602001898152602001888152602001878152602001868152602001858152602001848152602001838152602001828152602001995050505050505050505060405180910390f35b348015610a2d57600080fd5b50610a366121be565b6040518082815260200191505060405180910390f35b348015610a5857600080fd5b50610a97600480360381019080803573ffffffffffffffffffffffffffffffffffffffff169060200190929190803590602001909291905050506121c4565b6040518088815260200187815260200186815260200185815260200184815260200183815260200182815260200197505050505050505060405180910390f35b348015610ae357600080fd5b50610b18600480360381019080803573ffffffffffffffffffffffffffffffffffffffff169060200190929190505050612213565b604051808a8152602001898152602001888152602001878152602001868152602001858152602001848152602001838152602001828152602001995050505050505050505060405180910390f35b348015610b7257600080fd5b50610b91600480360381019080803590602001909291905050506123b5565b604051808a73ffffffffffffffffffffffffffffffffffffffff1673ffffffffffffffffffffffffffffffffffffffff16815260200189815260200188815260200187151515158152602001868152602001858152602001848152602001838152602001828152602001995050505050505050505060405180910390f35b348015610c1b57600080fd5b50610c24612430565b6040518082815260200191505060405180910390f35b348015610c4657600080fd5b50610c6560048036038101908080359060200190929190505050612436565b604051808a73ffffffffffffffffffffffffffffffffffffffff1673ffffffffffffffffffffffffffffffffffffffff16815260200189815260200188815260200187151515158152602001868152602001858152602001848152602001838152602001828152602001995050505050505050505060405180910390f35b348015610cef57600080fd5b50610cf86124b1565b6040518088815260200187815260200186815260200185815260200184815260200183815260200182815260200197505050505050505060405180910390f35b348015610d4457600080fd5b50610d4d612565565b6040518082815260200191505060405180910390f35b348015610d6f57600080fd5b50610d786125ca565b604051808215151515815260200191505060405180910390f35b610dba60048036038101908080359060200190929190803590602001909291905050506125dd565b005b348015610dc857600080fd5b50610dfd600480360381019080803573ffffffffffffffffffffffffffffffffffffffff169060200190929190505050612844565b604051808573ffffffffffffffffffffffffffffffffffffffff1673ffffffffffffffffffffffffffffffffffffffff1681526020018460001916600019168152602001836000191660001916815260200182815260200194505050505060405180910390f35b348015610e7057600080fd5b50610e796129e8565b604051808381526020018281526020019250505060405180910390f35b6000806000600d549150429050600960008381526020019081526020016000206001015481118015610f565750600960008381526020019081526020016000206002015481111580610f555750600960008381526020019081526020016000206002015481118015610f54575060006009600084815260200190815260200160002060000160009054906101000a900473ffffffffffffffffffffffffffffffffffffffff1673ffffffffffffffffffffffffffffffffffffffff16145b5b5b15610fad57610fa6670de0b6b3a7640000610f98670de0b6b3a764000060096000878152602001908152602001600020600401546129fa90919063ffffffff16565b612a8290919063ffffffff16565b9250610fb7565b6544364c5bb00092505b505090565b60066020528060005260406000206000915054906101000a900473ffffffffffffffffffffffffffffffffffffffff1681565b60026020528060005260406000206000915090508060000154908060010154908060020154908060030154908060040154908060050154908060060154908060070154908060080154905089565b60046020528060005260406000206000915090508060000160009054906101000a900473ffffffffffffffffffffffffffffffffffffffff16908060010154908060020154908060030154905084565b60076020528060005260406000206000915090505481565b7318e90fc6f70344f53ebd4f6070bf6aa23e2d748c73ffffffffffffffffffffffffffffffffffffffff163373ffffffffffffffffffffffffffffffffffffffff1614806111325750738b4da1827932d71759687f925d17f81fc94e3a9d73ffffffffffffffffffffffffffffffffffffffff163373ffffffffffffffffffffffffffffffffffffffff16145b8061117c5750738e0d985f3ec1857bec39b76aaabdea6b31b67d5373ffffffffffffffffffffffffffffffffffffffff163373ffffffffffffffffffffffffffffffffffffffff16145b806111c65750737ac74fcc1a71b106f12c55ee8f802c9f672ce40c73ffffffffffffffffffffffffffffffffffffffff163373ffffffffffffffffffffffffffffffffffffffff16145b80611210575073f39e044e1ab204460e06e87c6dca2c6319fc69e373ffffffffffffffffffffffffffffffffffffffff163373ffffffffffffffffffffffffffffffffffffffff16145b1515611284576040517f08c379a000000000000000000000000000000000000000000000000000000000815260040180806020018281038252601b8152602001807f6f6e6c79207465616d206a7573742063616e206163746976617465000000000081525060200191505060405180910390fd5b60001515600860009054906101000a900460ff16151514151561130f576040517f08c379a00000000000000000000000000000000000000000000000000000000081526004018080602001828103825260188152602001807f6d79666f6d6f20616c726561647920616374697661746564000000000000000081525060200191505060405180910390fd5b6001600860006101000a81548160ff0219169083151502179055506001600d81905550610e10420160096000600181526020019081526020016000206001018190555062015180610e10420101600960006001815260200190815260200160002060020181905550565b60008061138583612ac1565b9050600060066000836000191660001916815260200190815260200160002060009054906101000a900473ffffffffffffffffffffffffffffffffffffffff1673ffffffffffffffffffffffffffffffffffffffff1614156113ea57600191506113ef565b600091505b50919050565b6000806000806000339150813b905060008114151561147c576040517f08c379a00000000000000000000000000000000000000000000000000000000081526004018080602001828103825260118152602001807f736f7272792068756d616e73206f6e6c7900000000000000000000000000000081525060200191505060405180910390fd5b61148587612046565b156114fe5761149387612ac1565b945061149e86612ac1565b9350600092506000600560003373ffffffffffffffffffffffffffffffffffffffff1673ffffffffffffffffffffffffffffffffffffffff1681526020019081526020016000205414156114f157600192505b6114fd33868686613a43565b5b50505050505050565b6000611511613ecb565b611554600a6000600e54815260200190815260200160002060010154600a6000600e54815260200190815260200160002060020154613f4290919063ffffffff16565b905090565b600080600080611567615bcb565b600080339150813b90506000811415156115e9576040517f08c379a00000000000000000000000000000000000000000000000000000000081526004018080602001828103825260118152602001807f736f7272792068756d616e73206f6e6c7900000000000000000000000000000081525060200191505060405180910390fd5b60011515600860009054906101000a900460ff16151514151561169a576040517f08c379a00000000000000000000000000000000000000000000000000000000081526004018080602001828103825260298152602001807f697473206e6f74207265616479207965742e2020636865636b203f657461206981526020017f6e20646973636f7264000000000000000000000000000000000000000000000081525060400191505060405180910390fd5b600d5496504295503394506009600088815260200190815260200160002060020154861180156116f15750600015156009600089815260200190815260200160002060030160009054906101000a900460ff161515145b801561174a575060006009600089815260200190815260200160002060000160009054906101000a900473ffffffffffffffffffffffffffffffffffffffff1673ffffffffffffffffffffffffffffffffffffffff1614155b1561191e5760016009600089815260200190815260200160002060030160006101000a81548160ff02191690831515021790555061178783613fc7565b9250611792856143c0565b935060008411156117e5578473ffffffffffffffffffffffffffffffffffffffff166108fc859081150290604051600060405180830381858888f193505050501580156117e3573d6000803e3d6000fd5b505b7fac89a11b1d62d63e9fadac3ff923d56c2aeabc5379d86d73d25761f1c37d07d73360046000600560008a73ffffffffffffffffffffffffffffffffffffffff1673ffffffffffffffffffffffffffffffffffffffff16815260200190815260200160002054815260200190815260200160002060010154868660000151876020015188604001518960600151604051808873ffffffffffffffffffffffffffffffffffffffff1673ffffffffffffffffffffffffffffffffffffffff16815260200187600019166000191681526020018681526020018573ffffffffffffffffffffffffffffffffffffffff1673ffffffffffffffffffffffffffffffffffffffff168152602001846000191660001916815260200183815260200182815260200197505050505050505060405180910390a1611a53565b611927856143c0565b9350600084111561197a578473ffffffffffffffffffffffffffffffffffffffff166108fc859081150290604051600060405180830381858888f19350505050158015611978573d6000803e3d6000fd5b505b7f5c3e0d850454c6d76e1928437d212b0a5d43d941ca80a352afd54c4024b53c323360046000600560008a73ffffffffffffffffffffffffffffffffffffffff1673ffffffffffffffffffffffffffffffffffffffff168152602001908152602001600020548152602001908152602001600020600101548689604051808573ffffffffffffffffffffffffffffffffffffffff1673ffffffffffffffffffffffffffffffffffffffff168152602001846000191660001916815260200183815260200182815260200194505050505060405180910390a15b5050505050505050565b60035481565b600080600080600080600080600e54905080600a600083815260200190815260200160002060010154600a600084815260200190815260200160002060020154600a600085815260200190815260200160002060040154600a600086815260200190815260200160002060050154600a600087815260200190815260200160002060060154600a60008881526020019081526020016000206007015497509750975097509750975097505090919293949596565b600b602052816000526040600020602052806000526040600020600091509150508060000154908060010154908060020154908060030154908060040154908060050154908060060154905087565b6000806000806000806000806000611b7c615c14565b61012060405190810160405280600081526020016000815260200160008152602001600081526020016000815260200160008152602001600081526020016000815260200160008152509050611bd18b611379565b15611cc2576002600060066000611be78f612ac1565b6000191660001916815260200190815260200160002060009054906101000a900473ffffffffffffffffffffffffffffffffffffffff1673ffffffffffffffffffffffffffffffffffffffff1673ffffffffffffffffffffffffffffffffffffffff1681526020019081526020016000206101206040519081016040529081600082015481526020016001820154815260200160028201548152602001600382015481526020016004820154815260200160058201548152602001600682015481526020016007820154815260200160088201548152505090505b806000015181602001518260400151836060015184608001518560a001518660c001518760e00151886101000151995099509950995099509950995099509950509193959799909294969850565b6000806000806000806000806000611d26615c14565b611d2e613ecb565b61012060405190810160405280600081526020016000815260200160008152602001600081526020016000815260200160008152602001600081526020016000815260200160008152509050611d838b611379565b15611e74576002600060066000611d998f612ac1565b6000191660001916815260200190815260200160002060009054906101000a900473ffffffffffffffffffffffffffffffffffffffff1673ffffffffffffffffffffffffffffffffffffffff1673ffffffffffffffffffffffffffffffffffffffff1681526020019081526020016000206101206040519081016040529081600082015481526020016001820154815260200160028201548152602001600382015481526020016004820154815260200160058201548152602001600682015481526020016007820154815260200160088201548152505090505b509193959799909294969850565b600080600080611e90615c61565b608060405190810160405280600073ffffffffffffffffffffffffffffffffffffffff168152602001600080191681526020016000801916815260200160008152509050611edd86612046565b1561200a57600460006005600060066000611ef78c612ac1565b6000191660001916815260200190815260200160002060009054906101000a900473ffffffffffffffffffffffffffffffffffffffff1673ffffffffffffffffffffffffffffffffffffffff1673ffffffffffffffffffffffffffffffffffffffff168152602001908152602001600020548152602001908152602001600020608060405190810160405290816000820160009054906101000a900473ffffffffffffffffffffffffffffffffffffffff1673ffffffffffffffffffffffffffffffffffffffff1673ffffffffffffffffffffffffffffffffffffffff16815260200160018201546000191660001916815260200160028201546000191660001916815260200160038201548152505090505b80600001518160200151826040015183606001519450945094509450509193509193565b60056020528060005260406000206000915090505481565b60008061205283612ac1565b9050600060066000836000191660001916815260200190815260200160002060009054906101000a900473ffffffffffffffffffffffffffffffffffffffff1673ffffffffffffffffffffffffffffffffffffffff1614156120b757600191506120bc565b600091505b50919050565b6000813b9050600081141515612140576040517f08c379a00000000000000000000000000000000000000000000000000000000081526004018080602001828103825260118152602001807f736f7272792068756d616e73206f6e6c7900000000000000000000000000000081525060200191505060405180910390fd5b6000600560008473ffffffffffffffffffffffffffffffffffffffff1673ffffffffffffffffffffffffffffffffffffffff16815260200190815260200160002054141561219757612196826000806001613a43565b5b5050565b60008060008060008060008060006121b1613ecb565b9193959799909294969850565b600d5481565b600c602052816000526040600020602052806000526040600020600091509150508060000154908060010154908060020154908060030154908060040154908060050154908060060154905087565b6000806000806000806000806000612229615c14565b610120604051908101604052806000815260200160008152602001600081526020016000815260200160008152602001600081526020016000815260200160008152602001600081525090506000600560008d73ffffffffffffffffffffffffffffffffffffffff1673ffffffffffffffffffffffffffffffffffffffff1681526020019081526020016000205414151561236757600260008c73ffffffffffffffffffffffffffffffffffffffff1673ffffffffffffffffffffffffffffffffffffffff1681526020019081526020016000206101206040519081016040529081600082015481526020016001820154815260200160028201548152602001600382015481526020016004820154815260200160058201548152602001600682015481526020016007820154815260200160088201548152505090505b806000015181602001518260400151836060015184608001518560a001518660c001518760e00151886101000151995099509950995099509950995099509950509193959799909294969850565b60096020528060005260406000206000915090508060000160009054906101000a900473ffffffffffffffffffffffffffffffffffffffff16908060010154908060020154908060030160009054906101000a900460ff16908060040154908060050154908060060154908060070154908060080154905089565b600e5481565b600a6020528060005260406000206000915090508060000160009054906101000a900473ffffffffffffffffffffffffffffffffffffffff16908060010154908060020154908060030160009054906101000a900460ff16908060040154908060050154908060060154908060070154908060080154905089565b600080600080600080600080600d5490508060096000838152602001908152602001600020600101546009600084815260200190815260200160002060020154600960008581526020019081526020016000206004015460096000868152602001908152602001600020600501546009600087815260200190815260200160002060060154600960008881526020019081526020016000206007015497509750975097509750975097505090919293949596565b6000806000600d54915042905060096000838152602001908152602001600020600201548110156125c0576125b9816009600085815260200190815260200160002060020154613f4290919063ffffffff16565b92506125c5565b600092505b505090565b600860009054906101000a900460ff1681565b600080339150813b905060008114151561265f576040517f08c379a00000000000000000000000000000000000000000000000000000000081526004018080602001828103825260118152602001807f736f7272792068756d616e73206f6e6c7900000000000000000000000000000081525060200191505060405180910390fd5b60011515600860009054906101000a900460ff161515141515612710576040517f08c379a00000000000000000000000000000000000000000000000000000000081526004018080602001828103825260298152602001807f697473206e6f74207265616479207965742e2020636865636b203f657461206981526020017f6e20646973636f7264000000000000000000000000000000000000000000000081525060400191505060405180910390fd5b34633b9aca0081101515156127b3576040517f08c379a00000000000000000000000000000000000000000000000000000000081526004018080602001828103825260218152602001807f706f636b6574206c696e743a206e6f7420612076616c69642063757272656e6381526020017f790000000000000000000000000000000000000000000000000000000000000081525060400191505060405180910390fd5b69152d02c7e14af68000008111151515612835576040517f08c379a000000000000000000000000000000000000000000000000000000000815260040180806020018281038252600e8152602001807f6e6f20766974616c696b2c206e6f00000000000000000000000000000000000081525060200191505060405180910390fd5b61283d6143c7565b5050505050565b600080600080612852615c61565b608060405190810160405280600073ffffffffffffffffffffffffffffffffffffffff1681526020016000801916815260200160008019168152602001600081525090506000600560008873ffffffffffffffffffffffffffffffffffffffff1673ffffffffffffffffffffffffffffffffffffffff168152602001908152602001600020541415156129c45760046000600560008973ffffffffffffffffffffffffffffffffffffffff1673ffffffffffffffffffffffffffffffffffffffff168152602001908152602001600020548152602001908152602001600020608060405190810160405290816000820160009054906101000a900473ffffffffffffffffffffffffffffffffffffffff1673ffffffffffffffffffffffffffffffffffffffff1673ffffffffffffffffffffffffffffffffffffffff16815260200160018201546000191660001916815260200160028201546000191660001916815260200160038201548152505090505b80600001518160200151826040015183606001519450945094509450509193509193565b60008060000154908060010154905082565b60008183019050828110151515612a79576040517f08c379a00000000000000000000000000000000000000000000000000000000081526004018080602001828103825260138152602001807f536166654d61746820616464206661696c65640000000000000000000000000081525060200191505060405180910390fd5b80905092915050565b6000612ab9612aa2612a9d8486613f4290919063ffffffff16565b6144cd565b612aab856144cd565b613f4290919063ffffffff16565b905092915050565b600060606000806000808694508451935060208411158015612ae35750600084115b1515612b7d576040517f08c379a000000000000000000000000000000000000000000000000000000000815260040180806020018281038252602a8152602001807f737472696e67206d757374206265206265747765656e203120616e642033322081526020017f636861726163746572730000000000000000000000000000000000000000000081525060400191505060405180910390fd5b60207f010000000000000000000000000000000000000000000000000000000000000002856000815181101515612bb057fe5b9060200101517f010000000000000000000000000000000000000000000000000000000000000090047f0100000000000000000000000000000000000000000000000000000000000000027effffffffffffffffffffffffffffffffffffffffffffffffffffffffffffff191614158015612ccb575060207f0100000000000000000000000000000000000000000000000000000000000000028560018603815181101515612c5b57fe5b9060200101517f010000000000000000000000000000000000000000000000000000000000000090047f0100000000000000000000000000000000000000000000000000000000000000027effffffffffffffffffffffffffffffffffffffffffffffffffffffffffffff191614155b1515612d65576040517f08c379a00000000000000000000000000000000000000000000000000000000081526004018080602001828103825260258152602001807f737472696e672063616e6e6f74207374617274206f7220656e6420776974682081526020017f737061636500000000000000000000000000000000000000000000000000000081525060400191505060405180910390fd5b60307f010000000000000000000000000000000000000000000000000000000000000002856000815181101515612d9857fe5b9060200101517f010000000000000000000000000000000000000000000000000000000000000090047f0100000000000000000000000000000000000000000000000000000000000000027effffffffffffffffffffffffffffffffffffffffffffffffffffffffffffff191614156130385760787f010000000000000000000000000000000000000000000000000000000000000002856001815181101515612e3e57fe5b9060200101517f010000000000000000000000000000000000000000000000000000000000000090047f0100000000000000000000000000000000000000000000000000000000000000027effffffffffffffffffffffffffffffffffffffffffffffffffffffffffffff191614151515612f21576040517f08c379a000000000000000000000000000000000000000000000000000000000815260040180806020018281038252601b8152602001807f737472696e672063616e6e6f742073746172742077697468203078000000000081525060200191505060405180910390fd5b60587f010000000000000000000000000000000000000000000000000000000000000002856001815181101515612f5457fe5b9060200101517f010000000000000000000000000000000000000000000000000000000000000090047f0100000000000000000000000000000000000000000000000000000000000000027effffffffffffffffffffffffffffffffffffffffffffffffffffffffffffff191614151515613037576040517f08c379a000000000000000000000000000000000000000000000000000000000815260040180806020018281038252601b8152602001807f737472696e672063616e6e6f742073746172742077697468203058000000000081525060200191505060405180910390fd5b5b600091505b838210156139b35760407f010000000000000000000000000000000000000000000000000000000000000002858381518110151561307757fe5b9060200101517f010000000000000000000000000000000000000000000000000000000000000090047f0100000000000000000000000000000000000000000000000000000000000000027effffffffffffffffffffffffffffffffffffffffffffffffffffffffffffff191611801561318d5750605b7f010000000000000000000000000000000000000000000000000000000000000002858381518110151561311e57fe5b9060200101517f010000000000000000000000000000000000000000000000000000000000000090047f0100000000000000000000000000000000000000000000000000000000000000027effffffffffffffffffffffffffffffffffffffffffffffffffffffffffffff1916105b1561328857602085838151811015156131a257fe5b9060200101517f010000000000000000000000000000000000000000000000000000000000000090047f0100000000000000000000000000000000000000000000000000000000000000027f01000000000000000000000000000000000000000000000000000000000000009004017f010000000000000000000000000000000000000000000000000000000000000002858381518110151561324157fe5b9060200101907effffffffffffffffffffffffffffffffffffffffffffffffffffffffffffff1916908160001a90535060001515831515141561328357600192505b6139a6565b60207f01000000000000000000000000000000000000000000000000000000000000000285838151811015156132ba57fe5b9060200101517f010000000000000000000000000000000000000000000000000000000000000090047f0100000000000000000000000000000000000000000000000000000000000000027effffffffffffffffffffffffffffffffffffffffffffffffffffffffffffff19161480613477575060607f010000000000000000000000000000000000000000000000000000000000000002858381518110151561336057fe5b9060200101517f010000000000000000000000000000000000000000000000000000000000000090047f0100000000000000000000000000000000000000000000000000000000000000027effffffffffffffffffffffffffffffffffffffffffffffffffffffffffffff19161180156134765750607b7f010000000000000000000000000000000000000000000000000000000000000002858381518110151561340757fe5b9060200101517f010000000000000000000000000000000000000000000000000000000000000090047f0100000000000000000000000000000000000000000000000000000000000000027effffffffffffffffffffffffffffffffffffffffffffffffffffffffffffff1916105b5b806135c65750602f7f01000000000000000000000000000000000000000000000000000000000000000285838151811015156134af57fe5b9060200101517f010000000000000000000000000000000000000000000000000000000000000090047f0100000000000000000000000000000000000000000000000000000000000000027effffffffffffffffffffffffffffffffffffffffffffffffffffffffffffff19161180156135c55750603a7f010000000000000000000000000000000000000000000000000000000000000002858381518110151561355657fe5b9060200101517f010000000000000000000000000000000000000000000000000000000000000090047f0100000000000000000000000000000000000000000000000000000000000000027effffffffffffffffffffffffffffffffffffffffffffffffffffffffffffff1916105b5b1515613660576040517f08c379a00000000000000000000000000000000000000000000000000000000081526004018080602001828103825260228152602001807f737472696e6720636f6e7461696e7320696e76616c696420636861726163746581526020017f727300000000000000000000000000000000000000000000000000000000000081525060400191505060405180910390fd5b60207f010000000000000000000000000000000000000000000000000000000000000002858381518110151561369257fe5b9060200101517f010000000000000000000000000000000000000000000000000000000000000090047f0100000000000000000000000000000000000000000000000000000000000000027effffffffffffffffffffffffffffffffffffffffffffffffffffffffffffff191614156138445760207f010000000000000000000000000000000000000000000000000000000000000002856001840181518110151561373a57fe5b9060200101517f010000000000000000000000000000000000000000000000000000000000000090047f0100000000000000000000000000000000000000000000000000000000000000027effffffffffffffffffffffffffffffffffffffffffffffffffffffffffffff191614151515613843576040517f08c379a00000000000000000000000000000000000000000000000000000000081526004018080602001828103825260288152602001807f737472696e672063616e6e6f7420636f6e7461696e20636f6e7365637574697681526020017f652073706163657300000000000000000000000000000000000000000000000081525060400191505060405180910390fd5b5b6000151583151514801561399b575060307f010000000000000000000000000000000000000000000000000000000000000002858381518110151561388557fe5b9060200101517f010000000000000000000000000000000000000000000000000000000000000090047f0100000000000000000000000000000000000000000000000000000000000000027effffffffffffffffffffffffffffffffffffffffffffffffffffffffffffff1916108061399a575060397f010000000000000000000000000000000000000000000000000000000000000002858381518110151561392b57fe5b9060200101517f010000000000000000000000000000000000000000000000000000000000000090047f0100000000000000000000000000000000000000000000000000000000000000027effffffffffffffffffffffffffffffffffffffffffffffffffffffffffffff1916115b5b156139a557600192505b5b818060010192505061303d565b60011515831515141515613a2f576040517f08c379a000000000000000000000000000000000000000000000000000000000815260040180806020018281038252601d8152602001807f737472696e672063616e6e6f74206265206f6e6c79206e756d6265727300000081525060200191505060405180910390fd5b602085015190508095505050505050919050565b6000600560008673ffffffffffffffffffffffffffffffffffffffff1673ffffffffffffffffffffffffffffffffffffffff1681526020019081526020016000205490508115613c1f57600354905060008460001916141515613afb578460066000866000191660001916815260200190815260200160002060006101000a81548173ffffffffffffffffffffffffffffffffffffffff021916908373ffffffffffffffffffffffffffffffffffffffff1602179055505b600354600560008773ffffffffffffffffffffffffffffffffffffffff1673ffffffffffffffffffffffffffffffffffffffff168152602001908152602001600020819055506080604051908101604052808673ffffffffffffffffffffffffffffffffffffffff168152602001856000191681526020018460001916815260200160008152506004600083815260200190815260200160002060008201518160000160006101000a81548173ffffffffffffffffffffffffffffffffffffffff021916908373ffffffffffffffffffffffffffffffffffffffff1602179055506020820151816001019060001916905560408201518160020190600019169055606082015181600301559050506001600360008282540192505081905550613cb8565b8460066000866000191660001916815260200190815260200160002060006101000a81548173ffffffffffffffffffffffffffffffffffffffff021916908373ffffffffffffffffffffffffffffffffffffffff16021790555083600460008381526020019081526020016000206001018160001916905550826004600083815260200190815260200160002060020181600019169055505b600060066000856000191660001916815260200190815260200160002060009054906101000a900473ffffffffffffffffffffffffffffffffffffffff1673ffffffffffffffffffffffffffffffffffffffff161415613d37576000600460008381526020019081526020016000206002018160001916905550613dd7565b6001600460006005600060066000896000191660001916815260200190815260200160002060009054906101000a900473ffffffffffffffffffffffffffffffffffffffff1673ffffffffffffffffffffffffffffffffffffffff1673ffffffffffffffffffffffffffffffffffffffff168152602001908152602001600020548152602001908152602001600020600301600082825401925050819055505b6006600060046000848152602001908152602001600020600201546000191660001916815260200190815260200160002060009054906101000a900473ffffffffffffffffffffffffffffffffffffffff1673ffffffffffffffffffffffffffffffffffffffff1684600019168673ffffffffffffffffffffffffffffffffffffffff167f2c484b021bde81945545322539f6af8dcf21328003d6994f7577ea9ad42100f76004600086815260200190815260200160002060020154864260405180846000191660001916815260200183151515158152602001828152602001935050505060405180910390a45050505050565b600080600860029054906101000a900460ff1615613f3e57600e549150429050600a60008381526020019081526020016000206001015481118015613f265750600a6000838152602001908152602001600020600201548111155b15613f3357809050613f3d565b613f3c82614560565b5b5b5050565b6000828211151515613fbc576040517f08c379a00000000000000000000000000000000000000000000000000000000081526004018080602001828103825260138152602001807f536166654d61746820737562206661696c65640000000000000000000000000081525060200191505060405180910390fd5b818303905092915050565b613fcf615bcb565b6000806000806000806000806000600d549850600960008a815260200190815260200160002060000160009054906101000a900473ffffffffffffffffffffffffffffffffffffffff16975060046000600560008b73ffffffffffffffffffffffffffffffffffffffff1673ffffffffffffffffffffffffffffffffffffffff168152602001908152602001600020548152602001908152602001600020600101549650600960008a815260200190815260200160002060060154955060646140a260308861471690919063ffffffff16565b8115156140ab57fe5b04945060646140c460028861471690919063ffffffff16565b8115156140cd57fe5b04935060646140e660148861471690919063ffffffff16565b8115156140ef57fe5b0492506064614108601e8861471690919063ffffffff16565b81151561411157fe5b049150600960008a8152602001908152602001600020600401548281151561413557fe5b04905061418d85600260008b73ffffffffffffffffffffffffffffffffffffffff1673ffffffffffffffffffffffffffffffffffffffff168152602001908152602001600020600401546129fa90919063ffffffff16565b600260008a73ffffffffffffffffffffffffffffffffffffffff1673ffffffffffffffffffffffffffffffffffffffff1681526020019081526020016000206004018190555061422885600260008b73ffffffffffffffffffffffffffffffffffffffff1673ffffffffffffffffffffffffffffffffffffffff168152602001908152602001600020600501546129fa90919063ffffffff16565b600260008a73ffffffffffffffffffffffffffffffffffffffff1673ffffffffffffffffffffffffffffffffffffffff168152602001908152602001600020600501819055506142858460008001546129fa90919063ffffffff16565b60008001819055506142b6600960008b815260200190815260200160002060080154826129fa90919063ffffffff16565b600960008b815260200190815260200160002060080181905550878b6000019073ffffffffffffffffffffffffffffffffffffffff16908173ffffffffffffffffffffffffffffffffffffffff1681525050868b602001906000191690816000191681525050848b6040018181525050828b6060018181525050600d60008154809291906001019190505550888060010199505042600960008b81526020019081526020016000206001018190555061437a610e10426129fa90919063ffffffff16565b600960008b81526020019081526020016000206002018190555082600960008b8152602001908152602001600020600601819055508a9950505050505050505050919050565b6000919050565b6000806000600d54925042915060096000848152602001908152602001600020600101548211801561448757506009600084815260200190815260200160002060020154821115806144865750600960008481526020019081526020016000206002015482118015614485575060006009600085815260200190815260200160002060000160009054906101000a900473ffffffffffffffffffffffffffffffffffffffff1673ffffffffffffffffffffffffffffffffffffffff16145b5b5b156144c757600860029054906101000a900460ff1615156144b1576144ac83346147ba565b6144c2565b600090506144c1600e5482615234565b5b6144c8565b5b505050565b60006144e0670de0b6b3a764000061589a565b61454f6002614518614503670de0b6b3a76400008761471690919063ffffffff16565b65886c8f67307061471690919063ffffffff16565b81151561452157fe5b0461454161452e8661589a565b6304a817c861471690919063ffffffff16565b6129fa90919063ffffffff16565b81151561455857fe5b049050919050565b6000806000600860026101000a81548160ff021916908315150217905550600a600084815260200190815260200160002060000160009054906101000a900473ffffffffffffffffffffffffffffffffffffffff169150614635600a600085815260200190815260200160002060060154600b60008573ffffffffffffffffffffffffffffffffffffffff1673ffffffffffffffffffffffffffffffffffffffff1681526020019081526020016000206000600d548152602001908152602001600020600401546129fa90919063ffffffff16565b905080600b60008473ffffffffffffffffffffffffffffffffffffffff1673ffffffffffffffffffffffffffffffffffffffff1681526020019081526020016000206000600d548152602001908152602001600020600401819055506001600a600085815260200190815260200160002060030160006101000a81548160ff021916908315150217905550600a600084815260200190815260200160002060020154600a60008581526020019081526020016000206001018190555061471183600a6000868152602001908152602001600020600401546158ad565b505050565b60008083141561472957600090506147b4565b818302905081838281151561473a57fe5b041415156147b0576040517f08c379a00000000000000000000000000000000000000000000000000000000081526004018080602001828103825260138152602001807f536166654d617468206d756c206661696c65640000000000000000000000000081525060200191505060405180910390fd5b8090505b92915050565b600080600080600080339550600094506001851015156148345785600960008a815260200190815260200160002060000160006101000a81548173ffffffffffffffffffffffffffffffffffffffff021916908373ffffffffffffffffffffffffffffffffffffffff16021790555061483385896158b1565b5b61489a600b60008873ffffffffffffffffffffffffffffffffffffffff1673ffffffffffffffffffffffffffffffffffffffff16815260200190815260200160002060008a815260200190815260200160002060000154866129fa90919063ffffffff16565b600b60008873ffffffffffffffffffffffffffffffffffffffff1673ffffffffffffffffffffffffffffffffffffffff16815260200190815260200160002060008a815260200190815260200160002060000181905550614957600b60008873ffffffffffffffffffffffffffffffffffffffff1673ffffffffffffffffffffffffffffffffffffffff16815260200190815260200160002060008a815260200190815260200160002060010154886129fa90919063ffffffff16565b600b60008873ffffffffffffffffffffffffffffffffffffffff1673ffffffffffffffffffffffffffffffffffffffff16815260200190815260200160002060008a8152602001908152602001600020600101819055506149d7600960008a815260200190815260200160002060040154866129fa90919063ffffffff16565b600960008a815260200190815260200160002060040181905550614a1a600960008a815260200190815260200160002060050154886129fa90919063ffffffff16565b600960008a815260200190815260200160002060050181905550614a7c600960008a8152602001908152602001600020600601546064614a64602b8b61471690919063ffffffff16565b811515614a6d57fe5b046129fa90919063ffffffff16565b600960008a8152602001908152602001600020600601819055506064614aac602b8961471690919063ffffffff16565b811515614ab557fe5b049350614ae184600960008b8152602001908152602001600020600701546129fa90919063ffffffff16565b600960008a815260200190815260200160002060070181905550614b89614b2786600960008c81526020019081526020016000206008015461471690919063ffffffff16565b600b60008973ffffffffffffffffffffffffffffffffffffffff1673ffffffffffffffffffffffffffffffffffffffff16815260200190815260200160002060008b8152602001908152602001600020600601546129fa90919063ffffffff16565b600b60008873ffffffffffffffffffffffffffffffffffffffff1673ffffffffffffffffffffffffffffffffffffffff16815260200190815260200160002060008a81526020019081526020016000206006018190555060046000600560008973ffffffffffffffffffffffffffffffffffffffff1673ffffffffffffffffffffffffffffffffffffffff1681526020019081526020016000205481526020019081526020016000206002015492506064614c4e600a8961471690919063ffffffff16565b811515614c5757fe5b04915060008360001916141515614f3e5760066000846000191660001916815260200190815260200160002060009054906101000a900473ffffffffffffffffffffffffffffffffffffffff169050614d0f600160046000600560008673ffffffffffffffffffffffffffffffffffffffff1673ffffffffffffffffffffffffffffffffffffffff168152602001908152602001600020548152602001908152602001600020600301546129fa90919063ffffffff16565b60046000600560008573ffffffffffffffffffffffffffffffffffffffff1673ffffffffffffffffffffffffffffffffffffffff16815260200190815260200160002054815260200190815260200160002060030181905550614dbd82600260008473ffffffffffffffffffffffffffffffffffffffff1673ffffffffffffffffffffffffffffffffffffffff168152602001908152602001600020600801546129fa90919063ffffffff16565b600260008373ffffffffffffffffffffffffffffffffffffffff1673ffffffffffffffffffffffffffffffffffffffff16815260200190815260200160002060080181905550614e5882600260008473ffffffffffffffffffffffffffffffffffffffff1673ffffffffffffffffffffffffffffffffffffffff168152602001908152602001600020600501546129fa90919063ffffffff16565b600260008373ffffffffffffffffffffffffffffffffffffffff1673ffffffffffffffffffffffffffffffffffffffff16815260200190815260200160002060050181905550614ef382600260008473ffffffffffffffffffffffffffffffffffffffff1673ffffffffffffffffffffffffffffffffffffffff168152602001908152602001600020600401546129fa90919063ffffffff16565b600260008373ffffffffffffffffffffffffffffffffffffffff1673ffffffffffffffffffffffffffffffffffffffff16815260200190815260200160002060040181905550614f5e565b614f558260008001546129fa90919063ffffffff16565b60008001819055505b614f946064614f7760038a61471690919063ffffffff16565b811515614f8057fe5b0460008001546129fa90919063ffffffff16565b6000800181905550614fd36064614fb560018a61471690919063ffffffff16565b811515614fbe57fe5b046000600101546129fa90919063ffffffff16565b60006001018190555061503185600260008973ffffffffffffffffffffffffffffffffffffffff1673ffffffffffffffffffffffffffffffffffffffff168152602001908152602001600020600001546129fa90919063ffffffff16565b600260008873ffffffffffffffffffffffffffffffffffffffff1673ffffffffffffffffffffffffffffffffffffffff168152602001908152602001600020600001819055506150cc87600260008973ffffffffffffffffffffffffffffffffffffffff1673ffffffffffffffffffffffffffffffffffffffff168152602001908152602001600020600101546129fa90919063ffffffff16565b600260008873ffffffffffffffffffffffffffffffffffffffff1673ffffffffffffffffffffffffffffffffffffffff1681526020019081526020016000206001018190555084600260008873ffffffffffffffffffffffffffffffffffffffff1673ffffffffffffffffffffffffffffffffffffffff168152602001908152602001600020600201819055600260008873ffffffffffffffffffffffffffffffffffffffff1673ffffffffffffffffffffffffffffffffffffffff1681526020019081526020016000206002018190555086600260008873ffffffffffffffffffffffffffffffffffffffff1673ffffffffffffffffffffffffffffffffffffffff168152602001908152602001600020600301819055600260008873ffffffffffffffffffffffffffffffffffffffff1673ffffffffffffffffffffffffffffffffffffffff168152602001908152602001600020600301819055505050505050505050565b600080600080339350349250429150600a6000878152602001908152602001600020600101548211801561527e5750600a6000878152602001908152602001600020600201548211155b15615885576152e9600c60008673ffffffffffffffffffffffffffffffffffffffff1673ffffffffffffffffffffffffffffffffffffffff168152602001908152602001600020600088815260200190815260200160002060000154866129fa90919063ffffffff16565b600c60008673ffffffffffffffffffffffffffffffffffffffff1673ffffffffffffffffffffffffffffffffffffffff1681526020019081526020016000206000888152602001908152602001600020600001819055506153a6600c60008673ffffffffffffffffffffffffffffffffffffffff1673ffffffffffffffffffffffffffffffffffffffff168152602001908152602001600020600088815260200190815260200160002060010154846129fa90919063ffffffff16565b600c60008673ffffffffffffffffffffffffffffffffffffffff1673ffffffffffffffffffffffffffffffffffffffff168152602001908152602001600020600088815260200190815260200160002060010181905550615426600a600088815260200190815260200160002060040154866129fa90919063ffffffff16565b600a600088815260200190815260200160002060040181905550615469600a600088815260200190815260200160002060050154846129fa90919063ffffffff16565b600a60008881526020019081526020016000206005018190555061548c846120c2565b600d5490506154d9600960008381526020019081526020016000206006015460646154c160388761471690919063ffffffff16565b8115156154ca57fe5b046129fa90919063ffffffff16565b600960008381526020019081526020016000206006018190555061553b600a600088815260200190815260200160002060060154606461552360388761471690919063ffffffff16565b81151561552c57fe5b046129fa90919063ffffffff16565b600a60008881526020019081526020016000206006018190555061558b606461556e60038661471690919063ffffffff16565b81151561557757fe5b0460008001546129fa90919063ffffffff16565b60008001819055506155ca60646155ac60018661471690919063ffffffff16565b8115156155b557fe5b046000600101546129fa90919063ffffffff16565b60006001018190555061562885600260008773ffffffffffffffffffffffffffffffffffffffff1673ffffffffffffffffffffffffffffffffffffffff168152602001908152602001600020600001546129fa90919063ffffffff16565b600260008673ffffffffffffffffffffffffffffffffffffffff1673ffffffffffffffffffffffffffffffffffffffff168152602001908152602001600020600001819055506156c383600260008773ffffffffffffffffffffffffffffffffffffffff1673ffffffffffffffffffffffffffffffffffffffff168152602001908152602001600020600101546129fa90919063ffffffff16565b600260008673ffffffffffffffffffffffffffffffffffffffff1673ffffffffffffffffffffffffffffffffffffffff1681526020019081526020016000206001018190555084600260008673ffffffffffffffffffffffffffffffffffffffff1673ffffffffffffffffffffffffffffffffffffffff168152602001908152602001600020600201819055600260008673ffffffffffffffffffffffffffffffffffffffff1673ffffffffffffffffffffffffffffffffffffffff1681526020019081526020016000206002018190555082600260008673ffffffffffffffffffffffffffffffffffffffff1673ffffffffffffffffffffffffffffffffffffffff168152602001908152602001600020600301819055600260008673ffffffffffffffffffffffffffffffffffffffff1673ffffffffffffffffffffffffffffffffffffffff1681526020019081526020016000206003018190555083600a600088815260200190815260200160002060000160006101000a81548173ffffffffffffffffffffffffffffffffffffffff021916908373ffffffffffffffffffffffffffffffffffffffff1602179055506158808587615a46565b615892565b61589186858786615afb565b5b505050505050565b60006158a68283614716565b9050919050565b5050565b600080429150600960008481526020019081526020016000206002015482118015615928575060006009600085815260200190815260200160002060000160009054906101000a900473ffffffffffffffffffffffffffffffffffffffff1673ffffffffffffffffffffffffffffffffffffffff16145b1561596d5761596682615958601e670de0b6b3a76400008881151561594957fe5b0461471690919063ffffffff16565b6129fa90919063ffffffff16565b90506159bf565b6159bc60096000858152602001908152602001600020600201546159ae601e670de0b6b3a76400008881151561599f57fe5b0461471690919063ffffffff16565b6129fa90919063ffffffff16565b90505b6159d582620151806129fa90919063ffffffff16565b8110156159fc57806009600085815260200190815260200160002060020181905550615a40565b615a258260096000868152602001908152602001600020600101546129fa90919063ffffffff16565b60096000858152602001908152602001600020600201819055505b50505050565b6000615a97615a726001670de0b6b3a764000086811515615a6357fe5b0461471690919063ffffffff16565b600a6000858152602001908152602001600020600101546129fa90919063ffffffff16565b9050600a600083815260200190815260200160002060020154615ac561012c836129fa90919063ffffffff16565b101515615ada57615ad582614560565b615af6565b80600a6000848152602001908152602001600020600101819055505b505050565b615b0484614560565b615b6c81600b60008673ffffffffffffffffffffffffffffffffffffffff1673ffffffffffffffffffffffffffffffffffffffff1681526020019081526020016000206000600d548152602001908152602001600020600401546129fa90919063ffffffff16565b600b60008573ffffffffffffffffffffffffffffffffffffffff1673ffffffffffffffffffffffffffffffffffffffff1681526020019081526020016000206000600d5481526020019081526020016000206004018190555050505050565b60a060405190810160405280600073ffffffffffffffffffffffffffffffffffffffff168152602001600080191681526020016000815260200160008152602001600081525090565b610120604051908101604052806000815260200160008152602001600081526020016000815260200160008152602001600081526020016000815260200160008152602001600081525090565b608060405190810160405280600073ffffffffffffffffffffffffffffffffffffffff16815260200160008019168152602001600080191681526020016000815250905600a165627a7a72305820d736f3c6cdacdf89a30a0ed36cf4c598e6e1e28cd09542dadb974b4d594645770029",
  "source": "pragma solidity ^0.4.23;\nimport \"./MyFomoDataSet.sol\";\n\nimport \"./library/SafeMath.sol\";\nimport \"./library/UintCompressor.sol\";\nimport \"./library/NameFilter.sol\";\nimport \"./library/UintCompressor.sol\";\nimport \"./library/KeysCalcLong.sol\";\n\nimport \"./UserCenter.sol\";\n\ncontract MyFomo is UserCenter {\n    using SafeMath for *;\n    using NameFilter for string;\n    using KeysCalcLong for uint256;\n\n    bool public activated_ = false;\n    bool isMainRoundStop = true;\n    bool isSubRoundStart = false;\n\n    uint256 constant private rndInit_ = 1 hours;                // round timer starts at this\n    uint256 constant private rndInc_ = 30 seconds;              // every full key purchased adds this much to the timer\n    uint256 constant private rndMax_ = 24 hours;                // max length a round timer can be\n    uint256 constant private subRndDesc_ = 1 seconds;       \n    uint256 constant private subRndMax_ = 300 seconds;       \n\n    // eth\n    uint256 constant private main_round_pot_ration = 43;           // 43%\n    uint256 constant private main_round_dividend_ration = 43;       // 43%\n    uint256 constant private main_round_inviter_ration = 10;        // 10,\n    uint256 constant private main_round_developer_ration = 3;       // 3%\n    uint256 constant private main_round_fee_ration = 1;             // 1% \n\n    // eth\n    uint256 constant private sub_round_pot_ration = 56;           // 56%\n    // uint256 constant private sub_round_dividend_ration = 23;       // 43%\n    uint256 constant private sub_round_subpot_ration = 40;        // 40,\n    uint256 constant private sub_round_developer_ration = 3;       // 3%\n    uint256 constant private sub_round_fee_ration = 1;             // 1% \n\n    mapping (uint256 => MyFomoDataSet.Round) public main_round_;   // (rID => data) round data\n    mapping (uint256 => MyFomoDataSet.Round) public sub_round_;   // (rID => data) round data \n\n    // (pID => rID => data) player round data by player id & round id\n    // addresspalyername\n    mapping (address => mapping (uint256 => MyFomoDataSet.PlayerAmount)) public mainPlayerRounds_;\n    // \n    mapping (address => mapping (uint256 => MyFomoDataSet.PlayerAmount)) public subPlayerRounds_;\n\n    uint256 public main_round_id_;    // round id number / total rounds that have happened\n    uint256 public sub_round_id_;    // round id number / total rounds that have happened\n\n    /**\n     * @dev  \n     * \n     */\n    modifier isActivated() {\n        require(activated_ == true, \"its not ready yet.  check ?eta in discord\"); \n        _;\n    }\n    \n    /**\n     * @dev prevents contracts from interacting with fomo3d \n     */\n    modifier isHuman() {\n        address _addr = msg.sender;\n        uint256 _codeLength;\n        \n        assembly {_codeLength := extcodesize(_addr)}\n        require(_codeLength == 0, \"sorry humans only\");\n        _;\n    }\n\n    /**\n     * @dev sets boundaries for incoming tx \n     */\n    modifier isWithinLimits(uint256 _eth) {\n        require(_eth >= 1000000000, \"pocket lint: not a valid currency\");\n        require(_eth <= 100000000000000000000000, \"no vitalik, no\");\n        _;    \n    }\n\n    function buy(uint256 rId, uint256 keyNum) \n        public\n        payable\n        isHuman()\n        isActivated()\n        isWithinLimits(msg.value)\n    {\n        buyCore();\n    }\n\n    function withdraw(uint256 amount) \n        public\n        payable\n        isHuman()\n        isActivated()\n    {\n        // \n        uint256 _rID = main_round_id_;  // ID\n        \n        // \n        uint256 _now = now;\n        \n        // \n        address _player = msg.sender;\n        \n        // setup temp var for player eth\n        uint256 _eth;\n        \n        // \n        if (_now > main_round_[_rID].end && main_round_[_rID].ended == false && main_round_[_rID].plyr != 0)\n        {\n            // \n            // event\n            MyFomoDataSet.EventReturns memory _eventData_;\n            \n            main_round_[_rID].ended = true;\n            _eventData_ = endMainRound(_eventData_);\n            \n            // \n            _eth = withdrawEarnings(_player); // TODO to be implements\n            \n            // \n            if (_eth > 0)\n                _player.transfer(_eth);    \n            \n            emit onWithdrawAndDistribute\n            (\n                msg.sender, \n                users_[addrUids_[_player]].name, \n                _eth, \n                _eventData_.winnerAddr, \n                _eventData_.winnerName, \n                _eventData_.amountWon, \n                _eventData_.newPot\n            );\n            \n        // in any other situation\n        } else {\n            // get their earnings\n            _eth = withdrawEarnings(_player);\n            \n            // gib moni\n            if (_eth > 0)\n                _player.transfer(_eth);\n            \n            // fire withdraw event\n            emit onWithdraw( msg.sender, users_[addrUids_[_player]].name, _eth, _now);\n        }\n        \n    }\n\n    /**\n     * brief: \n     * : name \n     * UserAmount UserAmount\n     * uint256 totalKeys;          // \n     * uint256 totalBet;           // eth\n     * uint256 lastKeys;           // \n     * uint256 lastBet;            // \n     * uint256 totalBalance;       // (eth)\n     * uint256 withdrawAble;       // (eth)\n     * uint256 withdraw;           // (eth)\n     * uint256 totalProfit;        //  )\n     * uint256 inviteProfit;       // (eth)\n     */\n    function getUserRndAmountByName(string name) \n        public\n        view\n        returns(uint256,uint256,uint256,uint256,uint256,uint256,uint256,uint256,uint256)\n    { \n        checkStopSubRnd();\n        MyFomoDataSet.UserAmount memory amt = MyFomoDataSet.UserAmount(0,0,0,0,0,0,0,0,0);\n        if (userExist(name))\n            amt = userAmounts_[nameAddr_[name.nameFilter()]];\n        \n    }\n\n    function getUserRndAmountByAddr(address addr)\n        public\n        view\n        returns(uint256,uint256,uint256,uint256,uint256,uint256,uint256,uint256,uint256)\n    { \n        checkStopSubRnd();\n    }\n\n\n    //----------------------------------------------------------------------------------------------------------\n    //---------------------------------------------------------------------------------------------------------\n    /**\n     * @dev \n     * \n     * @return  (wei)\n     */\n    function getBuyPrice() \n         public  \n         view \n         returns(uint256) \n    { \n               // setup local rID\n        uint256 _rID = main_round_id_;\n        \n        // grab time\n        uint256 _now = now;\n        \n        // are we in a round?\n        if (_now > main_round_[_rID].strt && (_now <= main_round_[_rID].end || (_now > main_round_[_rID].end && main_round_[_rID].plyr == 0)))\n            return ( (main_round_[_rID].keys.add(1000000000000000000)).ethRec(1000000000000000000) );\n        else // rounds over.  need price for new round\n            return ( 75000000000000 ); //  \n    }\n\n    /**\n     * @dev -\n     * \n     * @return -\n     */\n    function getMainRoundTimeLeft()\n        public\n        view\n        returns(uint256)\n    {\n        // setup local rID\n        uint256 _rID = main_round_id_;\n        \n        // grab time\n        uint256 _now = now;\n        \n        if (_now < main_round_[_rID].end)\n            return( (main_round_[_rID].end).sub(_now));\n        else\n            return(0);\n    }\n\n      \n    /**\n     * @dev \n     * \n     * @return \n     * @return \n     * @return \n     * @return \n     * @return eth\n     * @return eth\n     * @return eth\n     */\n    function getCurrentMainRoundInfo()\n        public\n        view\n        returns(uint256, uint256, uint256, uint256, uint256,uint256, uint256)\n    {\n         // setup local rID\n        uint256 _rID = main_round_id_;\n        \n        return\n        (\n            _rID,                                //1\n            main_round_[_rID].strt,              //2\n            main_round_[_rID].end,               //3\n            main_round_[_rID].keys,              //4\n            main_round_[_rID].eth,               //5\n            main_round_[_rID].pot,               //6\n            main_round_[_rID].dividend           //7\n        );\n    }\n\n    /**\n     * @dev -\n     * \n     * @return -\n     */\n    function getSubRoundTimeLeft()\n        public\n        view\n        returns(uint256)\n    {\n        checkStopSubRnd();\n        return sub_round_[sub_round_id_].end.sub(sub_round_[sub_round_id_].strt);\n    }\n    \n    /**\n     * @dev \n     * \n     * @return \n     * @return \n     * @return \n     * @return \n     * @return eth\n     * @return eth\n     * @return eth\n     */\n    function getCurrentSubRoundInfo()\n        public\n        view\n        returns(uint256, uint256, uint256, uint256, uint256, uint256, uint256)\n    {\n                 // setup local rID\n        uint256 _rID = sub_round_id_;\n        \n        return\n        (\n            _rID,                               //1\n            sub_round_[_rID].strt,              //2\n            sub_round_[_rID].end,               //3\n            sub_round_[_rID].keys,              //4\n            sub_round_[_rID].eth,               //5\n            sub_round_[_rID].pot,               //6\n            sub_round_[_rID].dividend           //7\n        );\n    }\n\n\n    /**\n     *   \n     *   1.-\n     *   2.-\n     *\n     */\n    function buyCore()\n        private \n    {\n          // \n        uint256 _rID = main_round_id_;\n        \n        // \n        uint256 _now = now;\n\n        // \n        // \n        if (_now > main_round_[_rID].strt && (_now <= main_round_[_rID].end || (_now > main_round_[_rID].end && main_round_[_rID].plyr == 0))) \n        {\n            // \n            if (!isSubRoundStart) {\n                buyMainRound(_rID,msg.value);\n            } else {\n                uint256 _keys = 0;\n                buySubRound(sub_round_id_, _keys);\n            }\n        \n        // \n        } else {\n            \n        }\n    }\n\n    //==============================================================================\n    //     _ _  _ _   | _  _ . _  .\n    //    (_(_)| (/_  |(_)(_||(_  . (this + tools + calcs + modules = our softwares engine)\n    //=====================_|=======================================================\n    /**\n     * @dev logic runs whenever a buy order is executed.  determines how to handle \n     * incoming eth depending on if we are in an active round or not\n     * \n     *  \n     *  1.\n     *  2.\n     *  3.\n     *\n     */\n    function buyMainRound(uint256 _rID, uint256 _eth) \n        private \n    {\n        address _player = msg.sender; // \n\n        uint256 _keys = 0; // ethkeys TODO  \n        if (_keys >=1) {\n            main_round_[_rID].plyr = _player; // \n            updateTimer(_keys, _rID);\n        }\n        // uint256 _eth = msg.value; // eth\n                                  // eth keys\n\n        // 1.\n        mainPlayerRounds_[_player][_rID].totalKeys = _keys.add(mainPlayerRounds_[_player][_rID].totalKeys); // keys\n        mainPlayerRounds_[_player][_rID].totalBet = _eth.add(mainPlayerRounds_[_player][_rID].totalBet); // eth\n        \n        // \n        main_round_[_rID].keys = _keys.add(main_round_[_rID].keys);\n        main_round_[_rID].eth = _eth.add(main_round_[_rID].eth);\n\n        // -\n        // 43% \n        main_round_[_rID].pot = (_eth.mul(main_round_pot_ration)/100).add(main_round_[_rID].pot);\n\n        // 43% \n        uint256 _dividend = _eth.mul(main_round_dividend_ration)/100; // \n        main_round_[_rID].dividend = main_round_[_rID].dividend.add(_dividend);\n        // uint256 _dividend_per_key = _dividend.div(main_round_[_rID].keys); // key\n        mainPlayerRounds_[_player][_rID].mask = mainPlayerRounds_[_player][_rID].mask.add(main_round_[_rID].mask.mul(_keys)); // \n        // 10% , \n        bytes32 _inviter_name = users_[addrUids_[_player]].inviterName;\n        uint256 _profit = _eth.mul(main_round_inviter_ration)/100;\n        if (_inviter_name != \"\") {\n            address _inviter = nameAddr_[_inviter_name];\n            users_[addrUids_[_inviter]].inviteNum = users_[addrUids_[_inviter]].inviteNum.add(1);\n            userAmounts_[_inviter].inviteProfit = userAmounts_[_inviter].inviteProfit.add(_profit); // \n            userAmounts_[_inviter].withdrawAble = userAmounts_[_inviter].withdrawAble.add(_profit); // \n            userAmounts_[_inviter].totalBalance = userAmounts_[_inviter].totalBalance.add(_profit); // \n        } else {\n            _opeAmount.devFund = _opeAmount.devFund.add(_profit); // \n        }\n        // 3% \n        _opeAmount.devFund = _opeAmount.devFund.add(_eth.mul(sub_round_developer_ration)/100);\n        // 1% \n        _opeAmount.fees = _opeAmount.fees.add(_eth.mul(sub_round_fee_ration)/100);\n\n        // UserAmount\n        userAmounts_[_player].totalKeys = userAmounts_[_player].totalKeys.add(_keys); // \n        userAmounts_[_player].totalBet = userAmounts_[_player].totalBet.add(_eth);    // eth\n        userAmounts_[_player].lastKeys = userAmounts_[_player].lastKeys = _keys;      // \n        userAmounts_[_player].lastBet = userAmounts_[_player].lastBet = _eth;         // eth\n    }\n\n    function buySubRound(uint256 _rID, uint256 _keys)\n        private \n    {\n        address _player = msg.sender; // \n        uint256 _eth = msg.value; // eth\n        uint256 _now = now;\n                                  // eth keys\n        // \n        if (_now > sub_round_[_rID].strt && (_now <= sub_round_[_rID].end)) \n        {\n            // 1.\n            subPlayerRounds_[_player][_rID].totalKeys = _keys.add(subPlayerRounds_[_player][_rID].totalKeys); // keys\n            subPlayerRounds_[_player][_rID].totalBet = _eth.add(subPlayerRounds_[_player][_rID].totalBet); // eth\n            \n            // \n            sub_round_[_rID].keys = _keys.add(sub_round_[_rID].keys);\n            sub_round_[_rID].eth = _eth.add(sub_round_[_rID].eth);\n\n            // \n            registWithAddr(_player);\n\n            // -\n            // 56% \n            uint _mrID = main_round_id_;\n            main_round_[_mrID].pot = (_eth.mul(sub_round_pot_ration)/100).add(main_round_[_mrID].pot);\n            // 40% \n            sub_round_[_rID].pot = (_eth.mul(sub_round_pot_ration)/100).add(sub_round_[_rID].pot);\n            // 3% \n            _opeAmount.devFund = _opeAmount.devFund.add(_eth.mul(sub_round_developer_ration)/100);\n            // 1% \n            _opeAmount.fees = _opeAmount.fees.add(_eth.mul(sub_round_fee_ration)/100);\n\n            // UserAmount\n            userAmounts_[_player].totalKeys = userAmounts_[_player].totalKeys.add(_keys); // \n            userAmounts_[_player].totalBet = userAmounts_[_player].totalBet.add(_eth);    // eth\n            userAmounts_[_player].lastKeys = userAmounts_[_player].lastKeys = _keys;      // \n            userAmounts_[_player].lastBet = userAmounts_[_player].lastBet = _eth;         // eth\n            // \n            sub_round_[_rID].plyr = _player;\n\n            // \n            updateSubTimer(_keys, _rID);\n\n            // \n        } \n        // sub_round\n        else \n            buyEndSub(_rID, _player, _keys, _eth);\n    }\n\n    function buyEndSub(uint256 _rID, address _player, uint256 _keys, uint256 _eth) \n        private\n    {\n        endSub(_rID);\n        // \n        mainPlayerRounds_[_player][main_round_id_].withdrawAble = mainPlayerRounds_[_player][main_round_id_].withdrawAble.add(_eth);\n    }\n\n    function endSub(uint256 _rID) \n        private\n    {\n        isSubRoundStart = false;\n        address _winer = sub_round_[_rID].plyr;\n        uint256 _win_eth = mainPlayerRounds_[_winer][main_round_id_].withdrawAble.add(sub_round_[_rID].pot);\n        mainPlayerRounds_[_winer][main_round_id_].withdrawAble = _win_eth;\n        sub_round_[_rID].ended = true;\n        sub_round_[_rID].strt = sub_round_[_rID].end;\n        mainRestore(_rID, sub_round_[_rID].keys);\n    }\n\n    // \n    function checkStopSubRnd() \n        private \n    {\n        if (isSubRoundStart) \n        {\n            uint256 _rID = sub_round_id_;\n            uint256 _now = now;\n            if (_now > sub_round_[_rID].strt && (_now <= sub_round_[_rID].end)) \n                _now = _now;\n            else\n                endSub(_rID);\n        }\n    }\n\n    // \n    function mainRestore(uint256 _sub_rID, uint256 _seconds)\n        private \n    {\n        // TODO::\n        // 1. restore main\n        // 2. emit mainRestoreSubStop\n    }\n\n    /**\n     * @dev updates round timer based on number of whole keys bought.\n     */\n    function updateTimer(uint256 _keys, uint256 _rID)\n        private\n    {\n        // grab time\n        uint256 _now = now;\n        \n        // calculate time based on number of keys bought\n        uint256 _newTime;\n        if (_now > main_round_[_rID].end && main_round_[_rID].plyr == 0)\n            _newTime = (((_keys) / (1000000000000000000)).mul(rndInc_)).add(_now);\n        else\n            _newTime = (((_keys) / (1000000000000000000)).mul(rndInc_)).add(main_round_[_rID].end);\n        \n        // compare to max and set new end time\n        if (_newTime < (rndMax_).add(_now))\n            main_round_[_rID].end = _newTime;\n        else\n            main_round_[_rID].end = main_round_[_rID].strt.add(_now);\n            // main_round_[_rID].end = main_round_.add(_now); ??\n    }\n\n    // \n    function updateSubTimer(uint256 _keys, uint256 _rID)\n        private\n    {\n        // calculate time based on number of keys bought\n        uint256 _newTime = sub_round_[_rID].strt.add((((_keys) / (1000000000000000000)).mul(subRndDesc_)));\n        // compare to max and set new end time\n        if (_newTime.add(subRndMax_) >= sub_round_[_rID].end) \n            endSub(_rID);\n        else\n            sub_round_[_rID].strt = _newTime;\n    }\n\n     /**\n     * @dev \n     */\n    function endMainRound(MyFomoDataSet.EventReturns memory _eventData_)\n        private\n        returns (MyFomoDataSet.EventReturns)\n    {\n        // ID\n        uint256 _rID = main_round_id_;\n        \n        // \n        // TODO: by Leon plyr\n        address _winAddress = main_round_[_rID].plyr;\n        bytes32 _winName = users_[addrUids_[_winAddress]].name;\n        \n        // \n        uint256 _pot = main_round_[_rID].pot;\n        \n        // \n        // 2% 48% 20%30% \n        uint256 _win = (_pot.mul(48)) / 100; // \n        uint256 _dev = (_pot.mul(2)) / 100; // \n        uint256 _nexPot = (_pot.mul(20)/100); /// \n        uint256 _keyPlr = (_pot.mul(30)/100); /// \n        \n        // key\n        uint256 _ppt = _keyPlr / (main_round_[_rID].keys);\n        \n        // \n        userAmounts_[_winAddress].totalBalance = userAmounts_[_winAddress].totalBalance.add(_win); // \n        userAmounts_[_winAddress].withdrawAble = userAmounts_[_winAddress].withdrawAble.add(_win); // \n\n        // \n        _opeAmount.devFund = _opeAmount.devFund.add(_dev);\n        \n        // key\n        main_round_[_rID].mask = _ppt.add(main_round_[_rID].mask);\n        \n        // prepare event data;\n        _eventData_.winnerAddr = _winAddress;\n        _eventData_.winnerName = _winName;\n        _eventData_.amountWon = _win;\n        _eventData_.newPot = _nexPot;\n        \n        // start next round\n        main_round_id_++;\n        _rID++;\n        main_round_[_rID].strt = now;\n        main_round_[_rID].end = now.add(rndInit_);\n        main_round_[_rID].pot = _nexPot;\n        \n        return(_eventData_);\n    }\n\n\n    function withdrawEarnings(address _pID)\n        private\n        returns(uint256)\n    {\n        \n        // // from vaults \n        // uint256 _earnings = (plyr_[_pID].win).add(plyr_[_pID].gen).add(plyr_[_pID].aff);\n        // if (_earnings > 0)\n        // {\n        //     plyr_[_pID].win = 0;\n        //     plyr_[_pID].gen = 0;\n        //     plyr_[_pID].aff = 0;\n        // }\n\n        // return(_earnings);\n    }\n\n    //==============================================================================\n//    (~ _  _    _._|_    .\n//    _)(/_(_|_|| | | \\/  .\n//====================/=========================================================\n    /** upon contract deploy, it will be deactivated.  this is a one time\n     * use function that will activate the contract.  we do this so devs \n     * have time to set things up on the web end                           \n     **/\n    function activate()\n        public\n    {\n        // only team just can activate \n        require(\n            msg.sender == 0x18E90Fc6F70344f53EBd4f6070bf6Aa23e2D748C ||\n            msg.sender == 0x8b4DA1827932D71759687f925D17F81Fc94e3A9D ||\n            msg.sender == 0x8e0d985f3Ec1857BEc39B76aAabDEa6B31B67d53 ||\n            msg.sender == 0x7ac74Fcc1a71b106F12c55ee8F802C9F672Ce40C ||\n\t\t\tmsg.sender == 0xF39e044e1AB204460e06E87c6dca2c6319fC69E3,\n            \"only team just can activate\"\n        );\n        \n        // can only be ran once\n        require(activated_ == false, \"myfomo already activated\");\n        \n        // activate the contract \n        activated_ = true;\n        \n        // lets start first round\n        main_round_id_ = 1;\n        main_round_[1].strt = now + rndInit_;\n        main_round_[1].end = now + rndInit_ + rndMax_;\n    }\n\n}\n",
  "sourcePath": "/Users/jazz/Desktop/proj/DApp/MyFomo/contracts/MyFomo.sol",
  "compiler": {
    "name": "solc",
    "version": "0.4.24+commit.e67f0147.Emscripten.clang"
  },
  "schemaVersion": "2.0.1",
  "updatedAt": "2018-09-06T14:53:45.966Z"
}