{
  "contractName": "MyFomo",
  "abi": [
    {
      "constant": true,
      "inputs": [],
      "name": "activated_",
      "outputs": [
        {
          "name": "",
          "type": "bool"
        }
      ],
      "payable": false,
      "stateMutability": "view",
      "type": "function"
    },
    {
      "constant": false,
      "inputs": [
        {
          "name": "rId",
          "type": "uint256"
        },
        {
          "name": "keyNum",
          "type": "uint256"
        }
      ],
      "name": "buy",
      "outputs": [],
      "payable": true,
      "stateMutability": "payable",
      "type": "function"
    },
    {
      "constant": false,
      "inputs": [
        {
          "name": "amount",
          "type": "uint256"
        }
      ],
      "name": "withdraw",
      "outputs": [],
      "payable": true,
      "stateMutability": "payable",
      "type": "function"
    },
    {
      "constant": false,
      "inputs": [
        {
          "name": "name",
          "type": "string"
        }
      ],
      "name": "registWithName",
      "outputs": [],
      "payable": true,
      "stateMutability": "payable",
      "type": "function"
    },
    {
      "constant": true,
      "inputs": [
        {
          "name": "name",
          "type": "string"
        }
      ],
      "name": "getUserByName",
      "outputs": [
        {
          "name": "",
          "type": "address"
        },
        {
          "name": "",
          "type": "bytes32"
        },
        {
          "name": "",
          "type": "bytes32"
        },
        {
          "name": "",
          "type": "uint256"
        }
      ],
      "payable": false,
      "stateMutability": "view",
      "type": "function"
    },
    {
      "constant": true,
      "inputs": [
        {
          "name": "addr",
          "type": "address"
        }
      ],
      "name": "getUserByAddr",
      "outputs": [
        {
          "name": "",
          "type": "address"
        },
        {
          "name": "",
          "type": "bytes32"
        },
        {
          "name": "",
          "type": "bytes32"
        },
        {
          "name": "",
          "type": "uint256"
        }
      ],
      "payable": false,
      "stateMutability": "view",
      "type": "function"
    },
    {
      "constant": true,
      "inputs": [
        {
          "name": "name",
          "type": "string"
        }
      ],
      "name": "getUserAmountByName",
      "outputs": [
        {
          "name": "",
          "type": "uint256"
        },
        {
          "name": "",
          "type": "uint256"
        },
        {
          "name": "",
          "type": "uint256"
        },
        {
          "name": "",
          "type": "uint256"
        },
        {
          "name": "",
          "type": "uint256"
        },
        {
          "name": "",
          "type": "uint256"
        },
        {
          "name": "",
          "type": "uint256"
        },
        {
          "name": "",
          "type": "uint256"
        },
        {
          "name": "",
          "type": "uint256"
        }
      ],
      "payable": false,
      "stateMutability": "view",
      "type": "function"
    },
    {
      "constant": true,
      "inputs": [
        {
          "name": "addr",
          "type": "address"
        }
      ],
      "name": "getUserAmountByAddr",
      "outputs": [
        {
          "name": "",
          "type": "uint256"
        },
        {
          "name": "",
          "type": "uint256"
        },
        {
          "name": "",
          "type": "uint256"
        },
        {
          "name": "",
          "type": "uint256"
        },
        {
          "name": "",
          "type": "uint256"
        },
        {
          "name": "",
          "type": "uint256"
        },
        {
          "name": "",
          "type": "uint256"
        },
        {
          "name": "",
          "type": "uint256"
        },
        {
          "name": "",
          "type": "uint256"
        }
      ],
      "payable": false,
      "stateMutability": "view",
      "type": "function"
    },
    {
      "constant": true,
      "inputs": [],
      "name": "getBuyPrice",
      "outputs": [
        {
          "name": "",
          "type": "uint256"
        }
      ],
      "payable": false,
      "stateMutability": "view",
      "type": "function"
    },
    {
      "constant": true,
      "inputs": [],
      "name": "getMainRoundTimeLeft",
      "outputs": [
        {
          "name": "",
          "type": "uint256"
        }
      ],
      "payable": false,
      "stateMutability": "view",
      "type": "function"
    },
    {
      "constant": true,
      "inputs": [],
      "name": "getCurrentMainRoundInfo",
      "outputs": [
        {
          "name": "",
          "type": "uint256"
        },
        {
          "name": "",
          "type": "uint256"
        },
        {
          "name": "",
          "type": "uint256"
        },
        {
          "name": "",
          "type": "uint256"
        },
        {
          "name": "",
          "type": "uint256"
        }
      ],
      "payable": false,
      "stateMutability": "view",
      "type": "function"
    },
    {
      "constant": true,
      "inputs": [],
      "name": "getSubRoundTimeLeft",
      "outputs": [
        {
          "name": "",
          "type": "uint256"
        }
      ],
      "payable": false,
      "stateMutability": "view",
      "type": "function"
    },
    {
      "constant": true,
      "inputs": [],
      "name": "getCurrentSubRoundInfo",
      "outputs": [
        {
          "name": "",
          "type": "uint256"
        },
        {
          "name": "",
          "type": "uint256"
        },
        {
          "name": "",
          "type": "uint256"
        },
        {
          "name": "",
          "type": "uint256"
        },
        {
          "name": "",
          "type": "uint256"
        }
      ],
      "payable": false,
      "stateMutability": "view",
      "type": "function"
    }
  ],
  "bytecode": "0x608060405260008060006101000a81548160ff02191690831515021790555034801561002a57600080fd5b506107bc8061003a6000396000f3006080604052600436106100c5576000357c0100000000000000000000000000000000000000000000000000000000900463ffffffff168063018a25e8146100ca5780632a2f19b2146100f55780632e1a7d4d146101205780633d30cacd146101405780634121b8e614610187578063434b5b3c146101e35780634bff500914610298578063b9005c4c14610366578063c8bb1046146103f5578063cfa5c9811461043c578063d53b267914610467578063d6febde814610496578063f16e4e46146104c0575b600080fd5b3480156100d657600080fd5b506100df610568565b6040518082815260200191505060405180910390f35b34801561010157600080fd5b5061010a610570565b6040518082815260200191505060405180910390f35b61013e60048036038101908080359060200190929190505050610575565b005b34801561014c57600080fd5b506101556105fc565b604051808681526020018581526020018481526020018381526020018281526020019550505050505060405180910390f35b6101e1600480360381019080803590602001908201803590602001908080601f016020809104026020016040519081016040528093929190818152602001838380828437820191505050505050919291929050505061060b565b005b3480156101ef57600080fd5b5061024a600480360381019080803590602001908201803590602001908080601f0160208091040260200160405190810160405280939291908181526020018383808284378201915050505050509192919290505050610692565b604051808a8152602001898152602001888152602001878152602001868152602001858152602001848152602001838152602001828152602001995050505050505050505060405180910390f35b3480156102a457600080fd5b506102ff600480360381019080803590602001908201803590602001908080601f01602080910402602001604051908101604052809392919081815260200183838082843782019150505050505091929192905050506106ad565b604051808573ffffffffffffffffffffffffffffffffffffffff1673ffffffffffffffffffffffffffffffffffffffff1681526020018460001916600019168152602001836000191660001916815260200182815260200194505050505060405180910390f35b34801561037257600080fd5b506103a7600480360381019080803573ffffffffffffffffffffffffffffffffffffffff1690602001909291905050506106ba565b604051808a8152602001898152602001888152602001878152602001868152602001858152602001848152602001838152602001828152602001995050505050505050505060405180910390f35b34801561040157600080fd5b5061040a6106d5565b604051808681526020018581526020018481526020018381526020018281526020019550505050505060405180910390f35b34801561044857600080fd5b506104516106e4565b6040518082815260200191505060405180910390f35b34801561047357600080fd5b5061047c6106e9565b604051808215151515815260200191505060405180910390f35b6104be60048036038101908080359060200190929190803590602001909291905050506106fb565b005b3480156104cc57600080fd5b50610501600480360381019080803573ffffffffffffffffffffffffffffffffffffffff169060200190929190505050610783565b604051808573ffffffffffffffffffffffffffffffffffffffff1673ffffffffffffffffffffffffffffffffffffffff1681526020018460001916600019168152602001836000191660001916815260200182815260200194505050505060405180910390f35b600080905090565b600090565b600080339150813b90506000811415156105f7576040517f08c379a00000000000000000000000000000000000000000000000000000000081526004018080602001828103825260118152602001807f736f7272792068756d616e73206f6e6c7900000000000000000000000000000081525060200191505060405180910390fd5b505050565b60008060008060009091929394565b600080339150813b905060008114151561068d576040517f08c379a00000000000000000000000000000000000000000000000000000000081526004018080602001828103825260118152602001807f736f7272792068756d616e73206f6e6c7900000000000000000000000000000081525060200191505060405180910390fd5b505050565b60008060008060008060008060009193959799909294969850565b6000806000809193509193565b60008060008060008060008060009193959799909294969850565b60008060008060009091929394565b600090565b6000809054906101000a900460ff1681565b600080339150813b905060008114151561077d576040517f08c379a00000000000000000000000000000000000000000000000000000000081526004018080602001828103825260118152602001807f736f7272792068756d616e73206f6e6c7900000000000000000000000000000081525060200191505060405180910390fd5b50505050565b60008060008091935091935600a165627a7a72305820fc0370021041db403f52809712e6075f2182895d21448b8bd40f19da253e14ca0029",
  "source": "pragma solidity ^0.4.23;\nimport \"./MyFomoEvents.sol\";\nimport \"./MyFomoDataSet.sol\";\n\ncontract MyFomo {\n     bool public activated_ = false;\n\n    /**\n     * @dev used to make sure no one can interact with contract until it has \n     * been activated. \n     */\n    modifier isActivated() {\n        require(activated_ == true, \"its not ready yet.  check ?eta in discord\"); \n        _;\n    }\n    \n    /**\n     * @dev prevents contracts from interacting with fomo3d \n     */\n    modifier isHuman() {\n        address _addr = msg.sender;\n        uint256 _codeLength;\n        \n        assembly {_codeLength := extcodesize(_addr)}\n        require(_codeLength == 0, \"sorry humans only\");\n        _;\n    }\n\n    /**\n     * @dev sets boundaries for incoming tx \n     */\n    modifier isWithinLimits(uint256 _eth) {\n        require(_eth >= 1000000000, \"pocket lint: not a valid currency\");\n        require(_eth <= 100000000000000000000000, \"no vitalik, no\");\n        _;    \n    }\n\n    function buy(uint256 rId, uint256 keyNum) isHuman() \n        public\n        payable\n    {\n        \n    }\n\n    function withdraw(uint256 amount) isHuman()\n        public\n        payable\n    {\n        \n    }\n    \n    function registWithName(string name) isHuman()\n        public\n        payable\n    {\n        \n    }\n\n    function getUserByName(string name) \n        public\n        view\n        returns(address,bytes32,bytes32,uint256)\n    {\n    }\n\n    function getUserByAddr(address addr)\n        public\n        view\n        returns(address,bytes32,bytes32,uint256)\n    {\n\n    }\n\n    function getUserAmountByName(string name) \n        public\n        view\n        returns(uint256,uint256,uint256,uint256,uint256,uint256,uint256,uint256,uint256)\n    { \n\n    }\n\n    function getUserAmountByAddr(address addr)\n        public\n        view\n        returns(uint256,uint256,uint256,uint256,uint256,uint256,uint256,uint256,uint256)\n    { \n    }\n\n\n    //----------------------------------------------------------------------------------------------------------\n    //---------------------------------------------------------------------------------------------------------\n    /**\n     * @dev 获取当前一个钥匙的购买价格\n     * \n     * @return 获取当前钥匙的购买价格 (用最小单位wei)\n     */\n    function getBuyPrice() \n         public  \n         view \n         returns(uint256) \n    { \n        return 0;\n    }\n\n    /**\n     * @dev 获取主游戏当前轮的剩余时间-这个可以客户端调用者来做\n     * \n     * @return 主游戏当前轮的剩余时间-秒数\n     */\n    function getMainRoundTimeLeft()\n        public\n        view\n        returns(uint256)\n    {\n    }\n\n      \n    /**\n     * @dev 返回当前主游戏的详细信息\n     * \n     * @return 主游戏当前轮数\n     * @return 主游戏当前轮的开始时间\n     * @return 主游戏当前轮的结束时间\n     * @return 主游戏当前轮的钥匙总数\n     * @return 主游戏当前轮总投入eth总量\n     * @return 主游戏当前轮可以用来奖励给最终用户的eth金额\n     * @return 当前游戏已经分红的eth金额\n     */\n    function getCurrentMainRoundInfo()\n        public\n        view\n        returns(uint256, uint256, uint256, uint256, uint256)\n    {\n    }\n\n    /**\n     * @dev 获取冲刺游戏当前轮的剩余时间-这个可以客户端调用者来做\n     * \n     * @return 冲刺游戏当前轮的剩余时间-秒数\n     */\n    function getSubRoundTimeLeft()\n        public\n        view\n        returns(uint256)\n    {\n    }\n    \n    /**\n     * @dev 返回冲刺游戏的详细信息\n     * \n     * @return 冲刺游戏当前轮数\n     * @return 冲刺游戏当前轮的开始时间\n     * @return 冲刺游戏当前轮的结束时间\n     * @return 冲刺游戏当前轮的钥匙总数\n     * @return 冲刺游戏当前轮总投入eth总量\n     * @return 冲刺游戏当前轮可以用来奖励给最终用户的eth金额\n     * @return 冲刺前游戏当前轮已经分红的eth金额\n     */\n    function getCurrentSubRoundInfo()\n        public\n        view\n        returns(uint256, uint256, uint256, uint256, uint256)\n    {\n    }\n\n   \n   \n\n}\n",
  "sourcePath": "/Users/wangmaodong/develop/myproject/myfomo/contracts/MyFomo.sol",
  "compiler": {
    "name": "solc",
    "version": "0.4.24+commit.e67f0147.Emscripten.clang"
  },
  "schemaVersion": "2.0.1",
  "updatedAt": "2018-08-28T15:13:41.562Z"
}