{
  "contractName": "MyFomo",
  "abi": [
    {
      "constant": true,
      "inputs": [
        {
          "name": "",
          "type": "address"
        }
      ],
      "name": "address_user_map_",
      "outputs": [
        {
          "name": "addr",
          "type": "address"
        },
        {
          "name": "name",
          "type": "bytes32"
        },
        {
          "name": "intiterName",
          "type": "bytes32"
        },
        {
          "name": "inviteNum",
          "type": "uint256"
        }
      ],
      "payable": false,
      "stateMutability": "view",
      "type": "function"
    },
    {
      "constant": true,
      "inputs": [
        {
          "name": "",
          "type": "address"
        }
      ],
      "name": "user_amounts_",
      "outputs": [
        {
          "name": "totalKeys",
          "type": "uint256"
        },
        {
          "name": "totalBet",
          "type": "uint256"
        },
        {
          "name": "lastKeys",
          "type": "uint256"
        },
        {
          "name": "lastBet",
          "type": "uint256"
        },
        {
          "name": "totalBalance",
          "type": "uint256"
        },
        {
          "name": "withdrawAble",
          "type": "uint256"
        },
        {
          "name": "withdraw",
          "type": "uint256"
        },
        {
          "name": "totalProfit",
          "type": "uint256"
        },
        {
          "name": "inviteProfit",
          "type": "uint256"
        }
      ],
      "payable": false,
      "stateMutability": "view",
      "type": "function"
    },
    {
      "constant": true,
      "inputs": [],
      "name": "main_round_id_",
      "outputs": [
        {
          "name": "",
          "type": "uint256"
        }
      ],
      "payable": false,
      "stateMutability": "view",
      "type": "function"
    },
    {
      "constant": true,
      "inputs": [
        {
          "name": "",
          "type": "uint256"
        }
      ],
      "name": "main_round_",
      "outputs": [
        {
          "name": "strt",
          "type": "uint256"
        },
        {
          "name": "end",
          "type": "uint256"
        },
        {
          "name": "ended",
          "type": "bool"
        },
        {
          "name": "keys",
          "type": "uint256"
        },
        {
          "name": "eth",
          "type": "uint256"
        },
        {
          "name": "pot",
          "type": "uint256"
        },
        {
          "name": "mask",
          "type": "uint256"
        }
      ],
      "payable": false,
      "stateMutability": "view",
      "type": "function"
    },
    {
      "constant": true,
      "inputs": [],
      "name": "sub_round_id_",
      "outputs": [
        {
          "name": "",
          "type": "uint256"
        }
      ],
      "payable": false,
      "stateMutability": "view",
      "type": "function"
    },
    {
      "constant": true,
      "inputs": [
        {
          "name": "",
          "type": "uint256"
        }
      ],
      "name": "sub_round_",
      "outputs": [
        {
          "name": "strt",
          "type": "uint256"
        },
        {
          "name": "end",
          "type": "uint256"
        },
        {
          "name": "ended",
          "type": "bool"
        },
        {
          "name": "keys",
          "type": "uint256"
        },
        {
          "name": "eth",
          "type": "uint256"
        },
        {
          "name": "pot",
          "type": "uint256"
        },
        {
          "name": "mask",
          "type": "uint256"
        }
      ],
      "payable": false,
      "stateMutability": "view",
      "type": "function"
    },
    {
      "constant": true,
      "inputs": [],
      "name": "activated_",
      "outputs": [
        {
          "name": "",
          "type": "bool"
        }
      ],
      "payable": false,
      "stateMutability": "view",
      "type": "function"
    },
    {
      "constant": false,
      "inputs": [
        {
          "name": "rId",
          "type": "uint256"
        },
        {
          "name": "keyNum",
          "type": "uint256"
        }
      ],
      "name": "buy",
      "outputs": [],
      "payable": true,
      "stateMutability": "payable",
      "type": "function"
    },
    {
      "constant": false,
      "inputs": [
        {
          "name": "amount",
          "type": "uint256"
        }
      ],
      "name": "withdraw",
      "outputs": [],
      "payable": true,
      "stateMutability": "payable",
      "type": "function"
    },
    {
      "constant": false,
      "inputs": [
        {
          "name": "name",
          "type": "string"
        }
      ],
      "name": "registWithName",
      "outputs": [],
      "payable": true,
      "stateMutability": "payable",
      "type": "function"
    },
    {
      "constant": true,
      "inputs": [
        {
          "name": "name",
          "type": "string"
        }
      ],
      "name": "getUserByName",
      "outputs": [
        {
          "name": "",
          "type": "address"
        },
        {
          "name": "",
          "type": "bytes32"
        },
        {
          "name": "",
          "type": "bytes32"
        },
        {
          "name": "",
          "type": "uint256"
        }
      ],
      "payable": false,
      "stateMutability": "view",
      "type": "function"
    },
    {
      "constant": true,
      "inputs": [
        {
          "name": "addr",
          "type": "address"
        }
      ],
      "name": "getUserByAddr",
      "outputs": [
        {
          "name": "",
          "type": "address"
        },
        {
          "name": "",
          "type": "bytes32"
        },
        {
          "name": "",
          "type": "bytes32"
        },
        {
          "name": "",
          "type": "uint256"
        }
      ],
      "payable": false,
      "stateMutability": "view",
      "type": "function"
    },
    {
      "constant": true,
      "inputs": [
        {
          "name": "name",
          "type": "string"
        }
      ],
      "name": "getUserAmountByName",
      "outputs": [
        {
          "name": "",
          "type": "uint256"
        },
        {
          "name": "",
          "type": "uint256"
        },
        {
          "name": "",
          "type": "uint256"
        },
        {
          "name": "",
          "type": "uint256"
        },
        {
          "name": "",
          "type": "uint256"
        },
        {
          "name": "",
          "type": "uint256"
        },
        {
          "name": "",
          "type": "uint256"
        },
        {
          "name": "",
          "type": "uint256"
        },
        {
          "name": "",
          "type": "uint256"
        }
      ],
      "payable": false,
      "stateMutability": "view",
      "type": "function"
    },
    {
      "constant": true,
      "inputs": [
        {
          "name": "addr",
          "type": "address"
        }
      ],
      "name": "getUserAmountByAddr",
      "outputs": [
        {
          "name": "",
          "type": "uint256"
        },
        {
          "name": "",
          "type": "uint256"
        },
        {
          "name": "",
          "type": "uint256"
        },
        {
          "name": "",
          "type": "uint256"
        },
        {
          "name": "",
          "type": "uint256"
        },
        {
          "name": "",
          "type": "uint256"
        },
        {
          "name": "",
          "type": "uint256"
        },
        {
          "name": "",
          "type": "uint256"
        },
        {
          "name": "",
          "type": "uint256"
        }
      ],
      "payable": false,
      "stateMutability": "view",
      "type": "function"
    },
    {
      "constant": true,
      "inputs": [],
      "name": "getBuyPrice",
      "outputs": [
        {
          "name": "",
          "type": "uint256"
        }
      ],
      "payable": false,
      "stateMutability": "view",
      "type": "function"
    },
    {
      "constant": true,
      "inputs": [],
      "name": "getMainRoundTimeLeft",
      "outputs": [
        {
          "name": "",
          "type": "uint256"
        }
      ],
      "payable": false,
      "stateMutability": "view",
      "type": "function"
    },
    {
      "constant": true,
      "inputs": [],
      "name": "getCurrentMainRoundInfo",
      "outputs": [
        {
          "name": "",
          "type": "uint256"
        },
        {
          "name": "",
          "type": "uint256"
        },
        {
          "name": "",
          "type": "uint256"
        },
        {
          "name": "",
          "type": "uint256"
        },
        {
          "name": "",
          "type": "uint256"
        }
      ],
      "payable": false,
      "stateMutability": "view",
      "type": "function"
    },
    {
      "constant": true,
      "inputs": [],
      "name": "getSubRoundTimeLeft",
      "outputs": [
        {
          "name": "",
          "type": "uint256"
        }
      ],
      "payable": false,
      "stateMutability": "view",
      "type": "function"
    },
    {
      "constant": true,
      "inputs": [],
      "name": "getCurrentSubRoundInfo",
      "outputs": [
        {
          "name": "",
          "type": "uint256"
        },
        {
          "name": "",
          "type": "uint256"
        },
        {
          "name": "",
          "type": "uint256"
        },
        {
          "name": "",
          "type": "uint256"
        },
        {
          "name": "",
          "type": "uint256"
        }
      ],
      "payable": false,
      "stateMutability": "view",
      "type": "function"
    }
  ],
  "bytecode": "0x608060405260008060006101000a81548160ff02191690831515021790555034801561002a57600080fd5b50610bb18061003a6000396000f300608060405260043610610107576000357c0100000000000000000000000000000000000000000000000000000000900463ffffffff168063018a25e81461010c578063155226e0146101375780632a2f19b2146101df5780632e1a7d4d1461020a5780633d30cacd1461022a5780634121b8e614610271578063434b5b3c146102cd5780634bff500914610382578063829d13e9146104505780639406d074146104df578063b9005c4c1461050a578063bacaa37614610599578063bceb9e1d14610608578063c68c5f2014610633578063c8bb1046146106a2578063cfa5c981146106e9578063d53b267914610714578063d6febde814610743578063f16e4e461461076d575b600080fd5b34801561011857600080fd5b50610121610815565b6040518082815260200191505060405180910390f35b34801561014357600080fd5b50610178600480360381019080803573ffffffffffffffffffffffffffffffffffffffff16906020019092919050505061081d565b604051808573ffffffffffffffffffffffffffffffffffffffff1673ffffffffffffffffffffffffffffffffffffffff1681526020018460001916600019168152602001836000191660001916815260200182815260200194505050505060405180910390f35b3480156101eb57600080fd5b506101f461086d565b6040518082815260200191505060405180910390f35b61022860048036038101908080359060200190929190505050610872565b005b34801561023657600080fd5b5061023f6108f9565b604051808681526020018581526020018481526020018381526020018281526020019550505050505060405180910390f35b6102cb600480360381019080803590602001908201803590602001908080601f0160208091040260200160405190810160405280939291908181526020018383808284378201915050505050509192919290505050610908565b005b3480156102d957600080fd5b50610334600480360381019080803590602001908201803590602001908080601f016020809104026020016040519081016040528093929190818152602001838380828437820191505050505050919291929050505061098f565b604051808a8152602001898152602001888152602001878152602001868152602001858152602001848152602001838152602001828152602001995050505050505050505060405180910390f35b34801561038e57600080fd5b506103e9600480360381019080803590602001908201803590602001908080601f01602080910402602001604051908101604052809392919081815260200183838082843782019150505050505091929192905050506109aa565b604051808573ffffffffffffffffffffffffffffffffffffffff1673ffffffffffffffffffffffffffffffffffffffff1681526020018460001916600019168152602001836000191660001916815260200182815260200194505050505060405180910390f35b34801561045c57600080fd5b50610491600480360381019080803573ffffffffffffffffffffffffffffffffffffffff1690602001909291905050506109b7565b604051808a8152602001898152602001888152602001878152602001868152602001858152602001848152602001838152602001828152602001995050505050505050505060405180910390f35b3480156104eb57600080fd5b506104f4610a05565b6040518082815260200191505060405180910390f35b34801561051657600080fd5b5061054b600480360381019080803573ffffffffffffffffffffffffffffffffffffffff169060200190929190505050610a0b565b604051808a8152602001898152602001888152602001878152602001868152602001858152602001848152602001838152602001828152602001995050505050505050505060405180910390f35b3480156105a557600080fd5b506105c460048036038101908080359060200190929190505050610a26565b604051808881526020018781526020018615151515815260200185815260200184815260200183815260200182815260200197505050505050505060405180910390f35b34801561061457600080fd5b5061061d610a75565b6040518082815260200191505060405180910390f35b34801561063f57600080fd5b5061065e60048036038101908080359060200190929190505050610a7b565b604051808881526020018781526020018615151515815260200185815260200184815260200183815260200182815260200197505050505050505060405180910390f35b3480156106ae57600080fd5b506106b7610aca565b604051808681526020018581526020018481526020018381526020018281526020019550505050505060405180910390f35b3480156106f557600080fd5b506106fe610ad9565b6040518082815260200191505060405180910390f35b34801561072057600080fd5b50610729610ade565b604051808215151515815260200191505060405180910390f35b61076b6004803603810190808035906020019092919080359060200190929190505050610af0565b005b34801561077957600080fd5b506107ae600480360381019080803573ffffffffffffffffffffffffffffffffffffffff169060200190929190505050610b78565b604051808573ffffffffffffffffffffffffffffffffffffffff1673ffffffffffffffffffffffffffffffffffffffff1681526020018460001916600019168152602001836000191660001916815260200182815260200194505050505060405180910390f35b600080905090565b60066020528060005260406000206000915090508060000160009054906101000a900473ffffffffffffffffffffffffffffffffffffffff16908060010154908060020154908060030154905084565b600090565b600080339150813b90506000811415156108f4576040517f08c379a00000000000000000000000000000000000000000000000000000000081526004018080602001828103825260118152602001807f736f7272792068756d616e73206f6e6c7900000000000000000000000000000081525060200191505060405180910390fd5b505050565b60008060008060009091929394565b600080339150813b905060008114151561098a576040517f08c379a00000000000000000000000000000000000000000000000000000000081526004018080602001828103825260118152602001807f736f7272792068756d616e73206f6e6c7900000000000000000000000000000081525060200191505060405180910390fd5b505050565b60008060008060008060008060009193959799909294969850565b6000806000809193509193565b60056020528060005260406000206000915090508060000154908060010154908060020154908060030154908060040154908060050154908060060154908060070154908060080154905089565b60035481565b60008060008060008060008060009193959799909294969850565b60016020528060005260406000206000915090508060000154908060010154908060020160009054906101000a900460ff16908060030154908060040154908060050154908060060154905087565b60045481565b60026020528060005260406000206000915090508060000154908060010154908060020160009054906101000a900460ff16908060030154908060040154908060050154908060060154905087565b60008060008060009091929394565b600090565b6000809054906101000a900460ff1681565b600080339150813b9050600081141515610b72576040517f08c379a00000000000000000000000000000000000000000000000000000000081526004018080602001828103825260118152602001807f736f7272792068756d616e73206f6e6c7900000000000000000000000000000081525060200191505060405180910390fd5b50505050565b60008060008091935091935600a165627a7a723058202a8f9256e2e261cedba5a02f40a8a80cea9e160737c232d48d2c8e9178abfc760029",
  "source": "pragma solidity ^0.4.23;\nimport \"./MyFomoEvents.sol\";\nimport \"./MyFomoDataSet.sol\";\n\nimport \"./library/SafeMath.sol\";\nimport \"./library/UintCompressor.sol\";\nimport \"./library/NameFilter.sol\";\nimport \"./library/UintCompressor.sol\";\nimport \"./library/KeysCalcLong.sol\";\n\ncontract MyFomo {\n    using SafeMath for *;\n    using NameFilter for string;\n    using KeysCalcLong for uint256;\n\n     bool public activated_ = false;\n\n    uint256 constant private rndInit_ = 1 hours;                // round timer starts at this\n    uint256 constant private rndInc_ = 30 seconds;              // every full key purchased adds this much to the timer\n    uint256 constant private rndMax_ = 24 hours;                // max length a round timer can be\n\n    mapping (uint256 => MyFomoDataSet.Round) public main_round_;   // (rID => data) round data\n    mapping (uint256 => MyFomoDataSet.Round) public sub_round_;   // (rID => data) round data\n\n    uint256 public main_round_id_;    // round id number / total rounds that have happened\n    uint256 public sub_round_id_;    // round id number / total rounds that have happened\n\n    mapping(address => MyFomoDataSet.UserAmount) public user_amounts_;\n    mapping(address => MyFomoDataSet.User) public address_user_map_;\n    // mapping(string => MyFomoDataSet.User) public name_user_map_;\n\n\n\n    /**\n     * @dev used to make sure no one can interact with contract until it has \n     * been activated. \n     */\n    modifier isActivated() {\n        require(activated_ == true, \"its not ready yet.  check ?eta in discord\"); \n        _;\n    }\n    \n    /**\n     * @dev prevents contracts from interacting with fomo3d \n     */\n    modifier isHuman() {\n        address _addr = msg.sender;\n        uint256 _codeLength;\n        \n        assembly {_codeLength := extcodesize(_addr)}\n        require(_codeLength == 0, \"sorry humans only\");\n        _;\n    }\n\n    /**\n     * @dev sets boundaries for incoming tx \n     */\n    modifier isWithinLimits(uint256 _eth) {\n        require(_eth >= 1000000000, \"pocket lint: not a valid currency\");\n        require(_eth <= 100000000000000000000000, \"no vitalik, no\");\n        _;    \n    }\n\n    function buy(uint256 rId, uint256 keyNum) isHuman() \n        public\n        payable\n    {\n        \n    }\n\n    function withdraw(uint256 amount) isHuman()\n        public\n        payable\n    {\n        \n    }\n    \n    function registWithName(string name) isHuman()\n        public\n        payable\n    {\n        \n    }\n\n    function getUserByName(string name) \n        public\n        view\n        returns(address,bytes32,bytes32,uint256)\n    {\n    }\n\n    function getUserByAddr(address addr)\n        public\n        view\n        returns(address,bytes32,bytes32,uint256)\n    {\n\n    }\n\n    function getUserAmountByName(string name) \n        public\n        view\n        returns(uint256,uint256,uint256,uint256,uint256,uint256,uint256,uint256,uint256)\n    { \n\n    }\n\n    function getUserAmountByAddr(address addr)\n        public\n        view\n        returns(uint256,uint256,uint256,uint256,uint256,uint256,uint256,uint256,uint256)\n    { \n    }\n\n\n    //----------------------------------------------------------------------------------------------------------\n    //---------------------------------------------------------------------------------------------------------\n    /**\n     * @dev 获取当前一个钥匙的购买价格\n     * \n     * @return 获取当前钥匙的购买价格 (用最小单位wei)\n     */\n    function getBuyPrice() \n         public  \n         view \n         returns(uint256) \n    { \n        return 0;\n    }\n\n    /**\n     * @dev 获取主游戏当前轮的剩余时间-这个可以客户端调用者来做\n     * \n     * @return 主游戏当前轮的剩余时间-秒数\n     */\n    function getMainRoundTimeLeft()\n        public\n        view\n        returns(uint256)\n    {\n    }\n\n      \n    /**\n     * @dev 返回当前主游戏的详细信息\n     * \n     * @return 主游戏当前轮数\n     * @return 主游戏当前轮的开始时间\n     * @return 主游戏当前轮的结束时间\n     * @return 主游戏当前轮的钥匙总数\n     * @return 主游戏当前轮总投入eth总量\n     * @return 主游戏当前轮可以用来奖励给最终用户的eth金额\n     * @return 当前游戏已经分红的eth金额\n     */\n    function getCurrentMainRoundInfo()\n        public\n        view\n        returns(uint256, uint256, uint256, uint256, uint256)\n    {\n    }\n\n    /**\n     * @dev 获取冲刺游戏当前轮的剩余时间-这个可以客户端调用者来做\n     * \n     * @return 冲刺游戏当前轮的剩余时间-秒数\n     */\n    function getSubRoundTimeLeft()\n        public\n        view\n        returns(uint256)\n    {\n    }\n    \n    /**\n     * @dev 返回冲刺游戏的详细信息\n     * \n     * @return 冲刺游戏当前轮数\n     * @return 冲刺游戏当前轮的开始时间\n     * @return 冲刺游戏当前轮的结束时间\n     * @return 冲刺游戏当前轮的钥匙总数\n     * @return 冲刺游戏当前轮总投入eth总量\n     * @return 冲刺游戏当前轮可以用来奖励给最终用户的eth金额\n     * @return 冲刺前游戏当前轮已经分红的eth金额\n     */\n    function getCurrentSubRoundInfo()\n        public\n        view\n        returns(uint256, uint256, uint256, uint256, uint256)\n    {\n    }\n\n   \n   \n\n}\n",
  "sourcePath": "/Users/wangmaodong/develop/myproject/MyFomo/contracts/MyFomo.sol",
  "compiler": {
    "name": "solc",
    "version": "0.4.24+commit.e67f0147.Emscripten.clang"
  },
  "schemaVersion": "2.0.1",
  "updatedAt": "2018-08-28T15:48:02.406Z"
}