{
  "contractName": "UserCenter",
  "abi": [
    {
      "constant": true,
      "inputs": [
        {
          "name": "",
          "type": "bytes32"
        }
      ],
      "name": "nameAddr_",
      "outputs": [
        {
          "name": "",
          "type": "address"
        }
      ],
      "payable": false,
      "stateMutability": "view",
      "type": "function"
    },
    {
      "constant": true,
      "inputs": [
        {
          "name": "",
          "type": "address"
        }
      ],
      "name": "userAmounts_",
      "outputs": [
        {
          "name": "totalKeys",
          "type": "uint256"
        },
        {
          "name": "totalBet",
          "type": "uint256"
        },
        {
          "name": "lastKeys",
          "type": "uint256"
        },
        {
          "name": "lastBet",
          "type": "uint256"
        },
        {
          "name": "totalBalance",
          "type": "uint256"
        },
        {
          "name": "withdrawAble",
          "type": "uint256"
        },
        {
          "name": "withdraw",
          "type": "uint256"
        },
        {
          "name": "totalProfit",
          "type": "uint256"
        },
        {
          "name": "inviteProfit",
          "type": "uint256"
        }
      ],
      "payable": false,
      "stateMutability": "view",
      "type": "function"
    },
    {
      "constant": true,
      "inputs": [
        {
          "name": "",
          "type": "uint256"
        }
      ],
      "name": "users_",
      "outputs": [
        {
          "name": "addr",
          "type": "address"
        },
        {
          "name": "name",
          "type": "bytes32"
        },
        {
          "name": "inviterName",
          "type": "bytes32"
        },
        {
          "name": "inviteNum",
          "type": "uint256"
        }
      ],
      "payable": false,
      "stateMutability": "view",
      "type": "function"
    },
    {
      "constant": true,
      "inputs": [
        {
          "name": "",
          "type": "address"
        }
      ],
      "name": "_admins",
      "outputs": [
        {
          "name": "",
          "type": "uint256"
        }
      ],
      "payable": false,
      "stateMutability": "view",
      "type": "function"
    },
    {
      "constant": true,
      "inputs": [],
      "name": "_uid",
      "outputs": [
        {
          "name": "",
          "type": "uint256"
        }
      ],
      "payable": false,
      "stateMutability": "view",
      "type": "function"
    },
    {
      "constant": true,
      "inputs": [
        {
          "name": "",
          "type": "address"
        }
      ],
      "name": "addrUids_",
      "outputs": [
        {
          "name": "",
          "type": "uint256"
        }
      ],
      "payable": false,
      "stateMutability": "view",
      "type": "function"
    },
    {
      "constant": true,
      "inputs": [],
      "name": "_opeAmount",
      "outputs": [
        {
          "name": "devFund",
          "type": "uint256"
        },
        {
          "name": "fees",
          "type": "uint256"
        }
      ],
      "payable": false,
      "stateMutability": "view",
      "type": "function"
    },
    {
      "inputs": [],
      "payable": false,
      "stateMutability": "nonpayable",
      "type": "constructor"
    },
    {
      "anonymous": false,
      "inputs": [
        {
          "indexed": false,
          "name": "mainRound",
          "type": "uint256"
        },
        {
          "indexed": false,
          "name": "mainRoundStartTime",
          "type": "uint256"
        },
        {
          "indexed": false,
          "name": "mainRoundEndTime",
          "type": "uint256"
        },
        {
          "indexed": false,
          "name": "mainRoundKey",
          "type": "uint256"
        },
        {
          "indexed": false,
          "name": "mainRoundeth",
          "type": "uint256"
        },
        {
          "indexed": false,
          "name": "mainRoundPot",
          "type": "uint256"
        },
        {
          "indexed": false,
          "name": "subRound",
          "type": "uint256"
        },
        {
          "indexed": false,
          "name": "subRoundStartTime",
          "type": "uint256"
        },
        {
          "indexed": false,
          "name": "subRoundEndTime",
          "type": "uint256"
        },
        {
          "indexed": false,
          "name": "subRoundKey",
          "type": "uint256"
        },
        {
          "indexed": false,
          "name": "subRoundeth",
          "type": "uint256"
        },
        {
          "indexed": false,
          "name": "subRoundPot",
          "type": "uint256"
        }
      ],
      "name": "onMainPauseSubStart",
      "type": "event"
    },
    {
      "anonymous": false,
      "inputs": [
        {
          "indexed": false,
          "name": "mainRound",
          "type": "uint256"
        },
        {
          "indexed": false,
          "name": "mainRoundStartTime",
          "type": "uint256"
        },
        {
          "indexed": false,
          "name": "mainRoundEndTime",
          "type": "uint256"
        },
        {
          "indexed": false,
          "name": "mainRoundKey",
          "type": "uint256"
        },
        {
          "indexed": false,
          "name": "mainRoundeth",
          "type": "uint256"
        },
        {
          "indexed": false,
          "name": "mainRoundPot",
          "type": "uint256"
        },
        {
          "indexed": false,
          "name": "subRound",
          "type": "uint256"
        },
        {
          "indexed": false,
          "name": "subRoundStartTime",
          "type": "uint256"
        },
        {
          "indexed": false,
          "name": "subRoundEndTime",
          "type": "uint256"
        },
        {
          "indexed": false,
          "name": "subRoundKey",
          "type": "uint256"
        },
        {
          "indexed": false,
          "name": "subRoundeth",
          "type": "uint256"
        },
        {
          "indexed": false,
          "name": "subRoundPot",
          "type": "uint256"
        }
      ],
      "name": "onMainRestartSubStop",
      "type": "event"
    },
    {
      "anonymous": false,
      "inputs": [
        {
          "indexed": false,
          "name": "timestamp",
          "type": "uint256"
        }
      ],
      "name": "onGameActive",
      "type": "event"
    },
    {
      "anonymous": false,
      "inputs": [
        {
          "indexed": true,
          "name": "uaddr",
          "type": "address"
        },
        {
          "indexed": true,
          "name": "uname",
          "type": "bytes32"
        },
        {
          "indexed": true,
          "name": "inviterAddr",
          "type": "address"
        },
        {
          "indexed": false,
          "name": "inviterName",
          "type": "bytes32"
        },
        {
          "indexed": false,
          "name": "isNewPlayer",
          "type": "bool"
        },
        {
          "indexed": false,
          "name": "timeStamp",
          "type": "uint256"
        }
      ],
      "name": "onNewUser",
      "type": "event"
    },
    {
      "anonymous": false,
      "inputs": [
        {
          "indexed": true,
          "name": "uaddr",
          "type": "address"
        },
        {
          "indexed": true,
          "name": "uname",
          "type": "address"
        },
        {
          "indexed": true,
          "name": "inviterAddr",
          "type": "address"
        },
        {
          "indexed": false,
          "name": "inviterName",
          "type": "address"
        },
        {
          "indexed": false,
          "name": "roundId",
          "type": "uint256"
        },
        {
          "indexed": false,
          "name": "keyNum",
          "type": "uint256"
        },
        {
          "indexed": false,
          "name": "payed",
          "type": "uint256"
        },
        {
          "indexed": false,
          "name": "total",
          "type": "uint256"
        },
        {
          "indexed": false,
          "name": "dividend",
          "type": "uint256"
        },
        {
          "indexed": false,
          "name": "winerBonus",
          "type": "uint256"
        },
        {
          "indexed": false,
          "name": "winerkeys",
          "type": "uint256"
        },
        {
          "indexed": false,
          "name": "timeStamp",
          "type": "uint256"
        }
      ],
      "name": "onUserBuy",
      "type": "event"
    },
    {
      "anonymous": false,
      "inputs": [
        {
          "indexed": false,
          "name": "playerAddress",
          "type": "address"
        },
        {
          "indexed": false,
          "name": "playerName",
          "type": "bytes32"
        },
        {
          "indexed": false,
          "name": "ethOut",
          "type": "uint256"
        },
        {
          "indexed": false,
          "name": "timeStamp",
          "type": "uint256"
        }
      ],
      "name": "onWithdraw",
      "type": "event"
    },
    {
      "anonymous": false,
      "inputs": [
        {
          "indexed": false,
          "name": "playerAddress",
          "type": "address"
        },
        {
          "indexed": false,
          "name": "playerName",
          "type": "bytes32"
        },
        {
          "indexed": false,
          "name": "ethOut",
          "type": "uint256"
        },
        {
          "indexed": false,
          "name": "winnerAddr",
          "type": "address"
        },
        {
          "indexed": false,
          "name": "winnerName",
          "type": "bytes32"
        },
        {
          "indexed": false,
          "name": "amountWon",
          "type": "uint256"
        },
        {
          "indexed": false,
          "name": "newPot",
          "type": "uint256"
        }
      ],
      "name": "onWithdrawAndDistribute",
      "type": "event"
    },
    {
      "anonymous": false,
      "inputs": [
        {
          "indexed": false,
          "name": "subWinnerAddr",
          "type": "address"
        },
        {
          "indexed": false,
          "name": "subWinnerName",
          "type": "bytes32"
        },
        {
          "indexed": false,
          "name": "subBonus",
          "type": "uint256"
        },
        {
          "indexed": false,
          "name": "winnerAddr",
          "type": "address"
        },
        {
          "indexed": false,
          "name": "winderName",
          "type": "bytes32"
        },
        {
          "indexed": false,
          "name": "newPot",
          "type": "uint256"
        }
      ],
      "name": "onMainAndSubStop",
      "type": "event"
    },
    {
      "constant": false,
      "inputs": [
        {
          "name": "nameStr",
          "type": "string"
        },
        {
          "name": "inviterStr",
          "type": "string"
        }
      ],
      "name": "registWithName",
      "outputs": [],
      "payable": true,
      "stateMutability": "payable",
      "type": "function"
    },
    {
      "constant": false,
      "inputs": [
        {
          "name": "addr",
          "type": "address"
        }
      ],
      "name": "registWithAddr",
      "outputs": [],
      "payable": false,
      "stateMutability": "nonpayable",
      "type": "function"
    },
    {
      "constant": false,
      "inputs": [
        {
          "name": "name",
          "type": "string"
        }
      ],
      "name": "getUserByName",
      "outputs": [
        {
          "name": "",
          "type": "address"
        },
        {
          "name": "",
          "type": "bytes32"
        },
        {
          "name": "",
          "type": "bytes32"
        },
        {
          "name": "",
          "type": "uint256"
        }
      ],
      "payable": false,
      "stateMutability": "nonpayable",
      "type": "function"
    },
    {
      "constant": false,
      "inputs": [
        {
          "name": "addr",
          "type": "address"
        }
      ],
      "name": "getUserByAddr",
      "outputs": [
        {
          "name": "",
          "type": "address"
        },
        {
          "name": "",
          "type": "bytes32"
        },
        {
          "name": "",
          "type": "bytes32"
        },
        {
          "name": "",
          "type": "uint256"
        }
      ],
      "payable": false,
      "stateMutability": "nonpayable",
      "type": "function"
    },
    {
      "constant": false,
      "inputs": [
        {
          "name": "name",
          "type": "string"
        }
      ],
      "name": "getUserAmountByName",
      "outputs": [
        {
          "name": "",
          "type": "uint256"
        },
        {
          "name": "",
          "type": "uint256"
        },
        {
          "name": "",
          "type": "uint256"
        },
        {
          "name": "",
          "type": "uint256"
        },
        {
          "name": "",
          "type": "uint256"
        },
        {
          "name": "",
          "type": "uint256"
        },
        {
          "name": "",
          "type": "uint256"
        },
        {
          "name": "",
          "type": "uint256"
        },
        {
          "name": "",
          "type": "uint256"
        }
      ],
      "payable": false,
      "stateMutability": "nonpayable",
      "type": "function"
    },
    {
      "constant": false,
      "inputs": [
        {
          "name": "addr",
          "type": "address"
        }
      ],
      "name": "getUserAmountByAddr",
      "outputs": [
        {
          "name": "",
          "type": "uint256"
        },
        {
          "name": "",
          "type": "uint256"
        },
        {
          "name": "",
          "type": "uint256"
        },
        {
          "name": "",
          "type": "uint256"
        },
        {
          "name": "",
          "type": "uint256"
        },
        {
          "name": "",
          "type": "uint256"
        },
        {
          "name": "",
          "type": "uint256"
        },
        {
          "name": "",
          "type": "uint256"
        },
        {
          "name": "",
          "type": "uint256"
        }
      ],
      "payable": false,
      "stateMutability": "nonpayable",
      "type": "function"
    },
    {
      "constant": true,
      "inputs": [
        {
          "name": "nameStr",
          "type": "string"
        }
      ],
      "name": "checkIfNameValid",
      "outputs": [
        {
          "name": "",
          "type": "bool"
        }
      ],
      "payable": false,
      "stateMutability": "view",
      "type": "function"
    },
    {
      "constant": true,
      "inputs": [
        {
          "name": "nameStr",
          "type": "string"
        }
      ],
      "name": "userExist",
      "outputs": [
        {
          "name": "",
          "type": "bool"
        }
      ],
      "payable": false,
      "stateMutability": "view",
      "type": "function"
    }
  ],
  "bytecode": "0x608060405234801561001057600080fd5b50600160038190555061277e806100286000396000f3006080604052600436106100db576000357c0100000000000000000000000000000000000000000000000000000000900463ffffffff1680630917ccad146100e05780630c92db91146101515780630cde7b7f146101e05780630d5e2053146102725780631b81e2d2146102c957806325dd24e71461034a57806338e2e753146103ec578063434b5b3c146104175780634bff5009146104cc57806359740e861461059a5780636c52660d146105f157806388a50bbe14610672578063b9005c4c146106b5578063f16e4e4614610744578063fd75c71f146107ec575b600080fd5b3480156100ec57600080fd5b5061010f600480360381019080803560001916906020019092919050505061081e565b604051808273ffffffffffffffffffffffffffffffffffffffff1673ffffffffffffffffffffffffffffffffffffffff16815260200191505060405180910390f35b34801561015d57600080fd5b50610192600480360381019080803573ffffffffffffffffffffffffffffffffffffffff169060200190929190505050610851565b604051808a8152602001898152602001888152602001878152602001868152602001858152602001848152602001838152602001828152602001995050505050505050505060405180910390f35b3480156101ec57600080fd5b5061020b6004803603810190808035906020019092919050505061089f565b604051808573ffffffffffffffffffffffffffffffffffffffff1673ffffffffffffffffffffffffffffffffffffffff1681526020018460001916600019168152602001836000191660001916815260200182815260200194505050505060405180910390f35b34801561027e57600080fd5b506102b3600480360381019080803573ffffffffffffffffffffffffffffffffffffffff1690602001909291905050506108ef565b6040518082815260200191505060405180910390f35b3480156102d557600080fd5b50610330600480360381019080803590602001908201803590602001908080601f0160208091040260200160405190810160405280939291908181526020018383808284378201915050505050509192919290505050610907565b604051808215151515815260200191505060405180910390f35b6103ea600480360381019080803590602001908201803590602001908080601f0160208091040260200160405190810160405280939291908181526020018383808284378201915050505050509192919290803590602001908201803590602001908080601f0160208091040260200160405190810160405280939291908181526020018383808284378201915050505050509192919290505050610983565b005b3480156103f857600080fd5b50610401610a95565b6040518082815260200191505060405180910390f35b34801561042357600080fd5b5061047e600480360381019080803590602001908201803590602001908080601f0160208091040260200160405190810160405280939291908181526020018383808284378201915050505050509192919290505050610a9b565b604051808a8152602001898152602001888152602001878152602001868152602001858152602001848152602001838152602001828152602001995050505050505050505060405180910390f35b3480156104d857600080fd5b50610533600480360381019080803590602001908201803590602001908080601f0160208091040260200160405190810160405280939291908181526020018383808284378201915050505050509192919290505050610c45565b604051808573ffffffffffffffffffffffffffffffffffffffff1673ffffffffffffffffffffffffffffffffffffffff1681526020018460001916600019168152602001836000191660001916815260200182815260200194505050505060405180910390f35b3480156105a657600080fd5b506105db600480360381019080803573ffffffffffffffffffffffffffffffffffffffff169060200190929190505050610df1565b6040518082815260200191505060405180910390f35b3480156105fd57600080fd5b50610658600480360381019080803590602001908201803590602001908080601f0160208091040260200160405190810160405280939291908181526020018383808284378201915050505050509192919290505050610e09565b604051808215151515815260200191505060405180910390f35b34801561067e57600080fd5b506106b3600480360381019080803573ffffffffffffffffffffffffffffffffffffffff169060200190929190505050610e85565b005b3480156106c157600080fd5b506106f6600480360381019080803573ffffffffffffffffffffffffffffffffffffffff169060200190929190505050610f5e565b604051808a8152602001898152602001888152602001878152602001868152602001858152602001848152602001838152602001828152602001995050505050505050505060405180910390f35b34801561075057600080fd5b50610785600480360381019080803573ffffffffffffffffffffffffffffffffffffffff169060200190929190505050611100565b604051808573ffffffffffffffffffffffffffffffffffffffff1673ffffffffffffffffffffffffffffffffffffffff1681526020018460001916600019168152602001836000191660001916815260200182815260200194505050505060405180910390f35b3480156107f857600080fd5b506108016112a4565b604051808381526020018281526020019250505060405180910390f35b60066020528060005260406000206000915054906101000a900473ffffffffffffffffffffffffffffffffffffffff1681565b60026020528060005260406000206000915090508060000154908060010154908060020154908060030154908060040154908060050154908060060154908060070154908060080154905089565b60046020528060005260406000206000915090508060000160009054906101000a900473ffffffffffffffffffffffffffffffffffffffff16908060010154908060020154908060030154905084565b60076020528060005260406000206000915090505481565b600080610913836112b6565b9050600060066000836000191660001916815260200190815260200160002060009054906101000a900473ffffffffffffffffffffffffffffffffffffffff1673ffffffffffffffffffffffffffffffffffffffff161415610978576001915061097d565b600091505b50919050565b6000806000806000339150813b9050600081141515610a0a576040517f08c379a00000000000000000000000000000000000000000000000000000000081526004018080602001828103825260118152602001807f736f7272792068756d616e73206f6e6c7900000000000000000000000000000081525060200191505060405180910390fd5b610a1387610e09565b15610a8c57610a21876112b6565b9450610a2c866112b6565b9350600092506000600560003373ffffffffffffffffffffffffffffffffffffffff1673ffffffffffffffffffffffffffffffffffffffff168152602001908152602001600020541415610a7f57600192505b610a8b33868686612238565b5b50505050505050565b60035481565b6000806000806000806000806000610ab16126c0565b61012060405190810160405280600081526020016000815260200160008152602001600081526020016000815260200160008152602001600081526020016000815260200160008152509050610b068b610907565b15610bf7576002600060066000610b1c8f6112b6565b6000191660001916815260200190815260200160002060009054906101000a900473ffffffffffffffffffffffffffffffffffffffff1673ffffffffffffffffffffffffffffffffffffffff1673ffffffffffffffffffffffffffffffffffffffff1681526020019081526020016000206101206040519081016040529081600082015481526020016001820154815260200160028201548152602001600382015481526020016004820154815260200160058201548152602001600682015481526020016007820154815260200160088201548152505090505b806000015181602001518260400151836060015184608001518560a001518660c001518760e00151886101000151995099509950995099509950995099509950509193959799909294969850565b600080600080610c5361270d565b608060405190810160405280600073ffffffffffffffffffffffffffffffffffffffff168152602001600080191681526020016000801916815260200160008152509050610ca086610e09565b15610dcd57600460006005600060066000610cba8c6112b6565b6000191660001916815260200190815260200160002060009054906101000a900473ffffffffffffffffffffffffffffffffffffffff1673ffffffffffffffffffffffffffffffffffffffff1673ffffffffffffffffffffffffffffffffffffffff168152602001908152602001600020548152602001908152602001600020608060405190810160405290816000820160009054906101000a900473ffffffffffffffffffffffffffffffffffffffff1673ffffffffffffffffffffffffffffffffffffffff1673ffffffffffffffffffffffffffffffffffffffff16815260200160018201546000191660001916815260200160028201546000191660001916815260200160038201548152505090505b80600001518160200151826040015183606001519450945094509450509193509193565b60056020528060005260406000206000915090505481565b600080610e15836112b6565b9050600060066000836000191660001916815260200190815260200160002060009054906101000a900473ffffffffffffffffffffffffffffffffffffffff1673ffffffffffffffffffffffffffffffffffffffff161415610e7a5760019150610e7f565b600091505b50919050565b6000813b9050600081141515610f03576040517f08c379a00000000000000000000000000000000000000000000000000000000081526004018080602001828103825260118152602001807f736f7272792068756d616e73206f6e6c7900000000000000000000000000000081525060200191505060405180910390fd5b6000600560008473ffffffffffffffffffffffffffffffffffffffff1673ffffffffffffffffffffffffffffffffffffffff168152602001908152602001600020541415610f5a57610f59826000806001612238565b5b5050565b6000806000806000806000806000610f746126c0565b610120604051908101604052806000815260200160008152602001600081526020016000815260200160008152602001600081526020016000815260200160008152602001600081525090506000600560008d73ffffffffffffffffffffffffffffffffffffffff1673ffffffffffffffffffffffffffffffffffffffff168152602001908152602001600020541415156110b257600260008c73ffffffffffffffffffffffffffffffffffffffff1673ffffffffffffffffffffffffffffffffffffffff1681526020019081526020016000206101206040519081016040529081600082015481526020016001820154815260200160028201548152602001600382015481526020016004820154815260200160058201548152602001600682015481526020016007820154815260200160088201548152505090505b806000015181602001518260400151836060015184608001518560a001518660c001518760e00151886101000151995099509950995099509950995099509950509193959799909294969850565b60008060008061110e61270d565b608060405190810160405280600073ffffffffffffffffffffffffffffffffffffffff1681526020016000801916815260200160008019168152602001600081525090506000600560008873ffffffffffffffffffffffffffffffffffffffff1673ffffffffffffffffffffffffffffffffffffffff168152602001908152602001600020541415156112805760046000600560008973ffffffffffffffffffffffffffffffffffffffff1673ffffffffffffffffffffffffffffffffffffffff168152602001908152602001600020548152602001908152602001600020608060405190810160405290816000820160009054906101000a900473ffffffffffffffffffffffffffffffffffffffff1673ffffffffffffffffffffffffffffffffffffffff1673ffffffffffffffffffffffffffffffffffffffff16815260200160018201546000191660001916815260200160028201546000191660001916815260200160038201548152505090505b80600001518160200151826040015183606001519450945094509450509193509193565b60008060000154908060010154905082565b6000606060008060008086945084519350602084111580156112d85750600084115b1515611372576040517f08c379a000000000000000000000000000000000000000000000000000000000815260040180806020018281038252602a8152602001807f737472696e67206d757374206265206265747765656e203120616e642033322081526020017f636861726163746572730000000000000000000000000000000000000000000081525060400191505060405180910390fd5b60207f0100000000000000000000000000000000000000000000000000000000000000028560008151811015156113a557fe5b9060200101517f010000000000000000000000000000000000000000000000000000000000000090047f0100000000000000000000000000000000000000000000000000000000000000027effffffffffffffffffffffffffffffffffffffffffffffffffffffffffffff1916141580156114c0575060207f010000000000000000000000000000000000000000000000000000000000000002856001860381518110151561145057fe5b9060200101517f010000000000000000000000000000000000000000000000000000000000000090047f0100000000000000000000000000000000000000000000000000000000000000027effffffffffffffffffffffffffffffffffffffffffffffffffffffffffffff191614155b151561155a576040517f08c379a00000000000000000000000000000000000000000000000000000000081526004018080602001828103825260258152602001807f737472696e672063616e6e6f74207374617274206f7220656e6420776974682081526020017f737061636500000000000000000000000000000000000000000000000000000081525060400191505060405180910390fd5b60307f01000000000000000000000000000000000000000000000000000000000000000285600081518110151561158d57fe5b9060200101517f010000000000000000000000000000000000000000000000000000000000000090047f0100000000000000000000000000000000000000000000000000000000000000027effffffffffffffffffffffffffffffffffffffffffffffffffffffffffffff1916141561182d5760787f01000000000000000000000000000000000000000000000000000000000000000285600181518110151561163357fe5b9060200101517f010000000000000000000000000000000000000000000000000000000000000090047f0100000000000000000000000000000000000000000000000000000000000000027effffffffffffffffffffffffffffffffffffffffffffffffffffffffffffff191614151515611716576040517f08c379a000000000000000000000000000000000000000000000000000000000815260040180806020018281038252601b8152602001807f737472696e672063616e6e6f742073746172742077697468203078000000000081525060200191505060405180910390fd5b60587f01000000000000000000000000000000000000000000000000000000000000000285600181518110151561174957fe5b9060200101517f010000000000000000000000000000000000000000000000000000000000000090047f0100000000000000000000000000000000000000000000000000000000000000027effffffffffffffffffffffffffffffffffffffffffffffffffffffffffffff19161415151561182c576040517f08c379a000000000000000000000000000000000000000000000000000000000815260040180806020018281038252601b8152602001807f737472696e672063616e6e6f742073746172742077697468203058000000000081525060200191505060405180910390fd5b5b600091505b838210156121a85760407f010000000000000000000000000000000000000000000000000000000000000002858381518110151561186c57fe5b9060200101517f010000000000000000000000000000000000000000000000000000000000000090047f0100000000000000000000000000000000000000000000000000000000000000027effffffffffffffffffffffffffffffffffffffffffffffffffffffffffffff19161180156119825750605b7f010000000000000000000000000000000000000000000000000000000000000002858381518110151561191357fe5b9060200101517f010000000000000000000000000000000000000000000000000000000000000090047f0100000000000000000000000000000000000000000000000000000000000000027effffffffffffffffffffffffffffffffffffffffffffffffffffffffffffff1916105b15611a7d576020858381518110151561199757fe5b9060200101517f010000000000000000000000000000000000000000000000000000000000000090047f0100000000000000000000000000000000000000000000000000000000000000027f01000000000000000000000000000000000000000000000000000000000000009004017f0100000000000000000000000000000000000000000000000000000000000000028583815181101515611a3657fe5b9060200101907effffffffffffffffffffffffffffffffffffffffffffffffffffffffffffff1916908160001a905350600015158315151415611a7857600192505b61219b565b60207f0100000000000000000000000000000000000000000000000000000000000000028583815181101515611aaf57fe5b9060200101517f010000000000000000000000000000000000000000000000000000000000000090047f0100000000000000000000000000000000000000000000000000000000000000027effffffffffffffffffffffffffffffffffffffffffffffffffffffffffffff19161480611c6c575060607f0100000000000000000000000000000000000000000000000000000000000000028583815181101515611b5557fe5b9060200101517f010000000000000000000000000000000000000000000000000000000000000090047f0100000000000000000000000000000000000000000000000000000000000000027effffffffffffffffffffffffffffffffffffffffffffffffffffffffffffff1916118015611c6b5750607b7f0100000000000000000000000000000000000000000000000000000000000000028583815181101515611bfc57fe5b9060200101517f010000000000000000000000000000000000000000000000000000000000000090047f0100000000000000000000000000000000000000000000000000000000000000027effffffffffffffffffffffffffffffffffffffffffffffffffffffffffffff1916105b5b80611dbb5750602f7f0100000000000000000000000000000000000000000000000000000000000000028583815181101515611ca457fe5b9060200101517f010000000000000000000000000000000000000000000000000000000000000090047f0100000000000000000000000000000000000000000000000000000000000000027effffffffffffffffffffffffffffffffffffffffffffffffffffffffffffff1916118015611dba5750603a7f0100000000000000000000000000000000000000000000000000000000000000028583815181101515611d4b57fe5b9060200101517f010000000000000000000000000000000000000000000000000000000000000090047f0100000000000000000000000000000000000000000000000000000000000000027effffffffffffffffffffffffffffffffffffffffffffffffffffffffffffff1916105b5b1515611e55576040517f08c379a00000000000000000000000000000000000000000000000000000000081526004018080602001828103825260228152602001807f737472696e6720636f6e7461696e7320696e76616c696420636861726163746581526020017f727300000000000000000000000000000000000000000000000000000000000081525060400191505060405180910390fd5b60207f0100000000000000000000000000000000000000000000000000000000000000028583815181101515611e8757fe5b9060200101517f010000000000000000000000000000000000000000000000000000000000000090047f0100000000000000000000000000000000000000000000000000000000000000027effffffffffffffffffffffffffffffffffffffffffffffffffffffffffffff191614156120395760207f0100000000000000000000000000000000000000000000000000000000000000028560018401815181101515611f2f57fe5b9060200101517f010000000000000000000000000000000000000000000000000000000000000090047f0100000000000000000000000000000000000000000000000000000000000000027effffffffffffffffffffffffffffffffffffffffffffffffffffffffffffff191614151515612038576040517f08c379a00000000000000000000000000000000000000000000000000000000081526004018080602001828103825260288152602001807f737472696e672063616e6e6f7420636f6e7461696e20636f6e7365637574697681526020017f652073706163657300000000000000000000000000000000000000000000000081525060400191505060405180910390fd5b5b60001515831515148015612190575060307f010000000000000000000000000000000000000000000000000000000000000002858381518110151561207a57fe5b9060200101517f010000000000000000000000000000000000000000000000000000000000000090047f0100000000000000000000000000000000000000000000000000000000000000027effffffffffffffffffffffffffffffffffffffffffffffffffffffffffffff1916108061218f575060397f010000000000000000000000000000000000000000000000000000000000000002858381518110151561212057fe5b9060200101517f010000000000000000000000000000000000000000000000000000000000000090047f0100000000000000000000000000000000000000000000000000000000000000027effffffffffffffffffffffffffffffffffffffffffffffffffffffffffffff1916115b5b1561219a57600192505b5b8180600101925050611832565b60011515831515141515612224576040517f08c379a000000000000000000000000000000000000000000000000000000000815260040180806020018281038252601d8152602001807f737472696e672063616e6e6f74206265206f6e6c79206e756d6265727300000081525060200191505060405180910390fd5b602085015190508095505050505050919050565b6000600560008673ffffffffffffffffffffffffffffffffffffffff1673ffffffffffffffffffffffffffffffffffffffff1681526020019081526020016000205490508115612414576003549050600084600019161415156122f0578460066000866000191660001916815260200190815260200160002060006101000a81548173ffffffffffffffffffffffffffffffffffffffff021916908373ffffffffffffffffffffffffffffffffffffffff1602179055505b600354600560008773ffffffffffffffffffffffffffffffffffffffff1673ffffffffffffffffffffffffffffffffffffffff168152602001908152602001600020819055506080604051908101604052808673ffffffffffffffffffffffffffffffffffffffff168152602001856000191681526020018460001916815260200160008152506004600083815260200190815260200160002060008201518160000160006101000a81548173ffffffffffffffffffffffffffffffffffffffff021916908373ffffffffffffffffffffffffffffffffffffffff16021790555060208201518160010190600019169055604082015181600201906000191690556060820151816003015590505060016003600082825401925050819055506124ad565b8460066000866000191660001916815260200190815260200160002060006101000a81548173ffffffffffffffffffffffffffffffffffffffff021916908373ffffffffffffffffffffffffffffffffffffffff16021790555083600460008381526020019081526020016000206001018160001916905550826004600083815260200190815260200160002060020181600019169055505b600060066000856000191660001916815260200190815260200160002060009054906101000a900473ffffffffffffffffffffffffffffffffffffffff1673ffffffffffffffffffffffffffffffffffffffff16141561252c5760006004600083815260200190815260200160002060020181600019169055506125cc565b6001600460006005600060066000896000191660001916815260200190815260200160002060009054906101000a900473ffffffffffffffffffffffffffffffffffffffff1673ffffffffffffffffffffffffffffffffffffffff1673ffffffffffffffffffffffffffffffffffffffff168152602001908152602001600020548152602001908152602001600020600301600082825401925050819055505b6006600060046000848152602001908152602001600020600201546000191660001916815260200190815260200160002060009054906101000a900473ffffffffffffffffffffffffffffffffffffffff1673ffffffffffffffffffffffffffffffffffffffff1684600019168673ffffffffffffffffffffffffffffffffffffffff167f2c484b021bde81945545322539f6af8dcf21328003d6994f7577ea9ad42100f76004600086815260200190815260200160002060020154864260405180846000191660001916815260200183151515158152602001828152602001935050505060405180910390a45050505050565b610120604051908101604052806000815260200160008152602001600081526020016000815260200160008152602001600081526020016000815260200160008152602001600081525090565b608060405190810160405280600073ffffffffffffffffffffffffffffffffffffffff16815260200160008019168152602001600080191681526020016000815250905600a165627a7a723058200250cb34ae23351d1dc1d36a2b92b71210b3f4a3743301323abed5ce69a537a30029",
  "source": "pragma solidity ^0.4.24;\n\nimport \"./library/SafeMath.sol\";\nimport \"./library/NameFilter.sol\";\nimport \"./library/MSFun.sol\";\n\nimport \"./MyFomoDataSet.sol\";\nimport \"./MyFomoEvents.sol\";\n\ncontract CoreBank is MyFomoEvents {\n    MyFomoDataSet.OperationAmount public _opeAmount;                   // \n    mapping(address => MyFomoDataSet.UserAmount) public userAmounts_;  //  => \n}\n\ncontract UserCenter is CoreBank {\n    using NameFilter for string;\n    using SafeMath for uint256;\n\n    uint256 public _uid; // id 1\n    mapping(uint256 => MyFomoDataSet.User) public users_; // user id => user\n    mapping(address => uint256) public addrUids_; // user address => user id\n    mapping(bytes32 => address) public nameAddr_; // user name => user address\n    mapping(address => uint256) public _admins; // admin users\n\n    constructor()\n        public\n    {\n        _uid = 1;\n    }\n\n    /**\n     * brief: \n     * *name 32\n     */\n    function registWithName(string nameStr, string inviterStr) \n        public\n        payable\n        isHuman()\n    {\n        if (checkIfNameValid(nameStr)) {\n            bytes32 name = nameStr.nameFilter();\n            bytes32 inviter = inviterStr.nameFilter();\n            bool isNew = false;\n            if (addrUids_[msg.sender] == 0)   \n                isNew = true;\n            registCore(msg.sender, name, inviter, isNew);\n        } \n    }\n\n    function registWithAddr(address addr) \n        public\n    {\n        uint256 codeLength;\n        assembly {codeLength := extcodesize(addr)}\n        require(codeLength == 0, \"sorry humans only\");\n        if (addrUids_[addr] == 0) {\n            registCore(addr, \"\", \"\", true);\n        }\n    }\n\n    /**\n     * brief: \n     *  name ()\n     *  User User\n     * address addr;           // \n     * bytes32 name;           // ()\n     * bytes32 inviterName;    // \n     * uint256 inviteNum;      // \n     */\n    function getUserByName(string name) \n        public \n        returns(address, bytes32, bytes32, uint256)\n    {\n        MyFomoDataSet.User memory usr = MyFomoDataSet.User(0, \"\", \"\", 0);\n        if (checkIfNameValid(name))\n             usr = users_[addrUids_[nameAddr_[name.nameFilter()]]];\n\n        return (usr.addr, usr.name, usr.inviterName, usr.inviteNum); \n    }\n\n    /**\n     * brief: \n     *  addr[option] , \n     *  User User\n    */\n    function getUserByAddr(address addr) \n        public \n        returns(address, bytes32, bytes32, uint256)\n    {\n        MyFomoDataSet.User memory usr = MyFomoDataSet.User(0, \"\", \"\", 0);\n        if (addrUids_[addr] != 0)\n             usr = users_[addrUids_[addr]];\n\n        return (usr.addr, usr.name, usr.inviterName, usr.inviteNum); \n    }\n\n    /**\n     * brief: \n     * : name \n     * UserAmount UserAmount\n     * uint256 totalKeys;          // \n     * uint256 totalBet;           // eth\n     * uint256 lastKeys;           // \n     * uint256 lastBet;            // \n     * uint256 totalBalance;       // (eth)\n     * uint256 withdrawAble;       // (eth)\n     * uint256 withdraw;           // (eth)\n     * uint256 totalProfit;        //  )\n     * uint256 inviteProfit;       // (eth)\n     */\n    function getUserAmountByName(string name) \n        public \n        returns(uint256, uint256, uint256, uint256, uint256, uint256, uint256, uint256, uint256)\n    {\n        MyFomoDataSet.UserAmount memory amt = MyFomoDataSet.UserAmount(0,0,0,0,0,0,0,0,0);\n        if (userExist(name))\n            amt = userAmounts_[nameAddr_[name.nameFilter()]];\n        \n        return (\n            amt.totalKeys, amt.totalBet, amt.lastKeys, \n            amt.lastBet, amt.totalBalance, amt.withdrawAble,\n            amt.withdraw, amt.totalProfit, amt.inviteProfit\n        );\n    }\n\n    /**\n     * brief: \n     * : add[option] , \n     * UserAmount UserAmount\n     */\n    function getUserAmountByAddr(address addr)\n        public \n        returns(uint256, uint256, uint256, uint256, uint256, uint256, uint256, uint256, uint256)\n    {\n        MyFomoDataSet.UserAmount memory amt = MyFomoDataSet.UserAmount(0,0,0,0,0,0,0,0,0);\n        if (addrUids_[addr] != 0)\n            amt = userAmounts_[addr];\n        \n        return (\n            amt.totalKeys, amt.totalBet, amt.lastKeys, \n            amt.lastBet, amt.totalBalance, amt.withdrawAble,\n            amt.withdraw, amt.totalProfit, amt.inviteProfit\n        );\n    }\n    \n    function checkIfNameValid(string nameStr)\n        public\n        view\n        returns(bool)\n    {\n        bytes32 name = nameStr.nameFilter();\n        if (nameAddr_[name] == 0)\n            return (true);\n        else \n            return (false);\n    }\n\n    function userExist(string nameStr) \n        public\n        view\n        returns(bool)\n    {\n        bytes32 name = nameStr.nameFilter();\n        if (nameAddr_[name] == 0) {\n            return (true);\n        } else {\n            return (false);\n        }\n    }\n\n    function registCore(address addr, bytes32 name, bytes32 inviter, bool isNew) \n        private\n    {\n        uint256 uid = addrUids_[addr];\n        if (isNew) {\n            uid = _uid;\n            if (name != \"\") {\n                nameAddr_[name] = addr;\n            }\n            addrUids_[addr] = _uid;\n            users_[uid] = MyFomoDataSet.User(addr, name, inviter, 0);\n            _uid += 1;\n        } else {\n            nameAddr_[name] = addr;\n            users_[uid].name = name;\n            users_[uid].inviterName = inviter;\n        }\n        if (nameAddr_[inviter] == 0) \n            users_[uid].inviterName = \"\";\n        else \n            users_[addrUids_[nameAddr_[inviter]]].inviteNum += 1;\n\n        emit onNewUser(addr, name, nameAddr_[users_[uid].inviterName], users_[uid].inviterName, isNew, now);\n        \n    }\n\n    modifier isHuman() {\n        address _addr = msg.sender;\n        uint256 _codeLength;\n        \n        assembly {_codeLength := extcodesize(_addr)}\n        require(_codeLength == 0, \"sorry humans only\");\n        _;\n    }\n\n    modifier isOwner() {\n        address addr = msg.sender;\n        require(_admins[addr] != 0, \"sorry, owners only\");\n        _;\n    }\n        \n}",
  "sourcePath": "/Users/jazz/Desktop/proj/DApp/MyFomo/contracts/UserCenter.sol",
  "compiler": {
    "name": "solc",
    "version": "0.4.24+commit.e67f0147.Emscripten.clang"
  },
  "schemaVersion": "2.0.1",
  "updatedAt": "2018-09-07T15:22:21.773Z"
}